{"contracts/ShunaRouter.sol":{"ShunaRouter":{"abi":[{"inputs":[{"internalType":"address","name":"_factory","type":"address"},{"internalType":"address","name":"_WETH","type":"address"}],"stateMutability":"nonpayable","type":"constructor"},{"inputs":[],"name":"WETH","outputs":[{"internalType":"address","name":"","type":"address"}],"stateMutability":"view","type":"function"},{"inputs":[{"internalType":"address","name":"tokenA","type":"address"},{"internalType":"address","name":"tokenB","type":"address"},{"internalType":"uint256","name":"amountADesired","type":"uint256"},{"internalType":"uint256","name":"amountBDesired","type":"uint256"},{"internalType":"uint256","name":"amountAMin","type":"uint256"},{"internalType":"uint256","name":"amountBMin","type":"uint256"},{"internalType":"address","name":"to","type":"address"},{"internalType":"uint256","name":"deadline","type":"uint256"}],"name":"addLiquidity","outputs":[{"internalType":"uint256","name":"amountA","type":"uint256"},{"internalType":"uint256","name":"amountB","type":"uint256"},{"internalType":"uint256","name":"liquidity","type":"uint256"}],"stateMutability":"nonpayable","type":"function"},{"inputs":[{"internalType":"address","name":"token","type":"address"},{"internalType":"uint256","name":"amountTokenDesired","type":"uint256"},{"internalType":"uint256","name":"amountTokenMin","type":"uint256"},{"internalType":"uint256","name":"amountETHMin","type":"uint256"},{"internalType":"address","name":"to","type":"address"},{"internalType":"uint256","name":"deadline","type":"uint256"}],"name":"addLiquidityETH","outputs":[{"internalType":"uint256","name":"amountToken","type":"uint256"},{"internalType":"uint256","name":"amountETH","type":"uint256"},{"internalType":"uint256","name":"liquidity","type":"uint256"}],"stateMutability":"payable","type":"function"},{"inputs":[],"name":"factory","outputs":[{"internalType":"address","name":"","type":"address"}],"stateMutability":"view","type":"function"},{"inputs":[{"internalType":"address","name":"tokenA","type":"address"},{"internalType":"address","name":"tokenB","type":"address"},{"internalType":"uint256","name":"liquidity","type":"uint256"},{"internalType":"uint256","name":"amountAMin","type":"uint256"},{"internalType":"uint256","name":"amountBMin","type":"uint256"},{"internalType":"address","name":"to","type":"address"},{"internalType":"uint256","name":"deadline","type":"uint256"}],"name":"removeLiquidity","outputs":[{"internalType":"uint256","name":"amountA","type":"uint256"},{"internalType":"uint256","name":"amountB","type":"uint256"}],"stateMutability":"nonpayable","type":"function"},{"inputs":[{"internalType":"address","name":"token","type":"address"},{"internalType":"uint256","name":"liquidity","type":"uint256"},{"internalType":"uint256","name":"amountTokenMin","type":"uint256"},{"internalType":"uint256","name":"amountETHMin","type":"uint256"},{"internalType":"address","name":"to","type":"address"},{"internalType":"uint256","name":"deadline","type":"uint256"}],"name":"removeLiquidityETH","outputs":[{"internalType":"uint256","name":"amountToken","type":"uint256"},{"internalType":"uint256","name":"amountETH","type":"uint256"}],"stateMutability":"nonpayable","type":"function"},{"inputs":[{"internalType":"uint256","name":"amountOutMin","type":"uint256"},{"internalType":"address[]","name":"path","type":"address[]"},{"internalType":"address","name":"to","type":"address"},{"internalType":"uint256","name":"deadline","type":"uint256"}],"name":"swapExactETHForTokens","outputs":[{"internalType":"uint256[]","name":"amounts","type":"uint256[]"}],"stateMutability":"payable","type":"function"},{"inputs":[{"internalType":"uint256","name":"amountIn","type":"uint256"},{"internalType":"uint256","name":"amountOutMin","type":"uint256"},{"internalType":"address[]","name":"path","type":"address[]"},{"internalType":"address","name":"to","type":"address"},{"internalType":"uint256","name":"deadline","type":"uint256"}],"name":"swapExactTokensForETH","outputs":[{"internalType":"uint256[]","name":"amounts","type":"uint256[]"}],"stateMutability":"nonpayable","type":"function"},{"inputs":[{"internalType":"uint256","name":"amountIn","type":"uint256"},{"internalType":"uint256","name":"amountOutMin","type":"uint256"},{"internalType":"address[]","name":"path","type":"address[]"},{"internalType":"address","name":"to","type":"address"},{"internalType":"uint256","name":"deadline","type":"uint256"}],"name":"swapExactTokensForTokens","outputs":[{"internalType":"uint256[]","name":"amounts","type":"uint256[]"}],"stateMutability":"nonpayable","type":"function"},{"stateMutability":"payable","type":"receive"}],"evm":{"bytecode":{"linkReferences":{},"object":"60c060405234801561001057600080fd5b50604051613b01380380613b0183398181016040528101906100329190610104565b8173ffffffffffffffffffffffffffffffffffffffff1660808173ffffffffffffffffffffffffffffffffffffffff16815250508073ffffffffffffffffffffffffffffffffffffffff1660a08173ffffffffffffffffffffffffffffffffffffffff16815250505050610144565b600080fd5b600073ffffffffffffffffffffffffffffffffffffffff82169050919050565b60006100d1826100a6565b9050919050565b6100e1816100c6565b81146100ec57600080fd5b50565b6000815190506100fe816100d8565b92915050565b6000806040838503121561011b5761011a6100a1565b5b6000610129858286016100ef565b925050602061013a858286016100ef565b9150509250929050565b60805160a0516138e361021e6000396000818160910152818161032c0152818161036a015281816104510152818161070201528181610a7401528181610c0201528181610c9e01528181610e34015281816110eb015281816111440152818161117801526111f90152600081816105180152818161061d015281816108390152818161093e01528181610b2d01528181610cdd01528181610f4601528181610fce01528181611122015281816119b401528181611a0801528181611b0f01528181611cb401528181611d6b0152611e1101526138e36000f3fe60806040526004361061008a5760003560e01c8063ad5c464811610059578063ad5c4648146101da578063baa2abde14610205578063c45a015514610243578063e8e337001461026e578063f305d719146102ad576100ed565b806302751cec146100f257806318cbafe51461013057806338ed17391461016d5780637ff36ab5146101aa576100ed565b366100ed577f000000000000000000000000000000000000000000000000000000000000000073ffffffffffffffffffffffffffffffffffffffff163373ffffffffffffffffffffffffffffffffffffffff16146100eb576100ea6123e1565b5b005b600080fd5b3480156100fe57600080fd5b50610119600480360381019061011491906124ae565b6102df565b60405161012792919061254a565b60405180910390f35b34801561013c57600080fd5b50610157600480360381019061015291906125d8565b610409565b6040516101649190612730565b60405180910390f35b34801561017957600080fd5b50610194600480360381019061018f91906125d8565b6107ee565b6040516101a19190612730565b60405180910390f35b6101c460048036038101906101bf9190612752565b610a2c565b6040516101d19190612730565b60405180910390f35b3480156101e657600080fd5b506101ef610e32565b6040516101fc91906127e9565b60405180910390f35b34801561021157600080fd5b5061022c60048036038101906102279190612804565b610e56565b60405161023a92919061254a565b60405180910390f35b34801561024f57600080fd5b50610258610f44565b60405161026591906127e9565b60405180910390f35b34801561027a57600080fd5b50610295600480360381019061029091906128a6565b610f68565b6040516102a49392919061295c565b60405180910390f35b6102c760048036038101906102c291906124ae565b61109c565b6040516102d69392919061295c565b60405180910390f35b6000808242811015610326576040517f08c379a000000000000000000000000000000000000000000000000000000000815260040161031d906129f0565b60405180910390fd5b610355897f00000000000000000000000000000000000000000000000000000000000000008a8a8a308a610e56565b809350819450505061036889868561134c565b7f000000000000000000000000000000000000000000000000000000000000000073ffffffffffffffffffffffffffffffffffffffff16632e1a7d4d836040518263ffffffff1660e01b81526004016103c19190612a10565b600060405180830381600087803b1580156103db57600080fd5b505af11580156103ef573d6000803e3d6000fd5b505050506103fd8583611482565b50965096945050505050565b6060814281101561044f576040517f08c379a0000000000000000000000000000000000000000000000000000000008152600401610446906129f0565b60405180910390fd5b7f000000000000000000000000000000000000000000000000000000000000000073ffffffffffffffffffffffffffffffffffffffff1686866001898990506104989190612a5a565b8181106104a8576104a7612a8e565b5b90506020020160208101906104bd9190612abd565b73ffffffffffffffffffffffffffffffffffffffff1614610513576040517f08c379a000000000000000000000000000000000000000000000000000000000815260040161050a90612b36565b60405180910390fd5b61057f7f000000000000000000000000000000000000000000000000000000000000000089888880806020026020016040519081016040528093929190818152602001838360200280828437600081840152601f19601f82011690508083019250505050505050611582565b91508682600184516105919190612a5a565b815181106105a2576105a1612a8e565b5b602002602001015110156105eb576040517f08c379a00000000000000000000000000000000000000000000000000000000081526004016105e290612bc8565b60405180910390fd5b6106b48686600081811061060257610601612a8e565b5b90506020020160208101906106179190612abd565b336106937f00000000000000000000000000000000000000000000000000000000000000008a8a60008181106106505761064f612a8e565b5b90506020020160208101906106659190612abd565b8b8b600181811061067957610678612a8e565b5b905060200201602081019061068e9190612abd565b611707565b856000815181106106a7576106a6612a8e565b5b6020026020010151611779565b61070082878780806020026020016040519081016040528093929190818152602001838360200280828437600081840152601f19601f82011690508083019250505050505050306118b2565b7f000000000000000000000000000000000000000000000000000000000000000073ffffffffffffffffffffffffffffffffffffffff16632e1a7d4d836001855161074b9190612a5a565b8151811061075c5761075b612a8e565b5b60200260200101516040518263ffffffff1660e01b81526004016107809190612a10565b600060405180830381600087803b15801561079a57600080fd5b505af11580156107ae573d6000803e3d6000fd5b505050506107e38483600185516107c59190612a5a565b815181106107d6576107d5612a8e565b5b6020026020010151611482565b509695505050505050565b60608142811015610834576040517f08c379a000000000000000000000000000000000000000000000000000000000815260040161082b906129f0565b60405180910390fd5b6108a07f000000000000000000000000000000000000000000000000000000000000000089888880806020026020016040519081016040528093929190818152602001838360200280828437600081840152601f19601f82011690508083019250505050505050611582565b91508682600184516108b29190612a5a565b815181106108c3576108c2612a8e565b5b6020026020010151101561090c576040517f08c379a000000000000000000000000000000000000000000000000000000000815260040161090390612bc8565b60405180910390fd5b6109d58686600081811061092357610922612a8e565b5b90506020020160208101906109389190612abd565b336109b47f00000000000000000000000000000000000000000000000000000000000000008a8a600081811061097157610970612a8e565b5b90506020020160208101906109869190612abd565b8b8b600181811061099a57610999612a8e565b5b90506020020160208101906109af9190612abd565b611707565b856000815181106109c8576109c7612a8e565b5b6020026020010151611779565b610a2182878780806020026020016040519081016040528093929190818152602001838360200280828437600081840152601f19601f82011690508083019250505050505050866118b2565b509695505050505050565b60608142811015610a72576040517f08c379a0000000000000000000000000000000000000000000000000000000008152600401610a69906129f0565b60405180910390fd5b7f000000000000000000000000000000000000000000000000000000000000000073ffffffffffffffffffffffffffffffffffffffff1686866000818110610abd57610abc612a8e565b5b9050602002016020810190610ad29190612abd565b73ffffffffffffffffffffffffffffffffffffffff1614610b28576040517f08c379a0000000000000000000000000000000000000000000000000000000008152600401610b1f90612b36565b60405180910390fd5b610b947f000000000000000000000000000000000000000000000000000000000000000034888880806020026020016040519081016040528093929190818152602001838360200280828437600081840152601f19601f82011690508083019250505050505050611582565b9150868260018451610ba69190612a5a565b81518110610bb757610bb6612a8e565b5b60200260200101511015610c00576040517f08c379a0000000000000000000000000000000000000000000000000000000008152600401610bf790612bc8565b60405180910390fd5b7f000000000000000000000000000000000000000000000000000000000000000073ffffffffffffffffffffffffffffffffffffffff1663d0e30db083600081518110610c5057610c4f612a8e565b5b60200260200101516040518263ffffffff1660e01b81526004016000604051808303818588803b158015610c8357600080fd5b505af1158015610c97573d6000803e3d6000fd5b50505050507f000000000000000000000000000000000000000000000000000000000000000073ffffffffffffffffffffffffffffffffffffffff1663a9059cbb610d537f000000000000000000000000000000000000000000000000000000000000000089896000818110610d1057610d0f612a8e565b5b9050602002016020810190610d259190612abd565b8a8a6001818110610d3957610d38612a8e565b5b9050602002016020810190610d4e9190612abd565b611707565b84600081518110610d6757610d66612a8e565b5b60200260200101516040518363ffffffff1660e01b8152600401610d8c929190612be8565b6020604051808303816000875af1158015610dab573d6000803e3d6000fd5b505050506040513d601f19601f82011682018060405250810190610dcf9190612c49565b610ddc57610ddb6123e1565b5b610e2882878780806020026020016040519081016040528093929190818152602001838360200280828437600081840152601f19601f82011690508083019250505050505050866118b2565b5095945050505050565b7f000000000000000000000000000000000000000000000000000000000000000081565b6000808242811015610e9d576040517f08c379a0000000000000000000000000000000000000000000000000000000008152600401610e94906129f0565b60405180910390fd5b610ea98a8a8a88611b05565b809350819450505086831015610ef4576040517f08c379a0000000000000000000000000000000000000000000000000000000008152600401610eeb90612cc2565b60405180910390fd5b85821015610f37576040517f08c379a0000000000000000000000000000000000000000000000000000000008152600401610f2e90612d2e565b60405180910390fd5b5097509795505050505050565b7f000000000000000000000000000000000000000000000000000000000000000081565b60008060008342811015610fb1576040517f08c379a0000000000000000000000000000000000000000000000000000000008152600401610fa8906129f0565b60405180910390fd5b610fbf8c8c8c8c8c8c611c97565b80945081955050506000610ff47f00000000000000000000000000000000000000000000000000000000000000008e8e611707565b90506110028d338388611779565b61100e8c338387611779565b8073ffffffffffffffffffffffffffffffffffffffff16636a627842886040518263ffffffff1660e01b815260040161104791906127e9565b6020604051808303816000875af1158015611066573d6000803e3d6000fd5b505050506040513d601f19601f8201168201806040525081019061108a9190612d63565b92505050985098509895505050505050565b600080600083428110156110e5576040517f08c379a00000000000000000000000000000000000000000000000000000000081526004016110dc906129f0565b60405180910390fd5b6111138a7f00000000000000000000000000000000000000000000000000000000000000008b348c8c611c97565b809450819550505060006111687f00000000000000000000000000000000000000000000000000000000000000008c7f0000000000000000000000000000000000000000000000000000000000000000611707565b90506111768b338388611779565b7f000000000000000000000000000000000000000000000000000000000000000073ffffffffffffffffffffffffffffffffffffffff1663d0e30db0856040518263ffffffff1660e01b81526004016000604051808303818588803b1580156111de57600080fd5b505af11580156111f2573d6000803e3d6000fd5b50505050507f000000000000000000000000000000000000000000000000000000000000000073ffffffffffffffffffffffffffffffffffffffff1663a9059cbb82866040518363ffffffff1660e01b8152600401611252929190612be8565b6020604051808303816000875af1158015611271573d6000803e3d6000fd5b505050506040513d601f19601f820116820180604052508101906112959190612c49565b6112a2576112a16123e1565b5b8073ffffffffffffffffffffffffffffffffffffffff16636a627842886040518263ffffffff1660e01b81526004016112db91906127e9565b6020604051808303816000875af11580156112fa573d6000803e3d6000fd5b505050506040513d601f19601f8201168201806040525081019061131e9190612d63565b92508334111561133e5761133d3385346113389190612a5a565b611482565b5b505096509650969350505050565b6000808473ffffffffffffffffffffffffffffffffffffffff1663a9059cbb858560405160240161137e929190612be8565b6040516020818303038152906040529060e01b6020820180517bffffffffffffffffffffffffffffffffffffffffffffffffffffffff83818316178352505050506040516113cc9190612e01565b6000604051808303816000865af19150503d8060008114611409576040519150601f19603f3d011682016040523d82523d6000602084013e61140e565b606091505b509150915081801561143c575060008151148061143b57508080602001905181019061143a9190612c49565b5b5b61147b576040517f08c379a000000000000000000000000000000000000000000000000000000000815260040161147290612e8a565b60405180910390fd5b5050505050565b60008273ffffffffffffffffffffffffffffffffffffffff1682600067ffffffffffffffff8111156114b7576114b6612eaa565b5b6040519080825280601f01601f1916602001820160405280156114e95781602001600182028036833780820191505090505b506040516114f79190612e01565b60006040518083038185875af1925050503d8060008114611534576040519150601f19603f3d011682016040523d82523d6000602084013e611539565b606091505b505090508061157d576040517f08c379a000000000000000000000000000000000000000000000000000000000815260040161157490612f4b565b60405180910390fd5b505050565b60606002825110156115c9576040517f08c379a00000000000000000000000000000000000000000000000000000000081526004016115c090612fb7565b60405180910390fd5b815167ffffffffffffffff8111156115e4576115e3612eaa565b5b6040519080825280602002602001820160405280156116125781602001602082028036833780820191505090505b509050828160008151811061162a57611629612a8e565b5b60200260200101818152505060005b600183516116479190612a5a565b8110156116ff5760008061169c8786858151811061166857611667612a8e565b5b60200260200101518760018761167e9190612fd7565b8151811061168f5761168e612a8e565b5b6020026020010151611f2c565b915091506116c58484815181106116b6576116b5612a8e565b5b6020026020010151838361202f565b846001856116d39190612fd7565b815181106116e4576116e3612a8e565b5b60200260200101818152505050508080600101915050611639565b509392505050565b60008060006117168585612135565b9150915085828260405160200161172e929190613053565b6040516020818303038152906040528051906020012060405160200161175592919061314d565b6040516020818303038152906040528051906020012060001c925050509392505050565b6000808573ffffffffffffffffffffffffffffffffffffffff166323b872dd8686866040516024016117ad9392919061318f565b6040516020818303038152906040529060e01b6020820180517bffffffffffffffffffffffffffffffffffffffffffffffffffffffff83818316178352505050506040516117fb9190612e01565b6000604051808303816000865af19150503d8060008114611838576040519150601f19603f3d011682016040523d82523d6000602084013e61183d565b606091505b509150915081801561186b575060008151148061186a5750808060200190518101906118699190612c49565b5b5b6118aa576040517f08c379a00000000000000000000000000000000000000000000000000000000081526004016118a190613238565b60405180910390fd5b505050505050565b60005b600183516118c39190612a5a565b811015611aff576000808483815181106118e0576118df612a8e565b5b6020026020010151856001856118f69190612fd7565b8151811061190757611906612a8e565b5b602002602001015191509150600061191f8383612135565b5090506000876001866119329190612fd7565b8151811061194357611942612a8e565b5b602002602001015190506000808373ffffffffffffffffffffffffffffffffffffffff168673ffffffffffffffffffffffffffffffffffffffff161461198b5782600061198f565b6000835b91509150600060028a516119a39190612a5a565b88106119af5788611a01565b611a007f0000000000000000000000000000000000000000000000000000000000000000878c60028c6119e29190612fd7565b815181106119f3576119f2612a8e565b5b6020026020010151611707565b5b9050611a2e7f00000000000000000000000000000000000000000000000000000000000000008888611707565b73ffffffffffffffffffffffffffffffffffffffff1663022c0d9f848484600067ffffffffffffffff811115611a6757611a66612eaa565b5b6040519080825280601f01601f191660200182016040528015611a995781602001600182028036833780820191505090505b506040518563ffffffff1660e01b8152600401611ab994939291906132b3565b600060405180830381600087803b158015611ad357600080fd5b505af1158015611ae7573d6000803e3d6000fd5b505050505050505050505080806001019150506118b5565b50505050565b6000806000611b357f00000000000000000000000000000000000000000000000000000000000000008888611707565b90508073ffffffffffffffffffffffffffffffffffffffff166323b872dd3383886040518463ffffffff1660e01b8152600401611b749392919061318f565b6020604051808303816000875af1158015611b93573d6000803e3d6000fd5b505050506040513d601f19601f82011682018060405250810190611bb79190612c49565b506000808273ffffffffffffffffffffffffffffffffffffffff166389afcb44876040518263ffffffff1660e01b8152600401611bf491906127e9565b60408051808303816000875af1158015611c12573d6000803e3d6000fd5b505050506040513d601f19601f82011682018060405250810190611c3691906132ff565b915091506000611c468a8a612135565b5090508073ffffffffffffffffffffffffffffffffffffffff168a73ffffffffffffffffffffffffffffffffffffffff1614611c83578183611c86565b82825b955095505050505094509492505050565b600080600073ffffffffffffffffffffffffffffffffffffffff167f000000000000000000000000000000000000000000000000000000000000000073ffffffffffffffffffffffffffffffffffffffff1663e6a439058a8a6040518363ffffffff1660e01b8152600401611d0d92919061333f565b602060405180830381865afa158015611d2a573d6000803e3d6000fd5b505050506040513d601f19601f82011682018060405250810190611d4e919061337d565b73ffffffffffffffffffffffffffffffffffffffff1603611e09577f000000000000000000000000000000000000000000000000000000000000000073ffffffffffffffffffffffffffffffffffffffff1663c9c6539689896040518363ffffffff1660e01b8152600401611dc492919061333f565b6020604051808303816000875af1158015611de3573d6000803e3d6000fd5b505050506040513d601f19601f82011682018060405250810190611e07919061337d565b505b600080611e377f00000000000000000000000000000000000000000000000000000000000000008b8b611f2c565b91509150600082148015611e4b5750600081145b15611e5d578787935093505050611f21565b6000611e6a898484612261565b9050878111611ec45785811015611eb6576040517f08c379a0000000000000000000000000000000000000000000000000000000008152600401611ead90612d2e565b60405180910390fd5b888194509450505050611f21565b6000611ed1898486612261565b905087811015611f16576040517f08c379a0000000000000000000000000000000000000000000000000000000008152600401611f0d90612cc2565b60405180910390fd5b808995509550505050505b965096945050505050565b6000806000611f3b8585612135565b509050600080611f4c888888611707565b73ffffffffffffffffffffffffffffffffffffffff16630902f1ac6040518163ffffffff1660e01b8152600401606060405180830381865afa158015611f96573d6000803e3d6000fd5b505050506040513d601f19601f82011682018060405250810190611fba919061342c565b506dffffffffffffffffffffffffffff1691506dffffffffffffffffffffffffffff1691508273ffffffffffffffffffffffffffffffffffffffff168773ffffffffffffffffffffffffffffffffffffffff161461201957808261201c565b81815b8095508196505050505050935093915050565b6000808411612073576040517f08c379a000000000000000000000000000000000000000000000000000000000815260040161206a906134f1565b60405180910390fd5b6000831180156120835750600082115b6120c2576040517f08c379a00000000000000000000000000000000000000000000000000000000081526004016120b990613583565b60405180910390fd5b60006120d96103e58661231b90919063ffffffff16565b905060006120f0848361231b90919063ffffffff16565b9050600061211b8361210d6103e88961231b90919063ffffffff16565b61238890919063ffffffff16565b9050808261212991906135d2565b93505050509392505050565b6000808273ffffffffffffffffffffffffffffffffffffffff168473ffffffffffffffffffffffffffffffffffffffff16036121a6576040517f08c379a000000000000000000000000000000000000000000000000000000000815260040161219d90613675565b60405180910390fd5b8273ffffffffffffffffffffffffffffffffffffffff168473ffffffffffffffffffffffffffffffffffffffff16106121e05782846121e3565b83835b8092508193505050600073ffffffffffffffffffffffffffffffffffffffff168273ffffffffffffffffffffffffffffffffffffffff160361225a576040517f08c379a0000000000000000000000000000000000000000000000000000000008152600401612251906136e1565b60405180910390fd5b9250929050565b60008084116122a5576040517f08c379a000000000000000000000000000000000000000000000000000000000815260040161229c90613773565b60405180910390fd5b6000831180156122b55750600082115b6122f4576040517f08c379a00000000000000000000000000000000000000000000000000000000081526004016122eb90613583565b60405180910390fd5b82612308838661231b90919063ffffffff16565b61231291906135d2565b90509392505050565b6000808214806123435750828283856123349190613793565b92508261234191906135d2565b145b612382576040517f08c379a000000000000000000000000000000000000000000000000000000000815260040161237990613821565b60405180910390fd5b92915050565b60008282846123979190612fd7565b91508110156123db576040517f08c379a00000000000000000000000000000000000000000000000000000000081526004016123d29061388d565b60405180910390fd5b92915050565b7f4e487b7100000000000000000000000000000000000000000000000000000000600052600160045260246000fd5b600080fd5b600080fd5b600073ffffffffffffffffffffffffffffffffffffffff82169050919050565b60006124458261241a565b9050919050565b6124558161243a565b811461246057600080fd5b50565b6000813590506124728161244c565b92915050565b6000819050919050565b61248b81612478565b811461249657600080fd5b50565b6000813590506124a881612482565b92915050565b60008060008060008060c087890312156124cb576124ca612410565b5b60006124d989828a01612463565b96505060206124ea89828a01612499565b95505060406124fb89828a01612499565b945050606061250c89828a01612499565b935050608061251d89828a01612463565b92505060a061252e89828a01612499565b9150509295509295509295565b61254481612478565b82525050565b600060408201905061255f600083018561253b565b61256c602083018461253b565b9392505050565b600080fd5b600080fd5b600080fd5b60008083601f84011261259857612597612573565b5b8235905067ffffffffffffffff8111156125b5576125b4612578565b5b6020830191508360208202830111156125d1576125d061257d565b5b9250929050565b60008060008060008060a087890312156125f5576125f4612410565b5b600061260389828a01612499565b965050602061261489828a01612499565b955050604087013567ffffffffffffffff81111561263557612634612415565b5b61264189828a01612582565b9450945050606061265489828a01612463565b925050608061266589828a01612499565b9150509295509295509295565b600081519050919050565b600082825260208201905092915050565b6000819050602082019050919050565b6126a781612478565b82525050565b60006126b9838361269e565b60208301905092915050565b6000602082019050919050565b60006126dd82612672565b6126e7818561267d565b93506126f28361268e565b8060005b8381101561272357815161270a88826126ad565b9750612715836126c5565b9250506001810190506126f6565b5085935050505092915050565b6000602082019050818103600083015261274a81846126d2565b905092915050565b60008060008060006080868803121561276e5761276d612410565b5b600061277c88828901612499565b955050602086013567ffffffffffffffff81111561279d5761279c612415565b5b6127a988828901612582565b945094505060406127bc88828901612463565b92505060606127cd88828901612499565b9150509295509295909350565b6127e38161243a565b82525050565b60006020820190506127fe60008301846127da565b92915050565b600080600080600080600060e0888a03121561282357612822612410565b5b60006128318a828b01612463565b97505060206128428a828b01612463565b96505060406128538a828b01612499565b95505060606128648a828b01612499565b94505060806128758a828b01612499565b93505060a06128868a828b01612463565b92505060c06128978a828b01612499565b91505092959891949750929550565b600080600080600080600080610100898b0312156128c7576128c6612410565b5b60006128d58b828c01612463565b98505060206128e68b828c01612463565b97505060406128f78b828c01612499565b96505060606129088b828c01612499565b95505060806129198b828c01612499565b94505060a061292a8b828c01612499565b93505060c061293b8b828c01612463565b92505060e061294c8b828c01612499565b9150509295985092959890939650565b6000606082019050612971600083018661253b565b61297e602083018561253b565b61298b604083018461253b565b949350505050565b600082825260208201905092915050565b7f5368756e61496e753a2045585049524544000000000000000000000000000000600082015250565b60006129da601183612993565b91506129e5826129a4565b602082019050919050565b60006020820190508181036000830152612a09816129cd565b9050919050565b6000602082019050612a25600083018461253b565b92915050565b7f4e487b7100000000000000000000000000000000000000000000000000000000600052601160045260246000fd5b6000612a6582612478565b9150612a7083612478565b9250828203905081811115612a8857612a87612a2b565b5b92915050565b7f4e487b7100000000000000000000000000000000000000000000000000000000600052603260045260246000fd5b600060208284031215612ad357612ad2612410565b5b6000612ae184828501612463565b91505092915050565b7f5368756e61496e753a20494e56414c49445f5041544800000000000000000000600082015250565b6000612b20601683612993565b9150612b2b82612aea565b602082019050919050565b60006020820190508181036000830152612b4f81612b13565b9050919050565b7f5368756e61496e753a20494e53554646494349454e545f4f55545055545f414d60008201527f4f554e5400000000000000000000000000000000000000000000000000000000602082015250565b6000612bb2602483612993565b9150612bbd82612b56565b604082019050919050565b60006020820190508181036000830152612be181612ba5565b9050919050565b6000604082019050612bfd60008301856127da565b612c0a602083018461253b565b9392505050565b60008115159050919050565b612c2681612c11565b8114612c3157600080fd5b50565b600081519050612c4381612c1d565b92915050565b600060208284031215612c5f57612c5e612410565b5b6000612c6d84828501612c34565b91505092915050565b7f5368756e61496e753a20494e53554646494349454e545f415f414d4f554e5400600082015250565b6000612cac601f83612993565b9150612cb782612c76565b602082019050919050565b60006020820190508181036000830152612cdb81612c9f565b9050919050565b7f5368756e61496e753a20494e53554646494349454e545f425f414d4f554e5400600082015250565b6000612d18601f83612993565b9150612d2382612ce2565b602082019050919050565b60006020820190508181036000830152612d4781612d0b565b9050919050565b600081519050612d5d81612482565b92915050565b600060208284031215612d7957612d78612410565b5b6000612d8784828501612d4e565b91505092915050565b600081519050919050565b600081905092915050565b60005b83811015612dc4578082015181840152602081019050612da9565b60008484015250505050565b6000612ddb82612d90565b612de58185612d9b565b9350612df5818560208601612da6565b80840191505092915050565b6000612e0d8284612dd0565b915081905092915050565b7f5472616e7366657248656c7065723a3a736166655472616e736665723a20747260008201527f616e73666572206661696c656400000000000000000000000000000000000000602082015250565b6000612e74602d83612993565b9150612e7f82612e18565b604082019050919050565b60006020820190508181036000830152612ea381612e67565b9050919050565b7f4e487b7100000000000000000000000000000000000000000000000000000000600052604160045260246000fd5b7f5472616e7366657248656c7065723a3a736166655472616e736665724554483a60008201527f20455448207472616e73666572206661696c6564000000000000000000000000602082015250565b6000612f35603483612993565b9150612f4082612ed9565b604082019050919050565b60006020820190508181036000830152612f6481612f28565b9050919050565b7f5368756e61496e754c6962726172793a20494e56414c49445f50415448000000600082015250565b6000612fa1601d83612993565b9150612fac82612f6b565b602082019050919050565b60006020820190508181036000830152612fd081612f94565b9050919050565b6000612fe282612478565b9150612fed83612478565b925082820190508082111561300557613004612a2b565b5b92915050565b60008160601b9050919050565b60006130238261300b565b9050919050565b600061303582613018565b9050919050565b61304d6130488261243a565b61302a565b82525050565b600061305f828561303c565b60148201915061306f828461303c565b6014820191508190509392505050565b600081905092915050565b7fff00000000000000000000000000000000000000000000000000000000000000600082015250565b60006130c060018361307f565b91506130cb8261308a565b600182019050919050565b6000819050919050565b6000819050919050565b6130fb6130f6826130d6565b6130e0565b82525050565b7f0b182e4a40c383844a54ca5b5d94a7c13bdec677db6b0134a8cc38a7763088bf600082015250565b600061313760208361307f565b915061314282613101565b602082019050919050565b6000613158826130b3565b9150613164828561303c565b60148201915061317482846130ea565b6020820191506131838261312a565b91508190509392505050565b60006060820190506131a460008301866127da565b6131b160208301856127da565b6131be604083018461253b565b949350505050565b7f5472616e7366657248656c7065723a3a7472616e7366657246726f6d3a20747260008201527f616e7366657246726f6d206661696c6564000000000000000000000000000000602082015250565b6000613222603183612993565b915061322d826131c6565b604082019050919050565b6000602082019050818103600083015261325181613215565b9050919050565b600082825260208201905092915050565b6000601f19601f8301169050919050565b600061328582612d90565b61328f8185613258565b935061329f818560208601612da6565b6132a881613269565b840191505092915050565b60006080820190506132c8600083018761253b565b6132d5602083018661253b565b6132e260408301856127da565b81810360608301526132f4818461327a565b905095945050505050565b6000806040838503121561331657613315612410565b5b600061332485828601612d4e565b925050602061333585828601612d4e565b9150509250929050565b600060408201905061335460008301856127da565b61336160208301846127da565b9392505050565b6000815190506133778161244c565b92915050565b60006020828403121561339357613392612410565b5b60006133a184828501613368565b91505092915050565b60006dffffffffffffffffffffffffffff82169050919050565b6133cd816133aa565b81146133d857600080fd5b50565b6000815190506133ea816133c4565b92915050565b600063ffffffff82169050919050565b613409816133f0565b811461341457600080fd5b50565b60008151905061342681613400565b92915050565b60008060006060848603121561344557613444612410565b5b6000613453868287016133db565b9350506020613464868287016133db565b925050604061347586828701613417565b9150509250925092565b7f5368756e61496e754c6962726172793a20494e53554646494349454e545f494e60008201527f5055545f414d4f554e5400000000000000000000000000000000000000000000602082015250565b60006134db602a83612993565b91506134e68261347f565b604082019050919050565b6000602082019050818103600083015261350a816134ce565b9050919050565b7f5368756e61496e754c6962726172793a20494e53554646494349454e545f4c4960008201527f5155494449545900000000000000000000000000000000000000000000000000602082015250565b600061356d602783612993565b915061357882613511565b604082019050919050565b6000602082019050818103600083015261359c81613560565b9050919050565b7f4e487b7100000000000000000000000000000000000000000000000000000000600052601260045260246000fd5b60006135dd82612478565b91506135e883612478565b9250826135f8576135f76135a3565b5b828204905092915050565b7f5368756e61496e754c6962726172793a204944454e544943414c5f414444524560008201527f5353455300000000000000000000000000000000000000000000000000000000602082015250565b600061365f602483612993565b915061366a82613603565b604082019050919050565b6000602082019050818103600083015261368e81613652565b9050919050565b7f5368756e61496e754c6962726172793a205a45524f5f41444452455353000000600082015250565b60006136cb601d83612993565b91506136d682613695565b602082019050919050565b600060208201905081810360008301526136fa816136be565b9050919050565b7f5368756e61496e754c6962726172793a20494e53554646494349454e545f414d60008201527f4f554e5400000000000000000000000000000000000000000000000000000000602082015250565b600061375d602483612993565b915061376882613701565b604082019050919050565b6000602082019050818103600083015261378c81613750565b9050919050565b600061379e82612478565b91506137a983612478565b92508282026137b781612478565b915082820484148315176137ce576137cd612a2b565b5b5092915050565b7f64732d6d6174682d6d756c2d6f766572666c6f77000000000000000000000000600082015250565b600061380b601483612993565b9150613816826137d5565b602082019050919050565b6000602082019050818103600083015261383a816137fe565b9050919050565b7f64732d6d6174682d6164642d6f766572666c6f77000000000000000000000000600082015250565b6000613877601483612993565b915061388282613841565b602082019050919050565b600060208201905081810360008301526138a68161386a565b905091905056fea26469706673582212208162d5c15b8a190b528ca8de53cf94ac568cf880fae659bf5452e78338af194264736f6c634300081b0033","opcodes":"PUSH1 0xC0 PUSH1 0x40 MSTORE CALLVALUE DUP1 ISZERO PUSH2 0x10 JUMPI PUSH1 0x0 DUP1 REVERT JUMPDEST POP PUSH1 0x40 MLOAD PUSH2 0x3B01 CODESIZE SUB DUP1 PUSH2 0x3B01 DUP4 CODECOPY DUP2 DUP2 ADD PUSH1 0x40 MSTORE DUP2 ADD SWAP1 PUSH2 0x32 SWAP2 SWAP1 PUSH2 0x104 JUMP JUMPDEST DUP2 PUSH20 0xFFFFFFFFFFFFFFFFFFFFFFFFFFFFFFFFFFFFFFFF AND PUSH1 0x80 DUP2 PUSH20 0xFFFFFFFFFFFFFFFFFFFFFFFFFFFFFFFFFFFFFFFF AND DUP2 MSTORE POP POP DUP1 PUSH20 0xFFFFFFFFFFFFFFFFFFFFFFFFFFFFFFFFFFFFFFFF AND PUSH1 0xA0 DUP2 PUSH20 0xFFFFFFFFFFFFFFFFFFFFFFFFFFFFFFFFFFFFFFFF AND DUP2 MSTORE POP POP POP POP PUSH2 0x144 JUMP JUMPDEST PUSH1 0x0 DUP1 REVERT JUMPDEST PUSH1 0x0 PUSH20 0xFFFFFFFFFFFFFFFFFFFFFFFFFFFFFFFFFFFFFFFF DUP3 AND SWAP1 POP SWAP2 SWAP1 POP JUMP JUMPDEST PUSH1 0x0 PUSH2 0xD1 DUP3 PUSH2 0xA6 JUMP JUMPDEST SWAP1 POP SWAP2 SWAP1 POP JUMP JUMPDEST PUSH2 0xE1 DUP2 PUSH2 0xC6 JUMP JUMPDEST DUP2 EQ PUSH2 0xEC JUMPI PUSH1 0x0 DUP1 REVERT JUMPDEST POP JUMP JUMPDEST PUSH1 0x0 DUP2 MLOAD SWAP1 POP PUSH2 0xFE DUP2 PUSH2 0xD8 JUMP JUMPDEST SWAP3 SWAP2 POP POP JUMP JUMPDEST PUSH1 0x0 DUP1 PUSH1 0x40 DUP4 DUP6 SUB SLT ISZERO PUSH2 0x11B JUMPI PUSH2 0x11A PUSH2 0xA1 JUMP JUMPDEST JUMPDEST PUSH1 0x0 PUSH2 0x129 DUP6 DUP3 DUP7 ADD PUSH2 0xEF JUMP JUMPDEST SWAP3 POP POP PUSH1 0x20 PUSH2 0x13A DUP6 DUP3 DUP7 ADD PUSH2 0xEF JUMP JUMPDEST SWAP2 POP POP SWAP3 POP SWAP3 SWAP1 POP JUMP JUMPDEST PUSH1 0x80 MLOAD PUSH1 0xA0 MLOAD PUSH2 0x38E3 PUSH2 0x21E PUSH1 0x0 CODECOPY PUSH1 0x0 DUP2 DUP2 PUSH1 0x91 ADD MSTORE DUP2 DUP2 PUSH2 0x32C ADD MSTORE DUP2 DUP2 PUSH2 0x36A ADD MSTORE DUP2 DUP2 PUSH2 0x451 ADD MSTORE DUP2 DUP2 PUSH2 0x702 ADD MSTORE DUP2 DUP2 PUSH2 0xA74 ADD MSTORE DUP2 DUP2 PUSH2 0xC02 ADD MSTORE DUP2 DUP2 PUSH2 0xC9E ADD MSTORE DUP2 DUP2 PUSH2 0xE34 ADD MSTORE DUP2 DUP2 PUSH2 0x10EB ADD MSTORE DUP2 DUP2 PUSH2 0x1144 ADD MSTORE DUP2 DUP2 PUSH2 0x1178 ADD MSTORE PUSH2 0x11F9 ADD MSTORE PUSH1 0x0 DUP2 DUP2 PUSH2 0x518 ADD MSTORE DUP2 DUP2 PUSH2 0x61D ADD MSTORE DUP2 DUP2 PUSH2 0x839 ADD MSTORE DUP2 DUP2 PUSH2 0x93E ADD MSTORE DUP2 DUP2 PUSH2 0xB2D ADD MSTORE DUP2 DUP2 PUSH2 0xCDD ADD MSTORE DUP2 DUP2 PUSH2 0xF46 ADD MSTORE DUP2 DUP2 PUSH2 0xFCE ADD MSTORE DUP2 DUP2 PUSH2 0x1122 ADD MSTORE DUP2 DUP2 PUSH2 0x19B4 ADD MSTORE DUP2 DUP2 PUSH2 0x1A08 ADD MSTORE DUP2 DUP2 PUSH2 0x1B0F ADD MSTORE DUP2 DUP2 PUSH2 0x1CB4 ADD MSTORE DUP2 DUP2 PUSH2 0x1D6B ADD MSTORE PUSH2 0x1E11 ADD MSTORE PUSH2 0x38E3 PUSH1 0x0 RETURN INVALID PUSH1 0x80 PUSH1 0x40 MSTORE PUSH1 0x4 CALLDATASIZE LT PUSH2 0x8A JUMPI PUSH1 0x0 CALLDATALOAD PUSH1 0xE0 SHR DUP1 PUSH4 0xAD5C4648 GT PUSH2 0x59 JUMPI DUP1 PUSH4 0xAD5C4648 EQ PUSH2 0x1DA JUMPI DUP1 PUSH4 0xBAA2ABDE EQ PUSH2 0x205 JUMPI DUP1 PUSH4 0xC45A0155 EQ PUSH2 0x243 JUMPI DUP1 PUSH4 0xE8E33700 EQ PUSH2 0x26E JUMPI DUP1 PUSH4 0xF305D719 EQ PUSH2 0x2AD JUMPI PUSH2 0xED JUMP JUMPDEST DUP1 PUSH4 0x2751CEC EQ PUSH2 0xF2 JUMPI DUP1 PUSH4 0x18CBAFE5 EQ PUSH2 0x130 JUMPI DUP1 PUSH4 0x38ED1739 EQ PUSH2 0x16D JUMPI DUP1 PUSH4 0x7FF36AB5 EQ PUSH2 0x1AA JUMPI PUSH2 0xED JUMP JUMPDEST CALLDATASIZE PUSH2 0xED JUMPI PUSH32 0x0 PUSH20 0xFFFFFFFFFFFFFFFFFFFFFFFFFFFFFFFFFFFFFFFF AND CALLER PUSH20 0xFFFFFFFFFFFFFFFFFFFFFFFFFFFFFFFFFFFFFFFF AND EQ PUSH2 0xEB JUMPI PUSH2 0xEA PUSH2 0x23E1 JUMP JUMPDEST JUMPDEST STOP JUMPDEST PUSH1 0x0 DUP1 REVERT JUMPDEST CALLVALUE DUP1 ISZERO PUSH2 0xFE JUMPI PUSH1 0x0 DUP1 REVERT JUMPDEST POP PUSH2 0x119 PUSH1 0x4 DUP1 CALLDATASIZE SUB DUP2 ADD SWAP1 PUSH2 0x114 SWAP2 SWAP1 PUSH2 0x24AE JUMP JUMPDEST PUSH2 0x2DF JUMP JUMPDEST PUSH1 0x40 MLOAD PUSH2 0x127 SWAP3 SWAP2 SWAP1 PUSH2 0x254A JUMP JUMPDEST PUSH1 0x40 MLOAD DUP1 SWAP2 SUB SWAP1 RETURN JUMPDEST CALLVALUE DUP1 ISZERO PUSH2 0x13C JUMPI PUSH1 0x0 DUP1 REVERT JUMPDEST POP PUSH2 0x157 PUSH1 0x4 DUP1 CALLDATASIZE SUB DUP2 ADD SWAP1 PUSH2 0x152 SWAP2 SWAP1 PUSH2 0x25D8 JUMP JUMPDEST PUSH2 0x409 JUMP JUMPDEST PUSH1 0x40 MLOAD PUSH2 0x164 SWAP2 SWAP1 PUSH2 0x2730 JUMP JUMPDEST PUSH1 0x40 MLOAD DUP1 SWAP2 SUB SWAP1 RETURN JUMPDEST CALLVALUE DUP1 ISZERO PUSH2 0x179 JUMPI PUSH1 0x0 DUP1 REVERT JUMPDEST POP PUSH2 0x194 PUSH1 0x4 DUP1 CALLDATASIZE SUB DUP2 ADD SWAP1 PUSH2 0x18F SWAP2 SWAP1 PUSH2 0x25D8 JUMP JUMPDEST PUSH2 0x7EE JUMP JUMPDEST PUSH1 0x40 MLOAD PUSH2 0x1A1 SWAP2 SWAP1 PUSH2 0x2730 JUMP JUMPDEST PUSH1 0x40 MLOAD DUP1 SWAP2 SUB SWAP1 RETURN JUMPDEST PUSH2 0x1C4 PUSH1 0x4 DUP1 CALLDATASIZE SUB DUP2 ADD SWAP1 PUSH2 0x1BF SWAP2 SWAP1 PUSH2 0x2752 JUMP JUMPDEST PUSH2 0xA2C JUMP JUMPDEST PUSH1 0x40 MLOAD PUSH2 0x1D1 SWAP2 SWAP1 PUSH2 0x2730 JUMP JUMPDEST PUSH1 0x40 MLOAD DUP1 SWAP2 SUB SWAP1 RETURN JUMPDEST CALLVALUE DUP1 ISZERO PUSH2 0x1E6 JUMPI PUSH1 0x0 DUP1 REVERT JUMPDEST POP PUSH2 0x1EF PUSH2 0xE32 JUMP JUMPDEST PUSH1 0x40 MLOAD PUSH2 0x1FC SWAP2 SWAP1 PUSH2 0x27E9 JUMP JUMPDEST PUSH1 0x40 MLOAD DUP1 SWAP2 SUB SWAP1 RETURN JUMPDEST CALLVALUE DUP1 ISZERO PUSH2 0x211 JUMPI PUSH1 0x0 DUP1 REVERT JUMPDEST POP PUSH2 0x22C PUSH1 0x4 DUP1 CALLDATASIZE SUB DUP2 ADD SWAP1 PUSH2 0x227 SWAP2 SWAP1 PUSH2 0x2804 JUMP JUMPDEST PUSH2 0xE56 JUMP JUMPDEST PUSH1 0x40 MLOAD PUSH2 0x23A SWAP3 SWAP2 SWAP1 PUSH2 0x254A JUMP JUMPDEST PUSH1 0x40 MLOAD DUP1 SWAP2 SUB SWAP1 RETURN JUMPDEST CALLVALUE DUP1 ISZERO PUSH2 0x24F JUMPI PUSH1 0x0 DUP1 REVERT JUMPDEST POP PUSH2 0x258 PUSH2 0xF44 JUMP JUMPDEST PUSH1 0x40 MLOAD PUSH2 0x265 SWAP2 SWAP1 PUSH2 0x27E9 JUMP JUMPDEST PUSH1 0x40 MLOAD DUP1 SWAP2 SUB SWAP1 RETURN JUMPDEST CALLVALUE DUP1 ISZERO PUSH2 0x27A JUMPI PUSH1 0x0 DUP1 REVERT JUMPDEST POP PUSH2 0x295 PUSH1 0x4 DUP1 CALLDATASIZE SUB DUP2 ADD SWAP1 PUSH2 0x290 SWAP2 SWAP1 PUSH2 0x28A6 JUMP JUMPDEST PUSH2 0xF68 JUMP JUMPDEST PUSH1 0x40 MLOAD PUSH2 0x2A4 SWAP4 SWAP3 SWAP2 SWAP1 PUSH2 0x295C JUMP JUMPDEST PUSH1 0x40 MLOAD DUP1 SWAP2 SUB SWAP1 RETURN JUMPDEST PUSH2 0x2C7 PUSH1 0x4 DUP1 CALLDATASIZE SUB DUP2 ADD SWAP1 PUSH2 0x2C2 SWAP2 SWAP1 PUSH2 0x24AE JUMP JUMPDEST PUSH2 0x109C JUMP JUMPDEST PUSH1 0x40 MLOAD PUSH2 0x2D6 SWAP4 SWAP3 SWAP2 SWAP1 PUSH2 0x295C JUMP JUMPDEST PUSH1 0x40 MLOAD DUP1 SWAP2 SUB SWAP1 RETURN JUMPDEST PUSH1 0x0 DUP1 DUP3 TIMESTAMP DUP2 LT ISZERO PUSH2 0x326 JUMPI PUSH1 0x40 MLOAD PUSH32 0x8C379A000000000000000000000000000000000000000000000000000000000 DUP2 MSTORE PUSH1 0x4 ADD PUSH2 0x31D SWAP1 PUSH2 0x29F0 JUMP JUMPDEST PUSH1 0x40 MLOAD DUP1 SWAP2 SUB SWAP1 REVERT JUMPDEST PUSH2 0x355 DUP10 PUSH32 0x0 DUP11 DUP11 DUP11 ADDRESS DUP11 PUSH2 0xE56 JUMP JUMPDEST DUP1 SWAP4 POP DUP2 SWAP5 POP POP POP PUSH2 0x368 DUP10 DUP7 DUP6 PUSH2 0x134C JUMP JUMPDEST PUSH32 0x0 PUSH20 0xFFFFFFFFFFFFFFFFFFFFFFFFFFFFFFFFFFFFFFFF AND PUSH4 0x2E1A7D4D DUP4 PUSH1 0x40 MLOAD DUP3 PUSH4 0xFFFFFFFF AND PUSH1 0xE0 SHL DUP2 MSTORE PUSH1 0x4 ADD PUSH2 0x3C1 SWAP2 SWAP1 PUSH2 0x2A10 JUMP JUMPDEST PUSH1 0x0 PUSH1 0x40 MLOAD DUP1 DUP4 SUB DUP2 PUSH1 0x0 DUP8 DUP1 EXTCODESIZE ISZERO DUP1 ISZERO PUSH2 0x3DB JUMPI PUSH1 0x0 DUP1 REVERT JUMPDEST POP GAS CALL ISZERO DUP1 ISZERO PUSH2 0x3EF JUMPI RETURNDATASIZE PUSH1 0x0 DUP1 RETURNDATACOPY RETURNDATASIZE PUSH1 0x0 REVERT JUMPDEST POP POP POP POP PUSH2 0x3FD DUP6 DUP4 PUSH2 0x1482 JUMP JUMPDEST POP SWAP7 POP SWAP7 SWAP5 POP POP POP POP POP JUMP JUMPDEST PUSH1 0x60 DUP2 TIMESTAMP DUP2 LT ISZERO PUSH2 0x44F JUMPI PUSH1 0x40 MLOAD PUSH32 0x8C379A000000000000000000000000000000000000000000000000000000000 DUP2 MSTORE PUSH1 0x4 ADD PUSH2 0x446 SWAP1 PUSH2 0x29F0 JUMP JUMPDEST PUSH1 0x40 MLOAD DUP1 SWAP2 SUB SWAP1 REVERT JUMPDEST PUSH32 0x0 PUSH20 0xFFFFFFFFFFFFFFFFFFFFFFFFFFFFFFFFFFFFFFFF AND DUP7 DUP7 PUSH1 0x1 DUP10 DUP10 SWAP1 POP PUSH2 0x498 SWAP2 SWAP1 PUSH2 0x2A5A JUMP JUMPDEST DUP2 DUP2 LT PUSH2 0x4A8 JUMPI PUSH2 0x4A7 PUSH2 0x2A8E JUMP JUMPDEST JUMPDEST SWAP1 POP PUSH1 0x20 MUL ADD PUSH1 0x20 DUP2 ADD SWAP1 PUSH2 0x4BD SWAP2 SWAP1 PUSH2 0x2ABD JUMP JUMPDEST PUSH20 0xFFFFFFFFFFFFFFFFFFFFFFFFFFFFFFFFFFFFFFFF AND EQ PUSH2 0x513 JUMPI PUSH1 0x40 MLOAD PUSH32 0x8C379A000000000000000000000000000000000000000000000000000000000 DUP2 MSTORE PUSH1 0x4 ADD PUSH2 0x50A SWAP1 PUSH2 0x2B36 JUMP JUMPDEST PUSH1 0x40 MLOAD DUP1 SWAP2 SUB SWAP1 REVERT JUMPDEST PUSH2 0x57F PUSH32 0x0 DUP10 DUP9 DUP9 DUP1 DUP1 PUSH1 0x20 MUL PUSH1 0x20 ADD PUSH1 0x40 MLOAD SWAP1 DUP2 ADD PUSH1 0x40 MSTORE DUP1 SWAP4 SWAP3 SWAP2 SWAP1 DUP2 DUP2 MSTORE PUSH1 0x20 ADD DUP4 DUP4 PUSH1 0x20 MUL DUP1 DUP3 DUP5 CALLDATACOPY PUSH1 0x0 DUP2 DUP5 ADD MSTORE PUSH1 0x1F NOT PUSH1 0x1F DUP3 ADD AND SWAP1 POP DUP1 DUP4 ADD SWAP3 POP POP POP POP POP POP POP PUSH2 0x1582 JUMP JUMPDEST SWAP2 POP DUP7 DUP3 PUSH1 0x1 DUP5 MLOAD PUSH2 0x591 SWAP2 SWAP1 PUSH2 0x2A5A JUMP JUMPDEST DUP2 MLOAD DUP2 LT PUSH2 0x5A2 JUMPI PUSH2 0x5A1 PUSH2 0x2A8E JUMP JUMPDEST JUMPDEST PUSH1 0x20 MUL PUSH1 0x20 ADD ADD MLOAD LT ISZERO PUSH2 0x5EB JUMPI PUSH1 0x40 MLOAD PUSH32 0x8C379A000000000000000000000000000000000000000000000000000000000 DUP2 MSTORE PUSH1 0x4 ADD PUSH2 0x5E2 SWAP1 PUSH2 0x2BC8 JUMP JUMPDEST PUSH1 0x40 MLOAD DUP1 SWAP2 SUB SWAP1 REVERT JUMPDEST PUSH2 0x6B4 DUP7 DUP7 PUSH1 0x0 DUP2 DUP2 LT PUSH2 0x602 JUMPI PUSH2 0x601 PUSH2 0x2A8E JUMP JUMPDEST JUMPDEST SWAP1 POP PUSH1 0x20 MUL ADD PUSH1 0x20 DUP2 ADD SWAP1 PUSH2 0x617 SWAP2 SWAP1 PUSH2 0x2ABD JUMP JUMPDEST CALLER PUSH2 0x693 PUSH32 0x0 DUP11 DUP11 PUSH1 0x0 DUP2 DUP2 LT PUSH2 0x650 JUMPI PUSH2 0x64F PUSH2 0x2A8E JUMP JUMPDEST JUMPDEST SWAP1 POP PUSH1 0x20 MUL ADD PUSH1 0x20 DUP2 ADD SWAP1 PUSH2 0x665 SWAP2 SWAP1 PUSH2 0x2ABD JUMP JUMPDEST DUP12 DUP12 PUSH1 0x1 DUP2 DUP2 LT PUSH2 0x679 JUMPI PUSH2 0x678 PUSH2 0x2A8E JUMP JUMPDEST JUMPDEST SWAP1 POP PUSH1 0x20 MUL ADD PUSH1 0x20 DUP2 ADD SWAP1 PUSH2 0x68E SWAP2 SWAP1 PUSH2 0x2ABD JUMP JUMPDEST PUSH2 0x1707 JUMP JUMPDEST DUP6 PUSH1 0x0 DUP2 MLOAD DUP2 LT PUSH2 0x6A7 JUMPI PUSH2 0x6A6 PUSH2 0x2A8E JUMP JUMPDEST JUMPDEST PUSH1 0x20 MUL PUSH1 0x20 ADD ADD MLOAD PUSH2 0x1779 JUMP JUMPDEST PUSH2 0x700 DUP3 DUP8 DUP8 DUP1 DUP1 PUSH1 0x20 MUL PUSH1 0x20 ADD PUSH1 0x40 MLOAD SWAP1 DUP2 ADD PUSH1 0x40 MSTORE DUP1 SWAP4 SWAP3 SWAP2 SWAP1 DUP2 DUP2 MSTORE PUSH1 0x20 ADD DUP4 DUP4 PUSH1 0x20 MUL DUP1 DUP3 DUP5 CALLDATACOPY PUSH1 0x0 DUP2 DUP5 ADD MSTORE PUSH1 0x1F NOT PUSH1 0x1F DUP3 ADD AND SWAP1 POP DUP1 DUP4 ADD SWAP3 POP POP POP POP POP POP POP ADDRESS PUSH2 0x18B2 JUMP JUMPDEST PUSH32 0x0 PUSH20 0xFFFFFFFFFFFFFFFFFFFFFFFFFFFFFFFFFFFFFFFF AND PUSH4 0x2E1A7D4D DUP4 PUSH1 0x1 DUP6 MLOAD PUSH2 0x74B SWAP2 SWAP1 PUSH2 0x2A5A JUMP JUMPDEST DUP2 MLOAD DUP2 LT PUSH2 0x75C JUMPI PUSH2 0x75B PUSH2 0x2A8E JUMP JUMPDEST JUMPDEST PUSH1 0x20 MUL PUSH1 0x20 ADD ADD MLOAD PUSH1 0x40 MLOAD DUP3 PUSH4 0xFFFFFFFF AND PUSH1 0xE0 SHL DUP2 MSTORE PUSH1 0x4 ADD PUSH2 0x780 SWAP2 SWAP1 PUSH2 0x2A10 JUMP JUMPDEST PUSH1 0x0 PUSH1 0x40 MLOAD DUP1 DUP4 SUB DUP2 PUSH1 0x0 DUP8 DUP1 EXTCODESIZE ISZERO DUP1 ISZERO PUSH2 0x79A JUMPI PUSH1 0x0 DUP1 REVERT JUMPDEST POP GAS CALL ISZERO DUP1 ISZERO PUSH2 0x7AE JUMPI RETURNDATASIZE PUSH1 0x0 DUP1 RETURNDATACOPY RETURNDATASIZE PUSH1 0x0 REVERT JUMPDEST POP POP POP POP PUSH2 0x7E3 DUP5 DUP4 PUSH1 0x1 DUP6 MLOAD PUSH2 0x7C5 SWAP2 SWAP1 PUSH2 0x2A5A JUMP JUMPDEST DUP2 MLOAD DUP2 LT PUSH2 0x7D6 JUMPI PUSH2 0x7D5 PUSH2 0x2A8E JUMP JUMPDEST JUMPDEST PUSH1 0x20 MUL PUSH1 0x20 ADD ADD MLOAD PUSH2 0x1482 JUMP JUMPDEST POP SWAP7 SWAP6 POP POP POP POP POP POP JUMP JUMPDEST PUSH1 0x60 DUP2 TIMESTAMP DUP2 LT ISZERO PUSH2 0x834 JUMPI PUSH1 0x40 MLOAD PUSH32 0x8C379A000000000000000000000000000000000000000000000000000000000 DUP2 MSTORE PUSH1 0x4 ADD PUSH2 0x82B SWAP1 PUSH2 0x29F0 JUMP JUMPDEST PUSH1 0x40 MLOAD DUP1 SWAP2 SUB SWAP1 REVERT JUMPDEST PUSH2 0x8A0 PUSH32 0x0 DUP10 DUP9 DUP9 DUP1 DUP1 PUSH1 0x20 MUL PUSH1 0x20 ADD PUSH1 0x40 MLOAD SWAP1 DUP2 ADD PUSH1 0x40 MSTORE DUP1 SWAP4 SWAP3 SWAP2 SWAP1 DUP2 DUP2 MSTORE PUSH1 0x20 ADD DUP4 DUP4 PUSH1 0x20 MUL DUP1 DUP3 DUP5 CALLDATACOPY PUSH1 0x0 DUP2 DUP5 ADD MSTORE PUSH1 0x1F NOT PUSH1 0x1F DUP3 ADD AND SWAP1 POP DUP1 DUP4 ADD SWAP3 POP POP POP POP POP POP POP PUSH2 0x1582 JUMP JUMPDEST SWAP2 POP DUP7 DUP3 PUSH1 0x1 DUP5 MLOAD PUSH2 0x8B2 SWAP2 SWAP1 PUSH2 0x2A5A JUMP JUMPDEST DUP2 MLOAD DUP2 LT PUSH2 0x8C3 JUMPI PUSH2 0x8C2 PUSH2 0x2A8E JUMP JUMPDEST JUMPDEST PUSH1 0x20 MUL PUSH1 0x20 ADD ADD MLOAD LT ISZERO PUSH2 0x90C JUMPI PUSH1 0x40 MLOAD PUSH32 0x8C379A000000000000000000000000000000000000000000000000000000000 DUP2 MSTORE PUSH1 0x4 ADD PUSH2 0x903 SWAP1 PUSH2 0x2BC8 JUMP JUMPDEST PUSH1 0x40 MLOAD DUP1 SWAP2 SUB SWAP1 REVERT JUMPDEST PUSH2 0x9D5 DUP7 DUP7 PUSH1 0x0 DUP2 DUP2 LT PUSH2 0x923 JUMPI PUSH2 0x922 PUSH2 0x2A8E JUMP JUMPDEST JUMPDEST SWAP1 POP PUSH1 0x20 MUL ADD PUSH1 0x20 DUP2 ADD SWAP1 PUSH2 0x938 SWAP2 SWAP1 PUSH2 0x2ABD JUMP JUMPDEST CALLER PUSH2 0x9B4 PUSH32 0x0 DUP11 DUP11 PUSH1 0x0 DUP2 DUP2 LT PUSH2 0x971 JUMPI PUSH2 0x970 PUSH2 0x2A8E JUMP JUMPDEST JUMPDEST SWAP1 POP PUSH1 0x20 MUL ADD PUSH1 0x20 DUP2 ADD SWAP1 PUSH2 0x986 SWAP2 SWAP1 PUSH2 0x2ABD JUMP JUMPDEST DUP12 DUP12 PUSH1 0x1 DUP2 DUP2 LT PUSH2 0x99A JUMPI PUSH2 0x999 PUSH2 0x2A8E JUMP JUMPDEST JUMPDEST SWAP1 POP PUSH1 0x20 MUL ADD PUSH1 0x20 DUP2 ADD SWAP1 PUSH2 0x9AF SWAP2 SWAP1 PUSH2 0x2ABD JUMP JUMPDEST PUSH2 0x1707 JUMP JUMPDEST DUP6 PUSH1 0x0 DUP2 MLOAD DUP2 LT PUSH2 0x9C8 JUMPI PUSH2 0x9C7 PUSH2 0x2A8E JUMP JUMPDEST JUMPDEST PUSH1 0x20 MUL PUSH1 0x20 ADD ADD MLOAD PUSH2 0x1779 JUMP JUMPDEST PUSH2 0xA21 DUP3 DUP8 DUP8 DUP1 DUP1 PUSH1 0x20 MUL PUSH1 0x20 ADD PUSH1 0x40 MLOAD SWAP1 DUP2 ADD PUSH1 0x40 MSTORE DUP1 SWAP4 SWAP3 SWAP2 SWAP1 DUP2 DUP2 MSTORE PUSH1 0x20 ADD DUP4 DUP4 PUSH1 0x20 MUL DUP1 DUP3 DUP5 CALLDATACOPY PUSH1 0x0 DUP2 DUP5 ADD MSTORE PUSH1 0x1F NOT PUSH1 0x1F DUP3 ADD AND SWAP1 POP DUP1 DUP4 ADD SWAP3 POP POP POP POP POP POP POP DUP7 PUSH2 0x18B2 JUMP JUMPDEST POP SWAP7 SWAP6 POP POP POP POP POP POP JUMP JUMPDEST PUSH1 0x60 DUP2 TIMESTAMP DUP2 LT ISZERO PUSH2 0xA72 JUMPI PUSH1 0x40 MLOAD PUSH32 0x8C379A000000000000000000000000000000000000000000000000000000000 DUP2 MSTORE PUSH1 0x4 ADD PUSH2 0xA69 SWAP1 PUSH2 0x29F0 JUMP JUMPDEST PUSH1 0x40 MLOAD DUP1 SWAP2 SUB SWAP1 REVERT JUMPDEST PUSH32 0x0 PUSH20 0xFFFFFFFFFFFFFFFFFFFFFFFFFFFFFFFFFFFFFFFF AND DUP7 DUP7 PUSH1 0x0 DUP2 DUP2 LT PUSH2 0xABD JUMPI PUSH2 0xABC PUSH2 0x2A8E JUMP JUMPDEST JUMPDEST SWAP1 POP PUSH1 0x20 MUL ADD PUSH1 0x20 DUP2 ADD SWAP1 PUSH2 0xAD2 SWAP2 SWAP1 PUSH2 0x2ABD JUMP JUMPDEST PUSH20 0xFFFFFFFFFFFFFFFFFFFFFFFFFFFFFFFFFFFFFFFF AND EQ PUSH2 0xB28 JUMPI PUSH1 0x40 MLOAD PUSH32 0x8C379A000000000000000000000000000000000000000000000000000000000 DUP2 MSTORE PUSH1 0x4 ADD PUSH2 0xB1F SWAP1 PUSH2 0x2B36 JUMP JUMPDEST PUSH1 0x40 MLOAD DUP1 SWAP2 SUB SWAP1 REVERT JUMPDEST PUSH2 0xB94 PUSH32 0x0 CALLVALUE DUP9 DUP9 DUP1 DUP1 PUSH1 0x20 MUL PUSH1 0x20 ADD PUSH1 0x40 MLOAD SWAP1 DUP2 ADD PUSH1 0x40 MSTORE DUP1 SWAP4 SWAP3 SWAP2 SWAP1 DUP2 DUP2 MSTORE PUSH1 0x20 ADD DUP4 DUP4 PUSH1 0x20 MUL DUP1 DUP3 DUP5 CALLDATACOPY PUSH1 0x0 DUP2 DUP5 ADD MSTORE PUSH1 0x1F NOT PUSH1 0x1F DUP3 ADD AND SWAP1 POP DUP1 DUP4 ADD SWAP3 POP POP POP POP POP POP POP PUSH2 0x1582 JUMP JUMPDEST SWAP2 POP DUP7 DUP3 PUSH1 0x1 DUP5 MLOAD PUSH2 0xBA6 SWAP2 SWAP1 PUSH2 0x2A5A JUMP JUMPDEST DUP2 MLOAD DUP2 LT PUSH2 0xBB7 JUMPI PUSH2 0xBB6 PUSH2 0x2A8E JUMP JUMPDEST JUMPDEST PUSH1 0x20 MUL PUSH1 0x20 ADD ADD MLOAD LT ISZERO PUSH2 0xC00 JUMPI PUSH1 0x40 MLOAD PUSH32 0x8C379A000000000000000000000000000000000000000000000000000000000 DUP2 MSTORE PUSH1 0x4 ADD PUSH2 0xBF7 SWAP1 PUSH2 0x2BC8 JUMP JUMPDEST PUSH1 0x40 MLOAD DUP1 SWAP2 SUB SWAP1 REVERT JUMPDEST PUSH32 0x0 PUSH20 0xFFFFFFFFFFFFFFFFFFFFFFFFFFFFFFFFFFFFFFFF AND PUSH4 0xD0E30DB0 DUP4 PUSH1 0x0 DUP2 MLOAD DUP2 LT PUSH2 0xC50 JUMPI PUSH2 0xC4F PUSH2 0x2A8E JUMP JUMPDEST JUMPDEST PUSH1 0x20 MUL PUSH1 0x20 ADD ADD MLOAD PUSH1 0x40 MLOAD DUP3 PUSH4 0xFFFFFFFF AND PUSH1 0xE0 SHL DUP2 MSTORE PUSH1 0x4 ADD PUSH1 0x0 PUSH1 0x40 MLOAD DUP1 DUP4 SUB DUP2 DUP6 DUP9 DUP1 EXTCODESIZE ISZERO DUP1 ISZERO PUSH2 0xC83 JUMPI PUSH1 0x0 DUP1 REVERT JUMPDEST POP GAS CALL ISZERO DUP1 ISZERO PUSH2 0xC97 JUMPI RETURNDATASIZE PUSH1 0x0 DUP1 RETURNDATACOPY RETURNDATASIZE PUSH1 0x0 REVERT JUMPDEST POP POP POP POP POP PUSH32 0x0 PUSH20 0xFFFFFFFFFFFFFFFFFFFFFFFFFFFFFFFFFFFFFFFF AND PUSH4 0xA9059CBB PUSH2 0xD53 PUSH32 0x0 DUP10 DUP10 PUSH1 0x0 DUP2 DUP2 LT PUSH2 0xD10 JUMPI PUSH2 0xD0F PUSH2 0x2A8E JUMP JUMPDEST JUMPDEST SWAP1 POP PUSH1 0x20 MUL ADD PUSH1 0x20 DUP2 ADD SWAP1 PUSH2 0xD25 SWAP2 SWAP1 PUSH2 0x2ABD JUMP JUMPDEST DUP11 DUP11 PUSH1 0x1 DUP2 DUP2 LT PUSH2 0xD39 JUMPI PUSH2 0xD38 PUSH2 0x2A8E JUMP JUMPDEST JUMPDEST SWAP1 POP PUSH1 0x20 MUL ADD PUSH1 0x20 DUP2 ADD SWAP1 PUSH2 0xD4E SWAP2 SWAP1 PUSH2 0x2ABD JUMP JUMPDEST PUSH2 0x1707 JUMP JUMPDEST DUP5 PUSH1 0x0 DUP2 MLOAD DUP2 LT PUSH2 0xD67 JUMPI PUSH2 0xD66 PUSH2 0x2A8E JUMP JUMPDEST JUMPDEST PUSH1 0x20 MUL PUSH1 0x20 ADD ADD MLOAD PUSH1 0x40 MLOAD DUP4 PUSH4 0xFFFFFFFF AND PUSH1 0xE0 SHL DUP2 MSTORE PUSH1 0x4 ADD PUSH2 0xD8C SWAP3 SWAP2 SWAP1 PUSH2 0x2BE8 JUMP JUMPDEST PUSH1 0x20 PUSH1 0x40 MLOAD DUP1 DUP4 SUB DUP2 PUSH1 0x0 DUP8 GAS CALL ISZERO DUP1 ISZERO PUSH2 0xDAB JUMPI RETURNDATASIZE PUSH1 0x0 DUP1 RETURNDATACOPY RETURNDATASIZE PUSH1 0x0 REVERT JUMPDEST POP POP POP POP PUSH1 0x40 MLOAD RETURNDATASIZE PUSH1 0x1F NOT PUSH1 0x1F DUP3 ADD AND DUP3 ADD DUP1 PUSH1 0x40 MSTORE POP DUP2 ADD SWAP1 PUSH2 0xDCF SWAP2 SWAP1 PUSH2 0x2C49 JUMP JUMPDEST PUSH2 0xDDC JUMPI PUSH2 0xDDB PUSH2 0x23E1 JUMP JUMPDEST JUMPDEST PUSH2 0xE28 DUP3 DUP8 DUP8 DUP1 DUP1 PUSH1 0x20 MUL PUSH1 0x20 ADD PUSH1 0x40 MLOAD SWAP1 DUP2 ADD PUSH1 0x40 MSTORE DUP1 SWAP4 SWAP3 SWAP2 SWAP1 DUP2 DUP2 MSTORE PUSH1 0x20 ADD DUP4 DUP4 PUSH1 0x20 MUL DUP1 DUP3 DUP5 CALLDATACOPY PUSH1 0x0 DUP2 DUP5 ADD MSTORE PUSH1 0x1F NOT PUSH1 0x1F DUP3 ADD AND SWAP1 POP DUP1 DUP4 ADD SWAP3 POP POP POP POP POP POP POP DUP7 PUSH2 0x18B2 JUMP JUMPDEST POP SWAP6 SWAP5 POP POP POP POP POP JUMP JUMPDEST PUSH32 0x0 DUP2 JUMP JUMPDEST PUSH1 0x0 DUP1 DUP3 TIMESTAMP DUP2 LT ISZERO PUSH2 0xE9D JUMPI PUSH1 0x40 MLOAD PUSH32 0x8C379A000000000000000000000000000000000000000000000000000000000 DUP2 MSTORE PUSH1 0x4 ADD PUSH2 0xE94 SWAP1 PUSH2 0x29F0 JUMP JUMPDEST PUSH1 0x40 MLOAD DUP1 SWAP2 SUB SWAP1 REVERT JUMPDEST PUSH2 0xEA9 DUP11 DUP11 DUP11 DUP9 PUSH2 0x1B05 JUMP JUMPDEST DUP1 SWAP4 POP DUP2 SWAP5 POP POP POP DUP7 DUP4 LT ISZERO PUSH2 0xEF4 JUMPI PUSH1 0x40 MLOAD PUSH32 0x8C379A000000000000000000000000000000000000000000000000000000000 DUP2 MSTORE PUSH1 0x4 ADD PUSH2 0xEEB SWAP1 PUSH2 0x2CC2 JUMP JUMPDEST PUSH1 0x40 MLOAD DUP1 SWAP2 SUB SWAP1 REVERT JUMPDEST DUP6 DUP3 LT ISZERO PUSH2 0xF37 JUMPI PUSH1 0x40 MLOAD PUSH32 0x8C379A000000000000000000000000000000000000000000000000000000000 DUP2 MSTORE PUSH1 0x4 ADD PUSH2 0xF2E SWAP1 PUSH2 0x2D2E JUMP JUMPDEST PUSH1 0x40 MLOAD DUP1 SWAP2 SUB SWAP1 REVERT JUMPDEST POP SWAP8 POP SWAP8 SWAP6 POP POP POP POP POP POP JUMP JUMPDEST PUSH32 0x0 DUP2 JUMP JUMPDEST PUSH1 0x0 DUP1 PUSH1 0x0 DUP4 TIMESTAMP DUP2 LT ISZERO PUSH2 0xFB1 JUMPI PUSH1 0x40 MLOAD PUSH32 0x8C379A000000000000000000000000000000000000000000000000000000000 DUP2 MSTORE PUSH1 0x4 ADD PUSH2 0xFA8 SWAP1 PUSH2 0x29F0 JUMP JUMPDEST PUSH1 0x40 MLOAD DUP1 SWAP2 SUB SWAP1 REVERT JUMPDEST PUSH2 0xFBF DUP13 DUP13 DUP13 DUP13 DUP13 DUP13 PUSH2 0x1C97 JUMP JUMPDEST DUP1 SWAP5 POP DUP2 SWAP6 POP POP POP PUSH1 0x0 PUSH2 0xFF4 PUSH32 0x0 DUP15 DUP15 PUSH2 0x1707 JUMP JUMPDEST SWAP1 POP PUSH2 0x1002 DUP14 CALLER DUP4 DUP9 PUSH2 0x1779 JUMP JUMPDEST PUSH2 0x100E DUP13 CALLER DUP4 DUP8 PUSH2 0x1779 JUMP JUMPDEST DUP1 PUSH20 0xFFFFFFFFFFFFFFFFFFFFFFFFFFFFFFFFFFFFFFFF AND PUSH4 0x6A627842 DUP9 PUSH1 0x40 MLOAD DUP3 PUSH4 0xFFFFFFFF AND PUSH1 0xE0 SHL DUP2 MSTORE PUSH1 0x4 ADD PUSH2 0x1047 SWAP2 SWAP1 PUSH2 0x27E9 JUMP JUMPDEST PUSH1 0x20 PUSH1 0x40 MLOAD DUP1 DUP4 SUB DUP2 PUSH1 0x0 DUP8 GAS CALL ISZERO DUP1 ISZERO PUSH2 0x1066 JUMPI RETURNDATASIZE PUSH1 0x0 DUP1 RETURNDATACOPY RETURNDATASIZE PUSH1 0x0 REVERT JUMPDEST POP POP POP POP PUSH1 0x40 MLOAD RETURNDATASIZE PUSH1 0x1F NOT PUSH1 0x1F DUP3 ADD AND DUP3 ADD DUP1 PUSH1 0x40 MSTORE POP DUP2 ADD SWAP1 PUSH2 0x108A SWAP2 SWAP1 PUSH2 0x2D63 JUMP JUMPDEST SWAP3 POP POP POP SWAP9 POP SWAP9 POP SWAP9 SWAP6 POP POP POP POP POP POP JUMP JUMPDEST PUSH1 0x0 DUP1 PUSH1 0x0 DUP4 TIMESTAMP DUP2 LT ISZERO PUSH2 0x10E5 JUMPI PUSH1 0x40 MLOAD PUSH32 0x8C379A000000000000000000000000000000000000000000000000000000000 DUP2 MSTORE PUSH1 0x4 ADD PUSH2 0x10DC SWAP1 PUSH2 0x29F0 JUMP JUMPDEST PUSH1 0x40 MLOAD DUP1 SWAP2 SUB SWAP1 REVERT JUMPDEST PUSH2 0x1113 DUP11 PUSH32 0x0 DUP12 CALLVALUE DUP13 DUP13 PUSH2 0x1C97 JUMP JUMPDEST DUP1 SWAP5 POP DUP2 SWAP6 POP POP POP PUSH1 0x0 PUSH2 0x1168 PUSH32 0x0 DUP13 PUSH32 0x0 PUSH2 0x1707 JUMP JUMPDEST SWAP1 POP PUSH2 0x1176 DUP12 CALLER DUP4 DUP9 PUSH2 0x1779 JUMP JUMPDEST PUSH32 0x0 PUSH20 0xFFFFFFFFFFFFFFFFFFFFFFFFFFFFFFFFFFFFFFFF AND PUSH4 0xD0E30DB0 DUP6 PUSH1 0x40 MLOAD DUP3 PUSH4 0xFFFFFFFF AND PUSH1 0xE0 SHL DUP2 MSTORE PUSH1 0x4 ADD PUSH1 0x0 PUSH1 0x40 MLOAD DUP1 DUP4 SUB DUP2 DUP6 DUP9 DUP1 EXTCODESIZE ISZERO DUP1 ISZERO PUSH2 0x11DE JUMPI PUSH1 0x0 DUP1 REVERT JUMPDEST POP GAS CALL ISZERO DUP1 ISZERO PUSH2 0x11F2 JUMPI RETURNDATASIZE PUSH1 0x0 DUP1 RETURNDATACOPY RETURNDATASIZE PUSH1 0x0 REVERT JUMPDEST POP POP POP POP POP PUSH32 0x0 PUSH20 0xFFFFFFFFFFFFFFFFFFFFFFFFFFFFFFFFFFFFFFFF AND PUSH4 0xA9059CBB DUP3 DUP7 PUSH1 0x40 MLOAD DUP4 PUSH4 0xFFFFFFFF AND PUSH1 0xE0 SHL DUP2 MSTORE PUSH1 0x4 ADD PUSH2 0x1252 SWAP3 SWAP2 SWAP1 PUSH2 0x2BE8 JUMP JUMPDEST PUSH1 0x20 PUSH1 0x40 MLOAD DUP1 DUP4 SUB DUP2 PUSH1 0x0 DUP8 GAS CALL ISZERO DUP1 ISZERO PUSH2 0x1271 JUMPI RETURNDATASIZE PUSH1 0x0 DUP1 RETURNDATACOPY RETURNDATASIZE PUSH1 0x0 REVERT JUMPDEST POP POP POP POP PUSH1 0x40 MLOAD RETURNDATASIZE PUSH1 0x1F NOT PUSH1 0x1F DUP3 ADD AND DUP3 ADD DUP1 PUSH1 0x40 MSTORE POP DUP2 ADD SWAP1 PUSH2 0x1295 SWAP2 SWAP1 PUSH2 0x2C49 JUMP JUMPDEST PUSH2 0x12A2 JUMPI PUSH2 0x12A1 PUSH2 0x23E1 JUMP JUMPDEST JUMPDEST DUP1 PUSH20 0xFFFFFFFFFFFFFFFFFFFFFFFFFFFFFFFFFFFFFFFF AND PUSH4 0x6A627842 DUP9 PUSH1 0x40 MLOAD DUP3 PUSH4 0xFFFFFFFF AND PUSH1 0xE0 SHL DUP2 MSTORE PUSH1 0x4 ADD PUSH2 0x12DB SWAP2 SWAP1 PUSH2 0x27E9 JUMP JUMPDEST PUSH1 0x20 PUSH1 0x40 MLOAD DUP1 DUP4 SUB DUP2 PUSH1 0x0 DUP8 GAS CALL ISZERO DUP1 ISZERO PUSH2 0x12FA JUMPI RETURNDATASIZE PUSH1 0x0 DUP1 RETURNDATACOPY RETURNDATASIZE PUSH1 0x0 REVERT JUMPDEST POP POP POP POP PUSH1 0x40 MLOAD RETURNDATASIZE PUSH1 0x1F NOT PUSH1 0x1F DUP3 ADD AND DUP3 ADD DUP1 PUSH1 0x40 MSTORE POP DUP2 ADD SWAP1 PUSH2 0x131E SWAP2 SWAP1 PUSH2 0x2D63 JUMP JUMPDEST SWAP3 POP DUP4 CALLVALUE GT ISZERO PUSH2 0x133E JUMPI PUSH2 0x133D CALLER DUP6 CALLVALUE PUSH2 0x1338 SWAP2 SWAP1 PUSH2 0x2A5A JUMP JUMPDEST PUSH2 0x1482 JUMP JUMPDEST JUMPDEST POP POP SWAP7 POP SWAP7 POP SWAP7 SWAP4 POP POP POP POP JUMP JUMPDEST PUSH1 0x0 DUP1 DUP5 PUSH20 0xFFFFFFFFFFFFFFFFFFFFFFFFFFFFFFFFFFFFFFFF AND PUSH4 0xA9059CBB DUP6 DUP6 PUSH1 0x40 MLOAD PUSH1 0x24 ADD PUSH2 0x137E SWAP3 SWAP2 SWAP1 PUSH2 0x2BE8 JUMP JUMPDEST PUSH1 0x40 MLOAD PUSH1 0x20 DUP2 DUP4 SUB SUB DUP2 MSTORE SWAP1 PUSH1 0x40 MSTORE SWAP1 PUSH1 0xE0 SHL PUSH1 0x20 DUP3 ADD DUP1 MLOAD PUSH28 0xFFFFFFFFFFFFFFFFFFFFFFFFFFFFFFFFFFFFFFFFFFFFFFFFFFFFFFFF DUP4 DUP2 DUP4 AND OR DUP4 MSTORE POP POP POP POP PUSH1 0x40 MLOAD PUSH2 0x13CC SWAP2 SWAP1 PUSH2 0x2E01 JUMP JUMPDEST PUSH1 0x0 PUSH1 0x40 MLOAD DUP1 DUP4 SUB DUP2 PUSH1 0x0 DUP7 GAS CALL SWAP2 POP POP RETURNDATASIZE DUP1 PUSH1 0x0 DUP2 EQ PUSH2 0x1409 JUMPI PUSH1 0x40 MLOAD SWAP2 POP PUSH1 0x1F NOT PUSH1 0x3F RETURNDATASIZE ADD AND DUP3 ADD PUSH1 0x40 MSTORE RETURNDATASIZE DUP3 MSTORE RETURNDATASIZE PUSH1 0x0 PUSH1 0x20 DUP5 ADD RETURNDATACOPY PUSH2 0x140E JUMP JUMPDEST PUSH1 0x60 SWAP2 POP JUMPDEST POP SWAP2 POP SWAP2 POP DUP2 DUP1 ISZERO PUSH2 0x143C JUMPI POP PUSH1 0x0 DUP2 MLOAD EQ DUP1 PUSH2 0x143B JUMPI POP DUP1 DUP1 PUSH1 0x20 ADD SWAP1 MLOAD DUP2 ADD SWAP1 PUSH2 0x143A SWAP2 SWAP1 PUSH2 0x2C49 JUMP JUMPDEST JUMPDEST JUMPDEST PUSH2 0x147B JUMPI PUSH1 0x40 MLOAD PUSH32 0x8C379A000000000000000000000000000000000000000000000000000000000 DUP2 MSTORE PUSH1 0x4 ADD PUSH2 0x1472 SWAP1 PUSH2 0x2E8A JUMP JUMPDEST PUSH1 0x40 MLOAD DUP1 SWAP2 SUB SWAP1 REVERT JUMPDEST POP POP POP POP POP JUMP JUMPDEST PUSH1 0x0 DUP3 PUSH20 0xFFFFFFFFFFFFFFFFFFFFFFFFFFFFFFFFFFFFFFFF AND DUP3 PUSH1 0x0 PUSH8 0xFFFFFFFFFFFFFFFF DUP2 GT ISZERO PUSH2 0x14B7 JUMPI PUSH2 0x14B6 PUSH2 0x2EAA JUMP JUMPDEST JUMPDEST PUSH1 0x40 MLOAD SWAP1 DUP1 DUP3 MSTORE DUP1 PUSH1 0x1F ADD PUSH1 0x1F NOT AND PUSH1 0x20 ADD DUP3 ADD PUSH1 0x40 MSTORE DUP1 ISZERO PUSH2 0x14E9 JUMPI DUP2 PUSH1 0x20 ADD PUSH1 0x1 DUP3 MUL DUP1 CALLDATASIZE DUP4 CALLDATACOPY DUP1 DUP3 ADD SWAP2 POP POP SWAP1 POP JUMPDEST POP PUSH1 0x40 MLOAD PUSH2 0x14F7 SWAP2 SWAP1 PUSH2 0x2E01 JUMP JUMPDEST PUSH1 0x0 PUSH1 0x40 MLOAD DUP1 DUP4 SUB DUP2 DUP6 DUP8 GAS CALL SWAP3 POP POP POP RETURNDATASIZE DUP1 PUSH1 0x0 DUP2 EQ PUSH2 0x1534 JUMPI PUSH1 0x40 MLOAD SWAP2 POP PUSH1 0x1F NOT PUSH1 0x3F RETURNDATASIZE ADD AND DUP3 ADD PUSH1 0x40 MSTORE RETURNDATASIZE DUP3 MSTORE RETURNDATASIZE PUSH1 0x0 PUSH1 0x20 DUP5 ADD RETURNDATACOPY PUSH2 0x1539 JUMP JUMPDEST PUSH1 0x60 SWAP2 POP JUMPDEST POP POP SWAP1 POP DUP1 PUSH2 0x157D JUMPI PUSH1 0x40 MLOAD PUSH32 0x8C379A000000000000000000000000000000000000000000000000000000000 DUP2 MSTORE PUSH1 0x4 ADD PUSH2 0x1574 SWAP1 PUSH2 0x2F4B JUMP JUMPDEST PUSH1 0x40 MLOAD DUP1 SWAP2 SUB SWAP1 REVERT JUMPDEST POP POP POP JUMP JUMPDEST PUSH1 0x60 PUSH1 0x2 DUP3 MLOAD LT ISZERO PUSH2 0x15C9 JUMPI PUSH1 0x40 MLOAD PUSH32 0x8C379A000000000000000000000000000000000000000000000000000000000 DUP2 MSTORE PUSH1 0x4 ADD PUSH2 0x15C0 SWAP1 PUSH2 0x2FB7 JUMP JUMPDEST PUSH1 0x40 MLOAD DUP1 SWAP2 SUB SWAP1 REVERT JUMPDEST DUP2 MLOAD PUSH8 0xFFFFFFFFFFFFFFFF DUP2 GT ISZERO PUSH2 0x15E4 JUMPI PUSH2 0x15E3 PUSH2 0x2EAA JUMP JUMPDEST JUMPDEST PUSH1 0x40 MLOAD SWAP1 DUP1 DUP3 MSTORE DUP1 PUSH1 0x20 MUL PUSH1 0x20 ADD DUP3 ADD PUSH1 0x40 MSTORE DUP1 ISZERO PUSH2 0x1612 JUMPI DUP2 PUSH1 0x20 ADD PUSH1 0x20 DUP3 MUL DUP1 CALLDATASIZE DUP4 CALLDATACOPY DUP1 DUP3 ADD SWAP2 POP POP SWAP1 POP JUMPDEST POP SWAP1 POP DUP3 DUP2 PUSH1 0x0 DUP2 MLOAD DUP2 LT PUSH2 0x162A JUMPI PUSH2 0x1629 PUSH2 0x2A8E JUMP JUMPDEST JUMPDEST PUSH1 0x20 MUL PUSH1 0x20 ADD ADD DUP2 DUP2 MSTORE POP POP PUSH1 0x0 JUMPDEST PUSH1 0x1 DUP4 MLOAD PUSH2 0x1647 SWAP2 SWAP1 PUSH2 0x2A5A JUMP JUMPDEST DUP2 LT ISZERO PUSH2 0x16FF JUMPI PUSH1 0x0 DUP1 PUSH2 0x169C DUP8 DUP7 DUP6 DUP2 MLOAD DUP2 LT PUSH2 0x1668 JUMPI PUSH2 0x1667 PUSH2 0x2A8E JUMP JUMPDEST JUMPDEST PUSH1 0x20 MUL PUSH1 0x20 ADD ADD MLOAD DUP8 PUSH1 0x1 DUP8 PUSH2 0x167E SWAP2 SWAP1 PUSH2 0x2FD7 JUMP JUMPDEST DUP2 MLOAD DUP2 LT PUSH2 0x168F JUMPI PUSH2 0x168E PUSH2 0x2A8E JUMP JUMPDEST JUMPDEST PUSH1 0x20 MUL PUSH1 0x20 ADD ADD MLOAD PUSH2 0x1F2C JUMP JUMPDEST SWAP2 POP SWAP2 POP PUSH2 0x16C5 DUP5 DUP5 DUP2 MLOAD DUP2 LT PUSH2 0x16B6 JUMPI PUSH2 0x16B5 PUSH2 0x2A8E JUMP JUMPDEST JUMPDEST PUSH1 0x20 MUL PUSH1 0x20 ADD ADD MLOAD DUP4 DUP4 PUSH2 0x202F JUMP JUMPDEST DUP5 PUSH1 0x1 DUP6 PUSH2 0x16D3 SWAP2 SWAP1 PUSH2 0x2FD7 JUMP JUMPDEST DUP2 MLOAD DUP2 LT PUSH2 0x16E4 JUMPI PUSH2 0x16E3 PUSH2 0x2A8E JUMP JUMPDEST JUMPDEST PUSH1 0x20 MUL PUSH1 0x20 ADD ADD DUP2 DUP2 MSTORE POP POP POP POP DUP1 DUP1 PUSH1 0x1 ADD SWAP2 POP POP PUSH2 0x1639 JUMP JUMPDEST POP SWAP4 SWAP3 POP POP POP JUMP JUMPDEST PUSH1 0x0 DUP1 PUSH1 0x0 PUSH2 0x1716 DUP6 DUP6 PUSH2 0x2135 JUMP JUMPDEST SWAP2 POP SWAP2 POP DUP6 DUP3 DUP3 PUSH1 0x40 MLOAD PUSH1 0x20 ADD PUSH2 0x172E SWAP3 SWAP2 SWAP1 PUSH2 0x3053 JUMP JUMPDEST PUSH1 0x40 MLOAD PUSH1 0x20 DUP2 DUP4 SUB SUB DUP2 MSTORE SWAP1 PUSH1 0x40 MSTORE DUP1 MLOAD SWAP1 PUSH1 0x20 ADD KECCAK256 PUSH1 0x40 MLOAD PUSH1 0x20 ADD PUSH2 0x1755 SWAP3 SWAP2 SWAP1 PUSH2 0x314D JUMP JUMPDEST PUSH1 0x40 MLOAD PUSH1 0x20 DUP2 DUP4 SUB SUB DUP2 MSTORE SWAP1 PUSH1 0x40 MSTORE DUP1 MLOAD SWAP1 PUSH1 0x20 ADD KECCAK256 PUSH1 0x0 SHR SWAP3 POP POP POP SWAP4 SWAP3 POP POP POP JUMP JUMPDEST PUSH1 0x0 DUP1 DUP6 PUSH20 0xFFFFFFFFFFFFFFFFFFFFFFFFFFFFFFFFFFFFFFFF AND PUSH4 0x23B872DD DUP7 DUP7 DUP7 PUSH1 0x40 MLOAD PUSH1 0x24 ADD PUSH2 0x17AD SWAP4 SWAP3 SWAP2 SWAP1 PUSH2 0x318F JUMP JUMPDEST PUSH1 0x40 MLOAD PUSH1 0x20 DUP2 DUP4 SUB SUB DUP2 MSTORE SWAP1 PUSH1 0x40 MSTORE SWAP1 PUSH1 0xE0 SHL PUSH1 0x20 DUP3 ADD DUP1 MLOAD PUSH28 0xFFFFFFFFFFFFFFFFFFFFFFFFFFFFFFFFFFFFFFFFFFFFFFFFFFFFFFFF DUP4 DUP2 DUP4 AND OR DUP4 MSTORE POP POP POP POP PUSH1 0x40 MLOAD PUSH2 0x17FB SWAP2 SWAP1 PUSH2 0x2E01 JUMP JUMPDEST PUSH1 0x0 PUSH1 0x40 MLOAD DUP1 DUP4 SUB DUP2 PUSH1 0x0 DUP7 GAS CALL SWAP2 POP POP RETURNDATASIZE DUP1 PUSH1 0x0 DUP2 EQ PUSH2 0x1838 JUMPI PUSH1 0x40 MLOAD SWAP2 POP PUSH1 0x1F NOT PUSH1 0x3F RETURNDATASIZE ADD AND DUP3 ADD PUSH1 0x40 MSTORE RETURNDATASIZE DUP3 MSTORE RETURNDATASIZE PUSH1 0x0 PUSH1 0x20 DUP5 ADD RETURNDATACOPY PUSH2 0x183D JUMP JUMPDEST PUSH1 0x60 SWAP2 POP JUMPDEST POP SWAP2 POP SWAP2 POP DUP2 DUP1 ISZERO PUSH2 0x186B JUMPI POP PUSH1 0x0 DUP2 MLOAD EQ DUP1 PUSH2 0x186A JUMPI POP DUP1 DUP1 PUSH1 0x20 ADD SWAP1 MLOAD DUP2 ADD SWAP1 PUSH2 0x1869 SWAP2 SWAP1 PUSH2 0x2C49 JUMP JUMPDEST JUMPDEST JUMPDEST PUSH2 0x18AA JUMPI PUSH1 0x40 MLOAD PUSH32 0x8C379A000000000000000000000000000000000000000000000000000000000 DUP2 MSTORE PUSH1 0x4 ADD PUSH2 0x18A1 SWAP1 PUSH2 0x3238 JUMP JUMPDEST PUSH1 0x40 MLOAD DUP1 SWAP2 SUB SWAP1 REVERT JUMPDEST POP POP POP POP POP POP JUMP JUMPDEST PUSH1 0x0 JUMPDEST PUSH1 0x1 DUP4 MLOAD PUSH2 0x18C3 SWAP2 SWAP1 PUSH2 0x2A5A JUMP JUMPDEST DUP2 LT ISZERO PUSH2 0x1AFF JUMPI PUSH1 0x0 DUP1 DUP5 DUP4 DUP2 MLOAD DUP2 LT PUSH2 0x18E0 JUMPI PUSH2 0x18DF PUSH2 0x2A8E JUMP JUMPDEST JUMPDEST PUSH1 0x20 MUL PUSH1 0x20 ADD ADD MLOAD DUP6 PUSH1 0x1 DUP6 PUSH2 0x18F6 SWAP2 SWAP1 PUSH2 0x2FD7 JUMP JUMPDEST DUP2 MLOAD DUP2 LT PUSH2 0x1907 JUMPI PUSH2 0x1906 PUSH2 0x2A8E JUMP JUMPDEST JUMPDEST PUSH1 0x20 MUL PUSH1 0x20 ADD ADD MLOAD SWAP2 POP SWAP2 POP PUSH1 0x0 PUSH2 0x191F DUP4 DUP4 PUSH2 0x2135 JUMP JUMPDEST POP SWAP1 POP PUSH1 0x0 DUP8 PUSH1 0x1 DUP7 PUSH2 0x1932 SWAP2 SWAP1 PUSH2 0x2FD7 JUMP JUMPDEST DUP2 MLOAD DUP2 LT PUSH2 0x1943 JUMPI PUSH2 0x1942 PUSH2 0x2A8E JUMP JUMPDEST JUMPDEST PUSH1 0x20 MUL PUSH1 0x20 ADD ADD MLOAD SWAP1 POP PUSH1 0x0 DUP1 DUP4 PUSH20 0xFFFFFFFFFFFFFFFFFFFFFFFFFFFFFFFFFFFFFFFF AND DUP7 PUSH20 0xFFFFFFFFFFFFFFFFFFFFFFFFFFFFFFFFFFFFFFFF AND EQ PUSH2 0x198B JUMPI DUP3 PUSH1 0x0 PUSH2 0x198F JUMP JUMPDEST PUSH1 0x0 DUP4 JUMPDEST SWAP2 POP SWAP2 POP PUSH1 0x0 PUSH1 0x2 DUP11 MLOAD PUSH2 0x19A3 SWAP2 SWAP1 PUSH2 0x2A5A JUMP JUMPDEST DUP9 LT PUSH2 0x19AF JUMPI DUP9 PUSH2 0x1A01 JUMP JUMPDEST PUSH2 0x1A00 PUSH32 0x0 DUP8 DUP13 PUSH1 0x2 DUP13 PUSH2 0x19E2 SWAP2 SWAP1 PUSH2 0x2FD7 JUMP JUMPDEST DUP2 MLOAD DUP2 LT PUSH2 0x19F3 JUMPI PUSH2 0x19F2 PUSH2 0x2A8E JUMP JUMPDEST JUMPDEST PUSH1 0x20 MUL PUSH1 0x20 ADD ADD MLOAD PUSH2 0x1707 JUMP JUMPDEST JUMPDEST SWAP1 POP PUSH2 0x1A2E PUSH32 0x0 DUP9 DUP9 PUSH2 0x1707 JUMP JUMPDEST PUSH20 0xFFFFFFFFFFFFFFFFFFFFFFFFFFFFFFFFFFFFFFFF AND PUSH4 0x22C0D9F DUP5 DUP5 DUP5 PUSH1 0x0 PUSH8 0xFFFFFFFFFFFFFFFF DUP2 GT ISZERO PUSH2 0x1A67 JUMPI PUSH2 0x1A66 PUSH2 0x2EAA JUMP JUMPDEST JUMPDEST PUSH1 0x40 MLOAD SWAP1 DUP1 DUP3 MSTORE DUP1 PUSH1 0x1F ADD PUSH1 0x1F NOT AND PUSH1 0x20 ADD DUP3 ADD PUSH1 0x40 MSTORE DUP1 ISZERO PUSH2 0x1A99 JUMPI DUP2 PUSH1 0x20 ADD PUSH1 0x1 DUP3 MUL DUP1 CALLDATASIZE DUP4 CALLDATACOPY DUP1 DUP3 ADD SWAP2 POP POP SWAP1 POP JUMPDEST POP PUSH1 0x40 MLOAD DUP6 PUSH4 0xFFFFFFFF AND PUSH1 0xE0 SHL DUP2 MSTORE PUSH1 0x4 ADD PUSH2 0x1AB9 SWAP5 SWAP4 SWAP3 SWAP2 SWAP1 PUSH2 0x32B3 JUMP JUMPDEST PUSH1 0x0 PUSH1 0x40 MLOAD DUP1 DUP4 SUB DUP2 PUSH1 0x0 DUP8 DUP1 EXTCODESIZE ISZERO DUP1 ISZERO PUSH2 0x1AD3 JUMPI PUSH1 0x0 DUP1 REVERT JUMPDEST POP GAS CALL ISZERO DUP1 ISZERO PUSH2 0x1AE7 JUMPI RETURNDATASIZE PUSH1 0x0 DUP1 RETURNDATACOPY RETURNDATASIZE PUSH1 0x0 REVERT JUMPDEST POP POP POP POP POP POP POP POP POP POP POP DUP1 DUP1 PUSH1 0x1 ADD SWAP2 POP POP PUSH2 0x18B5 JUMP JUMPDEST POP POP POP POP JUMP JUMPDEST PUSH1 0x0 DUP1 PUSH1 0x0 PUSH2 0x1B35 PUSH32 0x0 DUP9 DUP9 PUSH2 0x1707 JUMP JUMPDEST SWAP1 POP DUP1 PUSH20 0xFFFFFFFFFFFFFFFFFFFFFFFFFFFFFFFFFFFFFFFF AND PUSH4 0x23B872DD CALLER DUP4 DUP9 PUSH1 0x40 MLOAD DUP5 PUSH4 0xFFFFFFFF AND PUSH1 0xE0 SHL DUP2 MSTORE PUSH1 0x4 ADD PUSH2 0x1B74 SWAP4 SWAP3 SWAP2 SWAP1 PUSH2 0x318F JUMP JUMPDEST PUSH1 0x20 PUSH1 0x40 MLOAD DUP1 DUP4 SUB DUP2 PUSH1 0x0 DUP8 GAS CALL ISZERO DUP1 ISZERO PUSH2 0x1B93 JUMPI RETURNDATASIZE PUSH1 0x0 DUP1 RETURNDATACOPY RETURNDATASIZE PUSH1 0x0 REVERT JUMPDEST POP POP POP POP PUSH1 0x40 MLOAD RETURNDATASIZE PUSH1 0x1F NOT PUSH1 0x1F DUP3 ADD AND DUP3 ADD DUP1 PUSH1 0x40 MSTORE POP DUP2 ADD SWAP1 PUSH2 0x1BB7 SWAP2 SWAP1 PUSH2 0x2C49 JUMP JUMPDEST POP PUSH1 0x0 DUP1 DUP3 PUSH20 0xFFFFFFFFFFFFFFFFFFFFFFFFFFFFFFFFFFFFFFFF AND PUSH4 0x89AFCB44 DUP8 PUSH1 0x40 MLOAD DUP3 PUSH4 0xFFFFFFFF AND PUSH1 0xE0 SHL DUP2 MSTORE PUSH1 0x4 ADD PUSH2 0x1BF4 SWAP2 SWAP1 PUSH2 0x27E9 JUMP JUMPDEST PUSH1 0x40 DUP1 MLOAD DUP1 DUP4 SUB DUP2 PUSH1 0x0 DUP8 GAS CALL ISZERO DUP1 ISZERO PUSH2 0x1C12 JUMPI RETURNDATASIZE PUSH1 0x0 DUP1 RETURNDATACOPY RETURNDATASIZE PUSH1 0x0 REVERT JUMPDEST POP POP POP POP PUSH1 0x40 MLOAD RETURNDATASIZE PUSH1 0x1F NOT PUSH1 0x1F DUP3 ADD AND DUP3 ADD DUP1 PUSH1 0x40 MSTORE POP DUP2 ADD SWAP1 PUSH2 0x1C36 SWAP2 SWAP1 PUSH2 0x32FF JUMP JUMPDEST SWAP2 POP SWAP2 POP PUSH1 0x0 PUSH2 0x1C46 DUP11 DUP11 PUSH2 0x2135 JUMP JUMPDEST POP SWAP1 POP DUP1 PUSH20 0xFFFFFFFFFFFFFFFFFFFFFFFFFFFFFFFFFFFFFFFF AND DUP11 PUSH20 0xFFFFFFFFFFFFFFFFFFFFFFFFFFFFFFFFFFFFFFFF AND EQ PUSH2 0x1C83 JUMPI DUP2 DUP4 PUSH2 0x1C86 JUMP JUMPDEST DUP3 DUP3 JUMPDEST SWAP6 POP SWAP6 POP POP POP POP POP SWAP5 POP SWAP5 SWAP3 POP POP POP JUMP JUMPDEST PUSH1 0x0 DUP1 PUSH1 0x0 PUSH20 0xFFFFFFFFFFFFFFFFFFFFFFFFFFFFFFFFFFFFFFFF AND PUSH32 0x0 PUSH20 0xFFFFFFFFFFFFFFFFFFFFFFFFFFFFFFFFFFFFFFFF AND PUSH4 0xE6A43905 DUP11 DUP11 PUSH1 0x40 MLOAD DUP4 PUSH4 0xFFFFFFFF AND PUSH1 0xE0 SHL DUP2 MSTORE PUSH1 0x4 ADD PUSH2 0x1D0D SWAP3 SWAP2 SWAP1 PUSH2 0x333F JUMP JUMPDEST PUSH1 0x20 PUSH1 0x40 MLOAD DUP1 DUP4 SUB DUP2 DUP7 GAS STATICCALL ISZERO DUP1 ISZERO PUSH2 0x1D2A JUMPI RETURNDATASIZE PUSH1 0x0 DUP1 RETURNDATACOPY RETURNDATASIZE PUSH1 0x0 REVERT JUMPDEST POP POP POP POP PUSH1 0x40 MLOAD RETURNDATASIZE PUSH1 0x1F NOT PUSH1 0x1F DUP3 ADD AND DUP3 ADD DUP1 PUSH1 0x40 MSTORE POP DUP2 ADD SWAP1 PUSH2 0x1D4E SWAP2 SWAP1 PUSH2 0x337D JUMP JUMPDEST PUSH20 0xFFFFFFFFFFFFFFFFFFFFFFFFFFFFFFFFFFFFFFFF AND SUB PUSH2 0x1E09 JUMPI PUSH32 0x0 PUSH20 0xFFFFFFFFFFFFFFFFFFFFFFFFFFFFFFFFFFFFFFFF AND PUSH4 0xC9C65396 DUP10 DUP10 PUSH1 0x40 MLOAD DUP4 PUSH4 0xFFFFFFFF AND PUSH1 0xE0 SHL DUP2 MSTORE PUSH1 0x4 ADD PUSH2 0x1DC4 SWAP3 SWAP2 SWAP1 PUSH2 0x333F JUMP JUMPDEST PUSH1 0x20 PUSH1 0x40 MLOAD DUP1 DUP4 SUB DUP2 PUSH1 0x0 DUP8 GAS CALL ISZERO DUP1 ISZERO PUSH2 0x1DE3 JUMPI RETURNDATASIZE PUSH1 0x0 DUP1 RETURNDATACOPY RETURNDATASIZE PUSH1 0x0 REVERT JUMPDEST POP POP POP POP PUSH1 0x40 MLOAD RETURNDATASIZE PUSH1 0x1F NOT PUSH1 0x1F DUP3 ADD AND DUP3 ADD DUP1 PUSH1 0x40 MSTORE POP DUP2 ADD SWAP1 PUSH2 0x1E07 SWAP2 SWAP1 PUSH2 0x337D JUMP JUMPDEST POP JUMPDEST PUSH1 0x0 DUP1 PUSH2 0x1E37 PUSH32 0x0 DUP12 DUP12 PUSH2 0x1F2C JUMP JUMPDEST SWAP2 POP SWAP2 POP PUSH1 0x0 DUP3 EQ DUP1 ISZERO PUSH2 0x1E4B JUMPI POP PUSH1 0x0 DUP2 EQ JUMPDEST ISZERO PUSH2 0x1E5D JUMPI DUP8 DUP8 SWAP4 POP SWAP4 POP POP POP PUSH2 0x1F21 JUMP JUMPDEST PUSH1 0x0 PUSH2 0x1E6A DUP10 DUP5 DUP5 PUSH2 0x2261 JUMP JUMPDEST SWAP1 POP DUP8 DUP2 GT PUSH2 0x1EC4 JUMPI DUP6 DUP2 LT ISZERO PUSH2 0x1EB6 JUMPI PUSH1 0x40 MLOAD PUSH32 0x8C379A000000000000000000000000000000000000000000000000000000000 DUP2 MSTORE PUSH1 0x4 ADD PUSH2 0x1EAD SWAP1 PUSH2 0x2D2E JUMP JUMPDEST PUSH1 0x40 MLOAD DUP1 SWAP2 SUB SWAP1 REVERT JUMPDEST DUP9 DUP2 SWAP5 POP SWAP5 POP POP POP POP PUSH2 0x1F21 JUMP JUMPDEST PUSH1 0x0 PUSH2 0x1ED1 DUP10 DUP5 DUP7 PUSH2 0x2261 JUMP JUMPDEST SWAP1 POP DUP8 DUP2 LT ISZERO PUSH2 0x1F16 JUMPI PUSH1 0x40 MLOAD PUSH32 0x8C379A000000000000000000000000000000000000000000000000000000000 DUP2 MSTORE PUSH1 0x4 ADD PUSH2 0x1F0D SWAP1 PUSH2 0x2CC2 JUMP JUMPDEST PUSH1 0x40 MLOAD DUP1 SWAP2 SUB SWAP1 REVERT JUMPDEST DUP1 DUP10 SWAP6 POP SWAP6 POP POP POP POP POP JUMPDEST SWAP7 POP SWAP7 SWAP5 POP POP POP POP POP JUMP JUMPDEST PUSH1 0x0 DUP1 PUSH1 0x0 PUSH2 0x1F3B DUP6 DUP6 PUSH2 0x2135 JUMP JUMPDEST POP SWAP1 POP PUSH1 0x0 DUP1 PUSH2 0x1F4C DUP9 DUP9 DUP9 PUSH2 0x1707 JUMP JUMPDEST PUSH20 0xFFFFFFFFFFFFFFFFFFFFFFFFFFFFFFFFFFFFFFFF AND PUSH4 0x902F1AC PUSH1 0x40 MLOAD DUP2 PUSH4 0xFFFFFFFF AND PUSH1 0xE0 SHL DUP2 MSTORE PUSH1 0x4 ADD PUSH1 0x60 PUSH1 0x40 MLOAD DUP1 DUP4 SUB DUP2 DUP7 GAS STATICCALL ISZERO DUP1 ISZERO PUSH2 0x1F96 JUMPI RETURNDATASIZE PUSH1 0x0 DUP1 RETURNDATACOPY RETURNDATASIZE PUSH1 0x0 REVERT JUMPDEST POP POP POP POP PUSH1 0x40 MLOAD RETURNDATASIZE PUSH1 0x1F NOT PUSH1 0x1F DUP3 ADD AND DUP3 ADD DUP1 PUSH1 0x40 MSTORE POP DUP2 ADD SWAP1 PUSH2 0x1FBA SWAP2 SWAP1 PUSH2 0x342C JUMP JUMPDEST POP PUSH14 0xFFFFFFFFFFFFFFFFFFFFFFFFFFFF AND SWAP2 POP PUSH14 0xFFFFFFFFFFFFFFFFFFFFFFFFFFFF AND SWAP2 POP DUP3 PUSH20 0xFFFFFFFFFFFFFFFFFFFFFFFFFFFFFFFFFFFFFFFF AND DUP8 PUSH20 0xFFFFFFFFFFFFFFFFFFFFFFFFFFFFFFFFFFFFFFFF AND EQ PUSH2 0x2019 JUMPI DUP1 DUP3 PUSH2 0x201C JUMP JUMPDEST DUP2 DUP2 JUMPDEST DUP1 SWAP6 POP DUP2 SWAP7 POP POP POP POP POP POP SWAP4 POP SWAP4 SWAP2 POP POP JUMP JUMPDEST PUSH1 0x0 DUP1 DUP5 GT PUSH2 0x2073 JUMPI PUSH1 0x40 MLOAD PUSH32 0x8C379A000000000000000000000000000000000000000000000000000000000 DUP2 MSTORE PUSH1 0x4 ADD PUSH2 0x206A SWAP1 PUSH2 0x34F1 JUMP JUMPDEST PUSH1 0x40 MLOAD DUP1 SWAP2 SUB SWAP1 REVERT JUMPDEST PUSH1 0x0 DUP4 GT DUP1 ISZERO PUSH2 0x2083 JUMPI POP PUSH1 0x0 DUP3 GT JUMPDEST PUSH2 0x20C2 JUMPI PUSH1 0x40 MLOAD PUSH32 0x8C379A000000000000000000000000000000000000000000000000000000000 DUP2 MSTORE PUSH1 0x4 ADD PUSH2 0x20B9 SWAP1 PUSH2 0x3583 JUMP JUMPDEST PUSH1 0x40 MLOAD DUP1 SWAP2 SUB SWAP1 REVERT JUMPDEST PUSH1 0x0 PUSH2 0x20D9 PUSH2 0x3E5 DUP7 PUSH2 0x231B SWAP1 SWAP2 SWAP1 PUSH4 0xFFFFFFFF AND JUMP JUMPDEST SWAP1 POP PUSH1 0x0 PUSH2 0x20F0 DUP5 DUP4 PUSH2 0x231B SWAP1 SWAP2 SWAP1 PUSH4 0xFFFFFFFF AND JUMP JUMPDEST SWAP1 POP PUSH1 0x0 PUSH2 0x211B DUP4 PUSH2 0x210D PUSH2 0x3E8 DUP10 PUSH2 0x231B SWAP1 SWAP2 SWAP1 PUSH4 0xFFFFFFFF AND JUMP JUMPDEST PUSH2 0x2388 SWAP1 SWAP2 SWAP1 PUSH4 0xFFFFFFFF AND JUMP JUMPDEST SWAP1 POP DUP1 DUP3 PUSH2 0x2129 SWAP2 SWAP1 PUSH2 0x35D2 JUMP JUMPDEST SWAP4 POP POP POP POP SWAP4 SWAP3 POP POP POP JUMP JUMPDEST PUSH1 0x0 DUP1 DUP3 PUSH20 0xFFFFFFFFFFFFFFFFFFFFFFFFFFFFFFFFFFFFFFFF AND DUP5 PUSH20 0xFFFFFFFFFFFFFFFFFFFFFFFFFFFFFFFFFFFFFFFF AND SUB PUSH2 0x21A6 JUMPI PUSH1 0x40 MLOAD PUSH32 0x8C379A000000000000000000000000000000000000000000000000000000000 DUP2 MSTORE PUSH1 0x4 ADD PUSH2 0x219D SWAP1 PUSH2 0x3675 JUMP JUMPDEST PUSH1 0x40 MLOAD DUP1 SWAP2 SUB SWAP1 REVERT JUMPDEST DUP3 PUSH20 0xFFFFFFFFFFFFFFFFFFFFFFFFFFFFFFFFFFFFFFFF AND DUP5 PUSH20 0xFFFFFFFFFFFFFFFFFFFFFFFFFFFFFFFFFFFFFFFF AND LT PUSH2 0x21E0 JUMPI DUP3 DUP5 PUSH2 0x21E3 JUMP JUMPDEST DUP4 DUP4 JUMPDEST DUP1 SWAP3 POP DUP2 SWAP4 POP POP POP PUSH1 0x0 PUSH20 0xFFFFFFFFFFFFFFFFFFFFFFFFFFFFFFFFFFFFFFFF AND DUP3 PUSH20 0xFFFFFFFFFFFFFFFFFFFFFFFFFFFFFFFFFFFFFFFF AND SUB PUSH2 0x225A JUMPI PUSH1 0x40 MLOAD PUSH32 0x8C379A000000000000000000000000000000000000000000000000000000000 DUP2 MSTORE PUSH1 0x4 ADD PUSH2 0x2251 SWAP1 PUSH2 0x36E1 JUMP JUMPDEST PUSH1 0x40 MLOAD DUP1 SWAP2 SUB SWAP1 REVERT JUMPDEST SWAP3 POP SWAP3 SWAP1 POP JUMP JUMPDEST PUSH1 0x0 DUP1 DUP5 GT PUSH2 0x22A5 JUMPI PUSH1 0x40 MLOAD PUSH32 0x8C379A000000000000000000000000000000000000000000000000000000000 DUP2 MSTORE PUSH1 0x4 ADD PUSH2 0x229C SWAP1 PUSH2 0x3773 JUMP JUMPDEST PUSH1 0x40 MLOAD DUP1 SWAP2 SUB SWAP1 REVERT JUMPDEST PUSH1 0x0 DUP4 GT DUP1 ISZERO PUSH2 0x22B5 JUMPI POP PUSH1 0x0 DUP3 GT JUMPDEST PUSH2 0x22F4 JUMPI PUSH1 0x40 MLOAD PUSH32 0x8C379A000000000000000000000000000000000000000000000000000000000 DUP2 MSTORE PUSH1 0x4 ADD PUSH2 0x22EB SWAP1 PUSH2 0x3583 JUMP JUMPDEST PUSH1 0x40 MLOAD DUP1 SWAP2 SUB SWAP1 REVERT JUMPDEST DUP3 PUSH2 0x2308 DUP4 DUP7 PUSH2 0x231B SWAP1 SWAP2 SWAP1 PUSH4 0xFFFFFFFF AND JUMP JUMPDEST PUSH2 0x2312 SWAP2 SWAP1 PUSH2 0x35D2 JUMP JUMPDEST SWAP1 POP SWAP4 SWAP3 POP POP POP JUMP JUMPDEST PUSH1 0x0 DUP1 DUP3 EQ DUP1 PUSH2 0x2343 JUMPI POP DUP3 DUP3 DUP4 DUP6 PUSH2 0x2334 SWAP2 SWAP1 PUSH2 0x3793 JUMP JUMPDEST SWAP3 POP DUP3 PUSH2 0x2341 SWAP2 SWAP1 PUSH2 0x35D2 JUMP JUMPDEST EQ JUMPDEST PUSH2 0x2382 JUMPI PUSH1 0x40 MLOAD PUSH32 0x8C379A000000000000000000000000000000000000000000000000000000000 DUP2 MSTORE PUSH1 0x4 ADD PUSH2 0x2379 SWAP1 PUSH2 0x3821 JUMP JUMPDEST PUSH1 0x40 MLOAD DUP1 SWAP2 SUB SWAP1 REVERT JUMPDEST SWAP3 SWAP2 POP POP JUMP JUMPDEST PUSH1 0x0 DUP3 DUP3 DUP5 PUSH2 0x2397 SWAP2 SWAP1 PUSH2 0x2FD7 JUMP JUMPDEST SWAP2 POP DUP2 LT ISZERO PUSH2 0x23DB JUMPI PUSH1 0x40 MLOAD PUSH32 0x8C379A000000000000000000000000000000000000000000000000000000000 DUP2 MSTORE PUSH1 0x4 ADD PUSH2 0x23D2 SWAP1 PUSH2 0x388D JUMP JUMPDEST PUSH1 0x40 MLOAD DUP1 SWAP2 SUB SWAP1 REVERT JUMPDEST SWAP3 SWAP2 POP POP JUMP JUMPDEST PUSH32 0x4E487B7100000000000000000000000000000000000000000000000000000000 PUSH1 0x0 MSTORE PUSH1 0x1 PUSH1 0x4 MSTORE PUSH1 0x24 PUSH1 0x0 REVERT JUMPDEST PUSH1 0x0 DUP1 REVERT JUMPDEST PUSH1 0x0 DUP1 REVERT JUMPDEST PUSH1 0x0 PUSH20 0xFFFFFFFFFFFFFFFFFFFFFFFFFFFFFFFFFFFFFFFF DUP3 AND SWAP1 POP SWAP2 SWAP1 POP JUMP JUMPDEST PUSH1 0x0 PUSH2 0x2445 DUP3 PUSH2 0x241A JUMP JUMPDEST SWAP1 POP SWAP2 SWAP1 POP JUMP JUMPDEST PUSH2 0x2455 DUP2 PUSH2 0x243A JUMP JUMPDEST DUP2 EQ PUSH2 0x2460 JUMPI PUSH1 0x0 DUP1 REVERT JUMPDEST POP JUMP JUMPDEST PUSH1 0x0 DUP2 CALLDATALOAD SWAP1 POP PUSH2 0x2472 DUP2 PUSH2 0x244C JUMP JUMPDEST SWAP3 SWAP2 POP POP JUMP JUMPDEST PUSH1 0x0 DUP2 SWAP1 POP SWAP2 SWAP1 POP JUMP JUMPDEST PUSH2 0x248B DUP2 PUSH2 0x2478 JUMP JUMPDEST DUP2 EQ PUSH2 0x2496 JUMPI PUSH1 0x0 DUP1 REVERT JUMPDEST POP JUMP JUMPDEST PUSH1 0x0 DUP2 CALLDATALOAD SWAP1 POP PUSH2 0x24A8 DUP2 PUSH2 0x2482 JUMP JUMPDEST SWAP3 SWAP2 POP POP JUMP JUMPDEST PUSH1 0x0 DUP1 PUSH1 0x0 DUP1 PUSH1 0x0 DUP1 PUSH1 0xC0 DUP8 DUP10 SUB SLT ISZERO PUSH2 0x24CB JUMPI PUSH2 0x24CA PUSH2 0x2410 JUMP JUMPDEST JUMPDEST PUSH1 0x0 PUSH2 0x24D9 DUP10 DUP3 DUP11 ADD PUSH2 0x2463 JUMP JUMPDEST SWAP7 POP POP PUSH1 0x20 PUSH2 0x24EA DUP10 DUP3 DUP11 ADD PUSH2 0x2499 JUMP JUMPDEST SWAP6 POP POP PUSH1 0x40 PUSH2 0x24FB DUP10 DUP3 DUP11 ADD PUSH2 0x2499 JUMP JUMPDEST SWAP5 POP POP PUSH1 0x60 PUSH2 0x250C DUP10 DUP3 DUP11 ADD PUSH2 0x2499 JUMP JUMPDEST SWAP4 POP POP PUSH1 0x80 PUSH2 0x251D DUP10 DUP3 DUP11 ADD PUSH2 0x2463 JUMP JUMPDEST SWAP3 POP POP PUSH1 0xA0 PUSH2 0x252E DUP10 DUP3 DUP11 ADD PUSH2 0x2499 JUMP JUMPDEST SWAP2 POP POP SWAP3 SWAP6 POP SWAP3 SWAP6 POP SWAP3 SWAP6 JUMP JUMPDEST PUSH2 0x2544 DUP2 PUSH2 0x2478 JUMP JUMPDEST DUP3 MSTORE POP POP JUMP JUMPDEST PUSH1 0x0 PUSH1 0x40 DUP3 ADD SWAP1 POP PUSH2 0x255F PUSH1 0x0 DUP4 ADD DUP6 PUSH2 0x253B JUMP JUMPDEST PUSH2 0x256C PUSH1 0x20 DUP4 ADD DUP5 PUSH2 0x253B JUMP JUMPDEST SWAP4 SWAP3 POP POP POP JUMP JUMPDEST PUSH1 0x0 DUP1 REVERT JUMPDEST PUSH1 0x0 DUP1 REVERT JUMPDEST PUSH1 0x0 DUP1 REVERT JUMPDEST PUSH1 0x0 DUP1 DUP4 PUSH1 0x1F DUP5 ADD SLT PUSH2 0x2598 JUMPI PUSH2 0x2597 PUSH2 0x2573 JUMP JUMPDEST JUMPDEST DUP3 CALLDATALOAD SWAP1 POP PUSH8 0xFFFFFFFFFFFFFFFF DUP2 GT ISZERO PUSH2 0x25B5 JUMPI PUSH2 0x25B4 PUSH2 0x2578 JUMP JUMPDEST JUMPDEST PUSH1 0x20 DUP4 ADD SWAP2 POP DUP4 PUSH1 0x20 DUP3 MUL DUP4 ADD GT ISZERO PUSH2 0x25D1 JUMPI PUSH2 0x25D0 PUSH2 0x257D JUMP JUMPDEST JUMPDEST SWAP3 POP SWAP3 SWAP1 POP JUMP JUMPDEST PUSH1 0x0 DUP1 PUSH1 0x0 DUP1 PUSH1 0x0 DUP1 PUSH1 0xA0 DUP8 DUP10 SUB SLT ISZERO PUSH2 0x25F5 JUMPI PUSH2 0x25F4 PUSH2 0x2410 JUMP JUMPDEST JUMPDEST PUSH1 0x0 PUSH2 0x2603 DUP10 DUP3 DUP11 ADD PUSH2 0x2499 JUMP JUMPDEST SWAP7 POP POP PUSH1 0x20 PUSH2 0x2614 DUP10 DUP3 DUP11 ADD PUSH2 0x2499 JUMP JUMPDEST SWAP6 POP POP PUSH1 0x40 DUP8 ADD CALLDATALOAD PUSH8 0xFFFFFFFFFFFFFFFF DUP2 GT ISZERO PUSH2 0x2635 JUMPI PUSH2 0x2634 PUSH2 0x2415 JUMP JUMPDEST JUMPDEST PUSH2 0x2641 DUP10 DUP3 DUP11 ADD PUSH2 0x2582 JUMP JUMPDEST SWAP5 POP SWAP5 POP POP PUSH1 0x60 PUSH2 0x2654 DUP10 DUP3 DUP11 ADD PUSH2 0x2463 JUMP JUMPDEST SWAP3 POP POP PUSH1 0x80 PUSH2 0x2665 DUP10 DUP3 DUP11 ADD PUSH2 0x2499 JUMP JUMPDEST SWAP2 POP POP SWAP3 SWAP6 POP SWAP3 SWAP6 POP SWAP3 SWAP6 JUMP JUMPDEST PUSH1 0x0 DUP2 MLOAD SWAP1 POP SWAP2 SWAP1 POP JUMP JUMPDEST PUSH1 0x0 DUP3 DUP3 MSTORE PUSH1 0x20 DUP3 ADD SWAP1 POP SWAP3 SWAP2 POP POP JUMP JUMPDEST PUSH1 0x0 DUP2 SWAP1 POP PUSH1 0x20 DUP3 ADD SWAP1 POP SWAP2 SWAP1 POP JUMP JUMPDEST PUSH2 0x26A7 DUP2 PUSH2 0x2478 JUMP JUMPDEST DUP3 MSTORE POP POP JUMP JUMPDEST PUSH1 0x0 PUSH2 0x26B9 DUP4 DUP4 PUSH2 0x269E JUMP JUMPDEST PUSH1 0x20 DUP4 ADD SWAP1 POP SWAP3 SWAP2 POP POP JUMP JUMPDEST PUSH1 0x0 PUSH1 0x20 DUP3 ADD SWAP1 POP SWAP2 SWAP1 POP JUMP JUMPDEST PUSH1 0x0 PUSH2 0x26DD DUP3 PUSH2 0x2672 JUMP JUMPDEST PUSH2 0x26E7 DUP2 DUP6 PUSH2 0x267D JUMP JUMPDEST SWAP4 POP PUSH2 0x26F2 DUP4 PUSH2 0x268E JUMP JUMPDEST DUP1 PUSH1 0x0 JUMPDEST DUP4 DUP2 LT ISZERO PUSH2 0x2723 JUMPI DUP2 MLOAD PUSH2 0x270A DUP9 DUP3 PUSH2 0x26AD JUMP JUMPDEST SWAP8 POP PUSH2 0x2715 DUP4 PUSH2 0x26C5 JUMP JUMPDEST SWAP3 POP POP PUSH1 0x1 DUP2 ADD SWAP1 POP PUSH2 0x26F6 JUMP JUMPDEST POP DUP6 SWAP4 POP POP POP POP SWAP3 SWAP2 POP POP JUMP JUMPDEST PUSH1 0x0 PUSH1 0x20 DUP3 ADD SWAP1 POP DUP2 DUP2 SUB PUSH1 0x0 DUP4 ADD MSTORE PUSH2 0x274A DUP2 DUP5 PUSH2 0x26D2 JUMP JUMPDEST SWAP1 POP SWAP3 SWAP2 POP POP JUMP JUMPDEST PUSH1 0x0 DUP1 PUSH1 0x0 DUP1 PUSH1 0x0 PUSH1 0x80 DUP7 DUP9 SUB SLT ISZERO PUSH2 0x276E JUMPI PUSH2 0x276D PUSH2 0x2410 JUMP JUMPDEST JUMPDEST PUSH1 0x0 PUSH2 0x277C DUP9 DUP3 DUP10 ADD PUSH2 0x2499 JUMP JUMPDEST SWAP6 POP POP PUSH1 0x20 DUP7 ADD CALLDATALOAD PUSH8 0xFFFFFFFFFFFFFFFF DUP2 GT ISZERO PUSH2 0x279D JUMPI PUSH2 0x279C PUSH2 0x2415 JUMP JUMPDEST JUMPDEST PUSH2 0x27A9 DUP9 DUP3 DUP10 ADD PUSH2 0x2582 JUMP JUMPDEST SWAP5 POP SWAP5 POP POP PUSH1 0x40 PUSH2 0x27BC DUP9 DUP3 DUP10 ADD PUSH2 0x2463 JUMP JUMPDEST SWAP3 POP POP PUSH1 0x60 PUSH2 0x27CD DUP9 DUP3 DUP10 ADD PUSH2 0x2499 JUMP JUMPDEST SWAP2 POP POP SWAP3 SWAP6 POP SWAP3 SWAP6 SWAP1 SWAP4 POP JUMP JUMPDEST PUSH2 0x27E3 DUP2 PUSH2 0x243A JUMP JUMPDEST DUP3 MSTORE POP POP JUMP JUMPDEST PUSH1 0x0 PUSH1 0x20 DUP3 ADD SWAP1 POP PUSH2 0x27FE PUSH1 0x0 DUP4 ADD DUP5 PUSH2 0x27DA JUMP JUMPDEST SWAP3 SWAP2 POP POP JUMP JUMPDEST PUSH1 0x0 DUP1 PUSH1 0x0 DUP1 PUSH1 0x0 DUP1 PUSH1 0x0 PUSH1 0xE0 DUP9 DUP11 SUB SLT ISZERO PUSH2 0x2823 JUMPI PUSH2 0x2822 PUSH2 0x2410 JUMP JUMPDEST JUMPDEST PUSH1 0x0 PUSH2 0x2831 DUP11 DUP3 DUP12 ADD PUSH2 0x2463 JUMP JUMPDEST SWAP8 POP POP PUSH1 0x20 PUSH2 0x2842 DUP11 DUP3 DUP12 ADD PUSH2 0x2463 JUMP JUMPDEST SWAP7 POP POP PUSH1 0x40 PUSH2 0x2853 DUP11 DUP3 DUP12 ADD PUSH2 0x2499 JUMP JUMPDEST SWAP6 POP POP PUSH1 0x60 PUSH2 0x2864 DUP11 DUP3 DUP12 ADD PUSH2 0x2499 JUMP JUMPDEST SWAP5 POP POP PUSH1 0x80 PUSH2 0x2875 DUP11 DUP3 DUP12 ADD PUSH2 0x2499 JUMP JUMPDEST SWAP4 POP POP PUSH1 0xA0 PUSH2 0x2886 DUP11 DUP3 DUP12 ADD PUSH2 0x2463 JUMP JUMPDEST SWAP3 POP POP PUSH1 0xC0 PUSH2 0x2897 DUP11 DUP3 DUP12 ADD PUSH2 0x2499 JUMP JUMPDEST SWAP2 POP POP SWAP3 SWAP6 SWAP9 SWAP2 SWAP5 SWAP8 POP SWAP3 SWAP6 POP JUMP JUMPDEST PUSH1 0x0 DUP1 PUSH1 0x0 DUP1 PUSH1 0x0 DUP1 PUSH1 0x0 DUP1 PUSH2 0x100 DUP10 DUP12 SUB SLT ISZERO PUSH2 0x28C7 JUMPI PUSH2 0x28C6 PUSH2 0x2410 JUMP JUMPDEST JUMPDEST PUSH1 0x0 PUSH2 0x28D5 DUP12 DUP3 DUP13 ADD PUSH2 0x2463 JUMP JUMPDEST SWAP9 POP POP PUSH1 0x20 PUSH2 0x28E6 DUP12 DUP3 DUP13 ADD PUSH2 0x2463 JUMP JUMPDEST SWAP8 POP POP PUSH1 0x40 PUSH2 0x28F7 DUP12 DUP3 DUP13 ADD PUSH2 0x2499 JUMP JUMPDEST SWAP7 POP POP PUSH1 0x60 PUSH2 0x2908 DUP12 DUP3 DUP13 ADD PUSH2 0x2499 JUMP JUMPDEST SWAP6 POP POP PUSH1 0x80 PUSH2 0x2919 DUP12 DUP3 DUP13 ADD PUSH2 0x2499 JUMP JUMPDEST SWAP5 POP POP PUSH1 0xA0 PUSH2 0x292A DUP12 DUP3 DUP13 ADD PUSH2 0x2499 JUMP JUMPDEST SWAP4 POP POP PUSH1 0xC0 PUSH2 0x293B DUP12 DUP3 DUP13 ADD PUSH2 0x2463 JUMP JUMPDEST SWAP3 POP POP PUSH1 0xE0 PUSH2 0x294C DUP12 DUP3 DUP13 ADD PUSH2 0x2499 JUMP JUMPDEST SWAP2 POP POP SWAP3 SWAP6 SWAP9 POP SWAP3 SWAP6 SWAP9 SWAP1 SWAP4 SWAP7 POP JUMP JUMPDEST PUSH1 0x0 PUSH1 0x60 DUP3 ADD SWAP1 POP PUSH2 0x2971 PUSH1 0x0 DUP4 ADD DUP7 PUSH2 0x253B JUMP JUMPDEST PUSH2 0x297E PUSH1 0x20 DUP4 ADD DUP6 PUSH2 0x253B JUMP JUMPDEST PUSH2 0x298B PUSH1 0x40 DUP4 ADD DUP5 PUSH2 0x253B JUMP JUMPDEST SWAP5 SWAP4 POP POP POP POP JUMP JUMPDEST PUSH1 0x0 DUP3 DUP3 MSTORE PUSH1 0x20 DUP3 ADD SWAP1 POP SWAP3 SWAP2 POP POP JUMP JUMPDEST PUSH32 0x5368756E61496E753A2045585049524544000000000000000000000000000000 PUSH1 0x0 DUP3 ADD MSTORE POP JUMP JUMPDEST PUSH1 0x0 PUSH2 0x29DA PUSH1 0x11 DUP4 PUSH2 0x2993 JUMP JUMPDEST SWAP2 POP PUSH2 0x29E5 DUP3 PUSH2 0x29A4 JUMP JUMPDEST PUSH1 0x20 DUP3 ADD SWAP1 POP SWAP2 SWAP1 POP JUMP JUMPDEST PUSH1 0x0 PUSH1 0x20 DUP3 ADD SWAP1 POP DUP2 DUP2 SUB PUSH1 0x0 DUP4 ADD MSTORE PUSH2 0x2A09 DUP2 PUSH2 0x29CD JUMP JUMPDEST SWAP1 POP SWAP2 SWAP1 POP JUMP JUMPDEST PUSH1 0x0 PUSH1 0x20 DUP3 ADD SWAP1 POP PUSH2 0x2A25 PUSH1 0x0 DUP4 ADD DUP5 PUSH2 0x253B JUMP JUMPDEST SWAP3 SWAP2 POP POP JUMP JUMPDEST PUSH32 0x4E487B7100000000000000000000000000000000000000000000000000000000 PUSH1 0x0 MSTORE PUSH1 0x11 PUSH1 0x4 MSTORE PUSH1 0x24 PUSH1 0x0 REVERT JUMPDEST PUSH1 0x0 PUSH2 0x2A65 DUP3 PUSH2 0x2478 JUMP JUMPDEST SWAP2 POP PUSH2 0x2A70 DUP4 PUSH2 0x2478 JUMP JUMPDEST SWAP3 POP DUP3 DUP3 SUB SWAP1 POP DUP2 DUP2 GT ISZERO PUSH2 0x2A88 JUMPI PUSH2 0x2A87 PUSH2 0x2A2B JUMP JUMPDEST JUMPDEST SWAP3 SWAP2 POP POP JUMP JUMPDEST PUSH32 0x4E487B7100000000000000000000000000000000000000000000000000000000 PUSH1 0x0 MSTORE PUSH1 0x32 PUSH1 0x4 MSTORE PUSH1 0x24 PUSH1 0x0 REVERT JUMPDEST PUSH1 0x0 PUSH1 0x20 DUP3 DUP5 SUB SLT ISZERO PUSH2 0x2AD3 JUMPI PUSH2 0x2AD2 PUSH2 0x2410 JUMP JUMPDEST JUMPDEST PUSH1 0x0 PUSH2 0x2AE1 DUP5 DUP3 DUP6 ADD PUSH2 0x2463 JUMP JUMPDEST SWAP2 POP POP SWAP3 SWAP2 POP POP JUMP JUMPDEST PUSH32 0x5368756E61496E753A20494E56414C49445F5041544800000000000000000000 PUSH1 0x0 DUP3 ADD MSTORE POP JUMP JUMPDEST PUSH1 0x0 PUSH2 0x2B20 PUSH1 0x16 DUP4 PUSH2 0x2993 JUMP JUMPDEST SWAP2 POP PUSH2 0x2B2B DUP3 PUSH2 0x2AEA JUMP JUMPDEST PUSH1 0x20 DUP3 ADD SWAP1 POP SWAP2 SWAP1 POP JUMP JUMPDEST PUSH1 0x0 PUSH1 0x20 DUP3 ADD SWAP1 POP DUP2 DUP2 SUB PUSH1 0x0 DUP4 ADD MSTORE PUSH2 0x2B4F DUP2 PUSH2 0x2B13 JUMP JUMPDEST SWAP1 POP SWAP2 SWAP1 POP JUMP JUMPDEST PUSH32 0x5368756E61496E753A20494E53554646494349454E545F4F55545055545F414D PUSH1 0x0 DUP3 ADD MSTORE PUSH32 0x4F554E5400000000000000000000000000000000000000000000000000000000 PUSH1 0x20 DUP3 ADD MSTORE POP JUMP JUMPDEST PUSH1 0x0 PUSH2 0x2BB2 PUSH1 0x24 DUP4 PUSH2 0x2993 JUMP JUMPDEST SWAP2 POP PUSH2 0x2BBD DUP3 PUSH2 0x2B56 JUMP JUMPDEST PUSH1 0x40 DUP3 ADD SWAP1 POP SWAP2 SWAP1 POP JUMP JUMPDEST PUSH1 0x0 PUSH1 0x20 DUP3 ADD SWAP1 POP DUP2 DUP2 SUB PUSH1 0x0 DUP4 ADD MSTORE PUSH2 0x2BE1 DUP2 PUSH2 0x2BA5 JUMP JUMPDEST SWAP1 POP SWAP2 SWAP1 POP JUMP JUMPDEST PUSH1 0x0 PUSH1 0x40 DUP3 ADD SWAP1 POP PUSH2 0x2BFD PUSH1 0x0 DUP4 ADD DUP6 PUSH2 0x27DA JUMP JUMPDEST PUSH2 0x2C0A PUSH1 0x20 DUP4 ADD DUP5 PUSH2 0x253B JUMP JUMPDEST SWAP4 SWAP3 POP POP POP JUMP JUMPDEST PUSH1 0x0 DUP2 ISZERO ISZERO SWAP1 POP SWAP2 SWAP1 POP JUMP JUMPDEST PUSH2 0x2C26 DUP2 PUSH2 0x2C11 JUMP JUMPDEST DUP2 EQ PUSH2 0x2C31 JUMPI PUSH1 0x0 DUP1 REVERT JUMPDEST POP JUMP JUMPDEST PUSH1 0x0 DUP2 MLOAD SWAP1 POP PUSH2 0x2C43 DUP2 PUSH2 0x2C1D JUMP JUMPDEST SWAP3 SWAP2 POP POP JUMP JUMPDEST PUSH1 0x0 PUSH1 0x20 DUP3 DUP5 SUB SLT ISZERO PUSH2 0x2C5F JUMPI PUSH2 0x2C5E PUSH2 0x2410 JUMP JUMPDEST JUMPDEST PUSH1 0x0 PUSH2 0x2C6D DUP5 DUP3 DUP6 ADD PUSH2 0x2C34 JUMP JUMPDEST SWAP2 POP POP SWAP3 SWAP2 POP POP JUMP JUMPDEST PUSH32 0x5368756E61496E753A20494E53554646494349454E545F415F414D4F554E5400 PUSH1 0x0 DUP3 ADD MSTORE POP JUMP JUMPDEST PUSH1 0x0 PUSH2 0x2CAC PUSH1 0x1F DUP4 PUSH2 0x2993 JUMP JUMPDEST SWAP2 POP PUSH2 0x2CB7 DUP3 PUSH2 0x2C76 JUMP JUMPDEST PUSH1 0x20 DUP3 ADD SWAP1 POP SWAP2 SWAP1 POP JUMP JUMPDEST PUSH1 0x0 PUSH1 0x20 DUP3 ADD SWAP1 POP DUP2 DUP2 SUB PUSH1 0x0 DUP4 ADD MSTORE PUSH2 0x2CDB DUP2 PUSH2 0x2C9F JUMP JUMPDEST SWAP1 POP SWAP2 SWAP1 POP JUMP JUMPDEST PUSH32 0x5368756E61496E753A20494E53554646494349454E545F425F414D4F554E5400 PUSH1 0x0 DUP3 ADD MSTORE POP JUMP JUMPDEST PUSH1 0x0 PUSH2 0x2D18 PUSH1 0x1F DUP4 PUSH2 0x2993 JUMP JUMPDEST SWAP2 POP PUSH2 0x2D23 DUP3 PUSH2 0x2CE2 JUMP JUMPDEST PUSH1 0x20 DUP3 ADD SWAP1 POP SWAP2 SWAP1 POP JUMP JUMPDEST PUSH1 0x0 PUSH1 0x20 DUP3 ADD SWAP1 POP DUP2 DUP2 SUB PUSH1 0x0 DUP4 ADD MSTORE PUSH2 0x2D47 DUP2 PUSH2 0x2D0B JUMP JUMPDEST SWAP1 POP SWAP2 SWAP1 POP JUMP JUMPDEST PUSH1 0x0 DUP2 MLOAD SWAP1 POP PUSH2 0x2D5D DUP2 PUSH2 0x2482 JUMP JUMPDEST SWAP3 SWAP2 POP POP JUMP JUMPDEST PUSH1 0x0 PUSH1 0x20 DUP3 DUP5 SUB SLT ISZERO PUSH2 0x2D79 JUMPI PUSH2 0x2D78 PUSH2 0x2410 JUMP JUMPDEST JUMPDEST PUSH1 0x0 PUSH2 0x2D87 DUP5 DUP3 DUP6 ADD PUSH2 0x2D4E JUMP JUMPDEST SWAP2 POP POP SWAP3 SWAP2 POP POP JUMP JUMPDEST PUSH1 0x0 DUP2 MLOAD SWAP1 POP SWAP2 SWAP1 POP JUMP JUMPDEST PUSH1 0x0 DUP2 SWAP1 POP SWAP3 SWAP2 POP POP JUMP JUMPDEST PUSH1 0x0 JUMPDEST DUP4 DUP2 LT ISZERO PUSH2 0x2DC4 JUMPI DUP1 DUP3 ADD MLOAD DUP2 DUP5 ADD MSTORE PUSH1 0x20 DUP2 ADD SWAP1 POP PUSH2 0x2DA9 JUMP JUMPDEST PUSH1 0x0 DUP5 DUP5 ADD MSTORE POP POP POP POP JUMP JUMPDEST PUSH1 0x0 PUSH2 0x2DDB DUP3 PUSH2 0x2D90 JUMP JUMPDEST PUSH2 0x2DE5 DUP2 DUP6 PUSH2 0x2D9B JUMP JUMPDEST SWAP4 POP PUSH2 0x2DF5 DUP2 DUP6 PUSH1 0x20 DUP7 ADD PUSH2 0x2DA6 JUMP JUMPDEST DUP1 DUP5 ADD SWAP2 POP POP SWAP3 SWAP2 POP POP JUMP JUMPDEST PUSH1 0x0 PUSH2 0x2E0D DUP3 DUP5 PUSH2 0x2DD0 JUMP JUMPDEST SWAP2 POP DUP2 SWAP1 POP SWAP3 SWAP2 POP POP JUMP JUMPDEST PUSH32 0x5472616E7366657248656C7065723A3A736166655472616E736665723A207472 PUSH1 0x0 DUP3 ADD MSTORE PUSH32 0x616E73666572206661696C656400000000000000000000000000000000000000 PUSH1 0x20 DUP3 ADD MSTORE POP JUMP JUMPDEST PUSH1 0x0 PUSH2 0x2E74 PUSH1 0x2D DUP4 PUSH2 0x2993 JUMP JUMPDEST SWAP2 POP PUSH2 0x2E7F DUP3 PUSH2 0x2E18 JUMP JUMPDEST PUSH1 0x40 DUP3 ADD SWAP1 POP SWAP2 SWAP1 POP JUMP JUMPDEST PUSH1 0x0 PUSH1 0x20 DUP3 ADD SWAP1 POP DUP2 DUP2 SUB PUSH1 0x0 DUP4 ADD MSTORE PUSH2 0x2EA3 DUP2 PUSH2 0x2E67 JUMP JUMPDEST SWAP1 POP SWAP2 SWAP1 POP JUMP JUMPDEST PUSH32 0x4E487B7100000000000000000000000000000000000000000000000000000000 PUSH1 0x0 MSTORE PUSH1 0x41 PUSH1 0x4 MSTORE PUSH1 0x24 PUSH1 0x0 REVERT JUMPDEST PUSH32 0x5472616E7366657248656C7065723A3A736166655472616E736665724554483A PUSH1 0x0 DUP3 ADD MSTORE PUSH32 0x20455448207472616E73666572206661696C6564000000000000000000000000 PUSH1 0x20 DUP3 ADD MSTORE POP JUMP JUMPDEST PUSH1 0x0 PUSH2 0x2F35 PUSH1 0x34 DUP4 PUSH2 0x2993 JUMP JUMPDEST SWAP2 POP PUSH2 0x2F40 DUP3 PUSH2 0x2ED9 JUMP JUMPDEST PUSH1 0x40 DUP3 ADD SWAP1 POP SWAP2 SWAP1 POP JUMP JUMPDEST PUSH1 0x0 PUSH1 0x20 DUP3 ADD SWAP1 POP DUP2 DUP2 SUB PUSH1 0x0 DUP4 ADD MSTORE PUSH2 0x2F64 DUP2 PUSH2 0x2F28 JUMP JUMPDEST SWAP1 POP SWAP2 SWAP1 POP JUMP JUMPDEST PUSH32 0x5368756E61496E754C6962726172793A20494E56414C49445F50415448000000 PUSH1 0x0 DUP3 ADD MSTORE POP JUMP JUMPDEST PUSH1 0x0 PUSH2 0x2FA1 PUSH1 0x1D DUP4 PUSH2 0x2993 JUMP JUMPDEST SWAP2 POP PUSH2 0x2FAC DUP3 PUSH2 0x2F6B JUMP JUMPDEST PUSH1 0x20 DUP3 ADD SWAP1 POP SWAP2 SWAP1 POP JUMP JUMPDEST PUSH1 0x0 PUSH1 0x20 DUP3 ADD SWAP1 POP DUP2 DUP2 SUB PUSH1 0x0 DUP4 ADD MSTORE PUSH2 0x2FD0 DUP2 PUSH2 0x2F94 JUMP JUMPDEST SWAP1 POP SWAP2 SWAP1 POP JUMP JUMPDEST PUSH1 0x0 PUSH2 0x2FE2 DUP3 PUSH2 0x2478 JUMP JUMPDEST SWAP2 POP PUSH2 0x2FED DUP4 PUSH2 0x2478 JUMP JUMPDEST SWAP3 POP DUP3 DUP3 ADD SWAP1 POP DUP1 DUP3 GT ISZERO PUSH2 0x3005 JUMPI PUSH2 0x3004 PUSH2 0x2A2B JUMP JUMPDEST JUMPDEST SWAP3 SWAP2 POP POP JUMP JUMPDEST PUSH1 0x0 DUP2 PUSH1 0x60 SHL SWAP1 POP SWAP2 SWAP1 POP JUMP JUMPDEST PUSH1 0x0 PUSH2 0x3023 DUP3 PUSH2 0x300B JUMP JUMPDEST SWAP1 POP SWAP2 SWAP1 POP JUMP JUMPDEST PUSH1 0x0 PUSH2 0x3035 DUP3 PUSH2 0x3018 JUMP JUMPDEST SWAP1 POP SWAP2 SWAP1 POP JUMP JUMPDEST PUSH2 0x304D PUSH2 0x3048 DUP3 PUSH2 0x243A JUMP JUMPDEST PUSH2 0x302A JUMP JUMPDEST DUP3 MSTORE POP POP JUMP JUMPDEST PUSH1 0x0 PUSH2 0x305F DUP3 DUP6 PUSH2 0x303C JUMP JUMPDEST PUSH1 0x14 DUP3 ADD SWAP2 POP PUSH2 0x306F DUP3 DUP5 PUSH2 0x303C JUMP JUMPDEST PUSH1 0x14 DUP3 ADD SWAP2 POP DUP2 SWAP1 POP SWAP4 SWAP3 POP POP POP JUMP JUMPDEST PUSH1 0x0 DUP2 SWAP1 POP SWAP3 SWAP2 POP POP JUMP JUMPDEST PUSH32 0xFF00000000000000000000000000000000000000000000000000000000000000 PUSH1 0x0 DUP3 ADD MSTORE POP JUMP JUMPDEST PUSH1 0x0 PUSH2 0x30C0 PUSH1 0x1 DUP4 PUSH2 0x307F JUMP JUMPDEST SWAP2 POP PUSH2 0x30CB DUP3 PUSH2 0x308A JUMP JUMPDEST PUSH1 0x1 DUP3 ADD SWAP1 POP SWAP2 SWAP1 POP JUMP JUMPDEST PUSH1 0x0 DUP2 SWAP1 POP SWAP2 SWAP1 POP JUMP JUMPDEST PUSH1 0x0 DUP2 SWAP1 POP SWAP2 SWAP1 POP JUMP JUMPDEST PUSH2 0x30FB PUSH2 0x30F6 DUP3 PUSH2 0x30D6 JUMP JUMPDEST PUSH2 0x30E0 JUMP JUMPDEST DUP3 MSTORE POP POP JUMP JUMPDEST PUSH32 0xB182E4A40C383844A54CA5B5D94A7C13BDEC677DB6B0134A8CC38A7763088BF PUSH1 0x0 DUP3 ADD MSTORE POP JUMP JUMPDEST PUSH1 0x0 PUSH2 0x3137 PUSH1 0x20 DUP4 PUSH2 0x307F JUMP JUMPDEST SWAP2 POP PUSH2 0x3142 DUP3 PUSH2 0x3101 JUMP JUMPDEST PUSH1 0x20 DUP3 ADD SWAP1 POP SWAP2 SWAP1 POP JUMP JUMPDEST PUSH1 0x0 PUSH2 0x3158 DUP3 PUSH2 0x30B3 JUMP JUMPDEST SWAP2 POP PUSH2 0x3164 DUP3 DUP6 PUSH2 0x303C JUMP JUMPDEST PUSH1 0x14 DUP3 ADD SWAP2 POP PUSH2 0x3174 DUP3 DUP5 PUSH2 0x30EA JUMP JUMPDEST PUSH1 0x20 DUP3 ADD SWAP2 POP PUSH2 0x3183 DUP3 PUSH2 0x312A JUMP JUMPDEST SWAP2 POP DUP2 SWAP1 POP SWAP4 SWAP3 POP POP POP JUMP JUMPDEST PUSH1 0x0 PUSH1 0x60 DUP3 ADD SWAP1 POP PUSH2 0x31A4 PUSH1 0x0 DUP4 ADD DUP7 PUSH2 0x27DA JUMP JUMPDEST PUSH2 0x31B1 PUSH1 0x20 DUP4 ADD DUP6 PUSH2 0x27DA JUMP JUMPDEST PUSH2 0x31BE PUSH1 0x40 DUP4 ADD DUP5 PUSH2 0x253B JUMP JUMPDEST SWAP5 SWAP4 POP POP POP POP JUMP JUMPDEST PUSH32 0x5472616E7366657248656C7065723A3A7472616E7366657246726F6D3A207472 PUSH1 0x0 DUP3 ADD MSTORE PUSH32 0x616E7366657246726F6D206661696C6564000000000000000000000000000000 PUSH1 0x20 DUP3 ADD MSTORE POP JUMP JUMPDEST PUSH1 0x0 PUSH2 0x3222 PUSH1 0x31 DUP4 PUSH2 0x2993 JUMP JUMPDEST SWAP2 POP PUSH2 0x322D DUP3 PUSH2 0x31C6 JUMP JUMPDEST PUSH1 0x40 DUP3 ADD SWAP1 POP SWAP2 SWAP1 POP JUMP JUMPDEST PUSH1 0x0 PUSH1 0x20 DUP3 ADD SWAP1 POP DUP2 DUP2 SUB PUSH1 0x0 DUP4 ADD MSTORE PUSH2 0x3251 DUP2 PUSH2 0x3215 JUMP JUMPDEST SWAP1 POP SWAP2 SWAP1 POP JUMP JUMPDEST PUSH1 0x0 DUP3 DUP3 MSTORE PUSH1 0x20 DUP3 ADD SWAP1 POP SWAP3 SWAP2 POP POP JUMP JUMPDEST PUSH1 0x0 PUSH1 0x1F NOT PUSH1 0x1F DUP4 ADD AND SWAP1 POP SWAP2 SWAP1 POP JUMP JUMPDEST PUSH1 0x0 PUSH2 0x3285 DUP3 PUSH2 0x2D90 JUMP JUMPDEST PUSH2 0x328F DUP2 DUP6 PUSH2 0x3258 JUMP JUMPDEST SWAP4 POP PUSH2 0x329F DUP2 DUP6 PUSH1 0x20 DUP7 ADD PUSH2 0x2DA6 JUMP JUMPDEST PUSH2 0x32A8 DUP2 PUSH2 0x3269 JUMP JUMPDEST DUP5 ADD SWAP2 POP POP SWAP3 SWAP2 POP POP JUMP JUMPDEST PUSH1 0x0 PUSH1 0x80 DUP3 ADD SWAP1 POP PUSH2 0x32C8 PUSH1 0x0 DUP4 ADD DUP8 PUSH2 0x253B JUMP JUMPDEST PUSH2 0x32D5 PUSH1 0x20 DUP4 ADD DUP7 PUSH2 0x253B JUMP JUMPDEST PUSH2 0x32E2 PUSH1 0x40 DUP4 ADD DUP6 PUSH2 0x27DA JUMP JUMPDEST DUP2 DUP2 SUB PUSH1 0x60 DUP4 ADD MSTORE PUSH2 0x32F4 DUP2 DUP5 PUSH2 0x327A JUMP JUMPDEST SWAP1 POP SWAP6 SWAP5 POP POP POP POP POP JUMP JUMPDEST PUSH1 0x0 DUP1 PUSH1 0x40 DUP4 DUP6 SUB SLT ISZERO PUSH2 0x3316 JUMPI PUSH2 0x3315 PUSH2 0x2410 JUMP JUMPDEST JUMPDEST PUSH1 0x0 PUSH2 0x3324 DUP6 DUP3 DUP7 ADD PUSH2 0x2D4E JUMP JUMPDEST SWAP3 POP POP PUSH1 0x20 PUSH2 0x3335 DUP6 DUP3 DUP7 ADD PUSH2 0x2D4E JUMP JUMPDEST SWAP2 POP POP SWAP3 POP SWAP3 SWAP1 POP JUMP JUMPDEST PUSH1 0x0 PUSH1 0x40 DUP3 ADD SWAP1 POP PUSH2 0x3354 PUSH1 0x0 DUP4 ADD DUP6 PUSH2 0x27DA JUMP JUMPDEST PUSH2 0x3361 PUSH1 0x20 DUP4 ADD DUP5 PUSH2 0x27DA JUMP JUMPDEST SWAP4 SWAP3 POP POP POP JUMP JUMPDEST PUSH1 0x0 DUP2 MLOAD SWAP1 POP PUSH2 0x3377 DUP2 PUSH2 0x244C JUMP JUMPDEST SWAP3 SWAP2 POP POP JUMP JUMPDEST PUSH1 0x0 PUSH1 0x20 DUP3 DUP5 SUB SLT ISZERO PUSH2 0x3393 JUMPI PUSH2 0x3392 PUSH2 0x2410 JUMP JUMPDEST JUMPDEST PUSH1 0x0 PUSH2 0x33A1 DUP5 DUP3 DUP6 ADD PUSH2 0x3368 JUMP JUMPDEST SWAP2 POP POP SWAP3 SWAP2 POP POP JUMP JUMPDEST PUSH1 0x0 PUSH14 0xFFFFFFFFFFFFFFFFFFFFFFFFFFFF DUP3 AND SWAP1 POP SWAP2 SWAP1 POP JUMP JUMPDEST PUSH2 0x33CD DUP2 PUSH2 0x33AA JUMP JUMPDEST DUP2 EQ PUSH2 0x33D8 JUMPI PUSH1 0x0 DUP1 REVERT JUMPDEST POP JUMP JUMPDEST PUSH1 0x0 DUP2 MLOAD SWAP1 POP PUSH2 0x33EA DUP2 PUSH2 0x33C4 JUMP JUMPDEST SWAP3 SWAP2 POP POP JUMP JUMPDEST PUSH1 0x0 PUSH4 0xFFFFFFFF DUP3 AND SWAP1 POP SWAP2 SWAP1 POP JUMP JUMPDEST PUSH2 0x3409 DUP2 PUSH2 0x33F0 JUMP JUMPDEST DUP2 EQ PUSH2 0x3414 JUMPI PUSH1 0x0 DUP1 REVERT JUMPDEST POP JUMP JUMPDEST PUSH1 0x0 DUP2 MLOAD SWAP1 POP PUSH2 0x3426 DUP2 PUSH2 0x3400 JUMP JUMPDEST SWAP3 SWAP2 POP POP JUMP JUMPDEST PUSH1 0x0 DUP1 PUSH1 0x0 PUSH1 0x60 DUP5 DUP7 SUB SLT ISZERO PUSH2 0x3445 JUMPI PUSH2 0x3444 PUSH2 0x2410 JUMP JUMPDEST JUMPDEST PUSH1 0x0 PUSH2 0x3453 DUP7 DUP3 DUP8 ADD PUSH2 0x33DB JUMP JUMPDEST SWAP4 POP POP PUSH1 0x20 PUSH2 0x3464 DUP7 DUP3 DUP8 ADD PUSH2 0x33DB JUMP JUMPDEST SWAP3 POP POP PUSH1 0x40 PUSH2 0x3475 DUP7 DUP3 DUP8 ADD PUSH2 0x3417 JUMP JUMPDEST SWAP2 POP POP SWAP3 POP SWAP3 POP SWAP3 JUMP JUMPDEST PUSH32 0x5368756E61496E754C6962726172793A20494E53554646494349454E545F494E PUSH1 0x0 DUP3 ADD MSTORE PUSH32 0x5055545F414D4F554E5400000000000000000000000000000000000000000000 PUSH1 0x20 DUP3 ADD MSTORE POP JUMP JUMPDEST PUSH1 0x0 PUSH2 0x34DB PUSH1 0x2A DUP4 PUSH2 0x2993 JUMP JUMPDEST SWAP2 POP PUSH2 0x34E6 DUP3 PUSH2 0x347F JUMP JUMPDEST PUSH1 0x40 DUP3 ADD SWAP1 POP SWAP2 SWAP1 POP JUMP JUMPDEST PUSH1 0x0 PUSH1 0x20 DUP3 ADD SWAP1 POP DUP2 DUP2 SUB PUSH1 0x0 DUP4 ADD MSTORE PUSH2 0x350A DUP2 PUSH2 0x34CE JUMP JUMPDEST SWAP1 POP SWAP2 SWAP1 POP JUMP JUMPDEST PUSH32 0x5368756E61496E754C6962726172793A20494E53554646494349454E545F4C49 PUSH1 0x0 DUP3 ADD MSTORE PUSH32 0x5155494449545900000000000000000000000000000000000000000000000000 PUSH1 0x20 DUP3 ADD MSTORE POP JUMP JUMPDEST PUSH1 0x0 PUSH2 0x356D PUSH1 0x27 DUP4 PUSH2 0x2993 JUMP JUMPDEST SWAP2 POP PUSH2 0x3578 DUP3 PUSH2 0x3511 JUMP JUMPDEST PUSH1 0x40 DUP3 ADD SWAP1 POP SWAP2 SWAP1 POP JUMP JUMPDEST PUSH1 0x0 PUSH1 0x20 DUP3 ADD SWAP1 POP DUP2 DUP2 SUB PUSH1 0x0 DUP4 ADD MSTORE PUSH2 0x359C DUP2 PUSH2 0x3560 JUMP JUMPDEST SWAP1 POP SWAP2 SWAP1 POP JUMP JUMPDEST PUSH32 0x4E487B7100000000000000000000000000000000000000000000000000000000 PUSH1 0x0 MSTORE PUSH1 0x12 PUSH1 0x4 MSTORE PUSH1 0x24 PUSH1 0x0 REVERT JUMPDEST PUSH1 0x0 PUSH2 0x35DD DUP3 PUSH2 0x2478 JUMP JUMPDEST SWAP2 POP PUSH2 0x35E8 DUP4 PUSH2 0x2478 JUMP JUMPDEST SWAP3 POP DUP3 PUSH2 0x35F8 JUMPI PUSH2 0x35F7 PUSH2 0x35A3 JUMP JUMPDEST JUMPDEST DUP3 DUP3 DIV SWAP1 POP SWAP3 SWAP2 POP POP JUMP JUMPDEST PUSH32 0x5368756E61496E754C6962726172793A204944454E544943414C5F4144445245 PUSH1 0x0 DUP3 ADD MSTORE PUSH32 0x5353455300000000000000000000000000000000000000000000000000000000 PUSH1 0x20 DUP3 ADD MSTORE POP JUMP JUMPDEST PUSH1 0x0 PUSH2 0x365F PUSH1 0x24 DUP4 PUSH2 0x2993 JUMP JUMPDEST SWAP2 POP PUSH2 0x366A DUP3 PUSH2 0x3603 JUMP JUMPDEST PUSH1 0x40 DUP3 ADD SWAP1 POP SWAP2 SWAP1 POP JUMP JUMPDEST PUSH1 0x0 PUSH1 0x20 DUP3 ADD SWAP1 POP DUP2 DUP2 SUB PUSH1 0x0 DUP4 ADD MSTORE PUSH2 0x368E DUP2 PUSH2 0x3652 JUMP JUMPDEST SWAP1 POP SWAP2 SWAP1 POP JUMP JUMPDEST PUSH32 0x5368756E61496E754C6962726172793A205A45524F5F41444452455353000000 PUSH1 0x0 DUP3 ADD MSTORE POP JUMP JUMPDEST PUSH1 0x0 PUSH2 0x36CB PUSH1 0x1D DUP4 PUSH2 0x2993 JUMP JUMPDEST SWAP2 POP PUSH2 0x36D6 DUP3 PUSH2 0x3695 JUMP JUMPDEST PUSH1 0x20 DUP3 ADD SWAP1 POP SWAP2 SWAP1 POP JUMP JUMPDEST PUSH1 0x0 PUSH1 0x20 DUP3 ADD SWAP1 POP DUP2 DUP2 SUB PUSH1 0x0 DUP4 ADD MSTORE PUSH2 0x36FA DUP2 PUSH2 0x36BE JUMP JUMPDEST SWAP1 POP SWAP2 SWAP1 POP JUMP JUMPDEST PUSH32 0x5368756E61496E754C6962726172793A20494E53554646494349454E545F414D PUSH1 0x0 DUP3 ADD MSTORE PUSH32 0x4F554E5400000000000000000000000000000000000000000000000000000000 PUSH1 0x20 DUP3 ADD MSTORE POP JUMP JUMPDEST PUSH1 0x0 PUSH2 0x375D PUSH1 0x24 DUP4 PUSH2 0x2993 JUMP JUMPDEST SWAP2 POP PUSH2 0x3768 DUP3 PUSH2 0x3701 JUMP JUMPDEST PUSH1 0x40 DUP3 ADD SWAP1 POP SWAP2 SWAP1 POP JUMP JUMPDEST PUSH1 0x0 PUSH1 0x20 DUP3 ADD SWAP1 POP DUP2 DUP2 SUB PUSH1 0x0 DUP4 ADD MSTORE PUSH2 0x378C DUP2 PUSH2 0x3750 JUMP JUMPDEST SWAP1 POP SWAP2 SWAP1 POP JUMP JUMPDEST PUSH1 0x0 PUSH2 0x379E DUP3 PUSH2 0x2478 JUMP JUMPDEST SWAP2 POP PUSH2 0x37A9 DUP4 PUSH2 0x2478 JUMP JUMPDEST SWAP3 POP DUP3 DUP3 MUL PUSH2 0x37B7 DUP2 PUSH2 0x2478 JUMP JUMPDEST SWAP2 POP DUP3 DUP3 DIV DUP5 EQ DUP4 ISZERO OR PUSH2 0x37CE JUMPI PUSH2 0x37CD PUSH2 0x2A2B JUMP JUMPDEST JUMPDEST POP SWAP3 SWAP2 POP POP JUMP JUMPDEST PUSH32 0x64732D6D6174682D6D756C2D6F766572666C6F77000000000000000000000000 PUSH1 0x0 DUP3 ADD MSTORE POP JUMP JUMPDEST PUSH1 0x0 PUSH2 0x380B PUSH1 0x14 DUP4 PUSH2 0x2993 JUMP JUMPDEST SWAP2 POP PUSH2 0x3816 DUP3 PUSH2 0x37D5 JUMP JUMPDEST PUSH1 0x20 DUP3 ADD SWAP1 POP SWAP2 SWAP1 POP JUMP JUMPDEST PUSH1 0x0 PUSH1 0x20 DUP3 ADD SWAP1 POP DUP2 DUP2 SUB PUSH1 0x0 DUP4 ADD MSTORE PUSH2 0x383A DUP2 PUSH2 0x37FE JUMP JUMPDEST SWAP1 POP SWAP2 SWAP1 POP JUMP JUMPDEST PUSH32 0x64732D6D6174682D6164642D6F766572666C6F77000000000000000000000000 PUSH1 0x0 DUP3 ADD MSTORE POP JUMP JUMPDEST PUSH1 0x0 PUSH2 0x3877 PUSH1 0x14 DUP4 PUSH2 0x2993 JUMP JUMPDEST SWAP2 POP PUSH2 0x3882 DUP3 PUSH2 0x3841 JUMP JUMPDEST PUSH1 0x20 DUP3 ADD SWAP1 POP SWAP2 SWAP1 POP JUMP JUMPDEST PUSH1 0x0 PUSH1 0x20 DUP3 ADD SWAP1 POP DUP2 DUP2 SUB PUSH1 0x0 DUP4 ADD MSTORE PUSH2 0x38A6 DUP2 PUSH2 0x386A JUMP JUMPDEST SWAP1 POP SWAP2 SWAP1 POP JUMP INVALID LOG2 PUSH5 0x6970667358 0x22 SLT KECCAK256 DUP2 PUSH3 0xD5C15B DUP11 NOT SIGNEXTEND MSTORE DUP13 0xA8 0xDE MSTORE8 0xCF SWAP5 0xAC JUMP DUP13 0xF8 DUP1 STATICCALL 0xE6 MSIZE 0xBF SLOAD MSTORE 0xE7 DUP4 CODESIZE 0xAF NOT TIMESTAMP PUSH5 0x736F6C6343 STOP ADDMOD SHL STOP CALLER "},"methodIdentifiers":{"WETH()":"ad5c4648","addLiquidity(address,address,uint256,uint256,uint256,uint256,address,uint256)":"e8e33700","addLiquidityETH(address,uint256,uint256,uint256,address,uint256)":"f305d719","factory()":"c45a0155","removeLiquidity(address,address,uint256,uint256,uint256,address,uint256)":"baa2abde","removeLiquidityETH(address,uint256,uint256,uint256,address,uint256)":"02751cec","swapExactETHForTokens(uint256,address[],address,uint256)":"7ff36ab5","swapExactTokensForETH(uint256,uint256,address[],address,uint256)":"18cbafe5","swapExactTokensForTokens(uint256,uint256,address[],address,uint256)":"38ed1739"}}}}}