{
  "_format": "hh-sol-artifact-1",
  "contractName": "ShunaInuFactory",
  "sourceName": "contracts/ShunaInuFactory.sol",
  "abi": [
    {
      "inputs": [
        {
          "internalType": "address",
          "name": "_feeToSetter",
          "type": "address"
        },
        {
          "internalType": "address",
          "name": "_feeTo",
          "type": "address"
        }
      ],
      "stateMutability": "nonpayable",
      "type": "constructor"
    },
    {
      "anonymous": false,
      "inputs": [
        {
          "indexed": true,
          "internalType": "address",
          "name": "token0",
          "type": "address"
        },
        {
          "indexed": true,
          "internalType": "address",
          "name": "token1",
          "type": "address"
        },
        {
          "indexed": false,
          "internalType": "address",
          "name": "pair",
          "type": "address"
        },
        {
          "indexed": false,
          "internalType": "uint256",
          "name": "",
          "type": "uint256"
        }
      ],
      "name": "PairCreated",
      "type": "event"
    },
    {
      "inputs": [
        {
          "internalType": "uint256",
          "name": "",
          "type": "uint256"
        }
      ],
      "name": "allPairs",
      "outputs": [
        {
          "internalType": "address",
          "name": "",
          "type": "address"
        }
      ],
      "stateMutability": "view",
      "type": "function"
    },
    {
      "inputs": [],
      "name": "allPairsLength",
      "outputs": [
        {
          "internalType": "uint256",
          "name": "",
          "type": "uint256"
        }
      ],
      "stateMutability": "view",
      "type": "function"
    },
    {
      "inputs": [
        {
          "internalType": "address",
          "name": "tokenA",
          "type": "address"
        },
        {
          "internalType": "address",
          "name": "tokenB",
          "type": "address"
        }
      ],
      "name": "createPair",
      "outputs": [
        {
          "internalType": "address",
          "name": "pair",
          "type": "address"
        }
      ],
      "stateMutability": "nonpayable",
      "type": "function"
    },
    {
      "inputs": [],
      "name": "feeTo",
      "outputs": [
        {
          "internalType": "address",
          "name": "",
          "type": "address"
        }
      ],
      "stateMutability": "view",
      "type": "function"
    },
    {
      "inputs": [],
      "name": "feeToSetter",
      "outputs": [
        {
          "internalType": "address",
          "name": "",
          "type": "address"
        }
      ],
      "stateMutability": "view",
      "type": "function"
    },
    {
      "inputs": [],
      "name": "getInitHash",
      "outputs": [
        {
          "internalType": "bytes32",
          "name": "",
          "type": "bytes32"
        }
      ],
      "stateMutability": "pure",
      "type": "function"
    },
    {
      "inputs": [
        {
          "internalType": "address",
          "name": "",
          "type": "address"
        },
        {
          "internalType": "address",
          "name": "",
          "type": "address"
        }
      ],
      "name": "getPair",
      "outputs": [
        {
          "internalType": "address",
          "name": "",
          "type": "address"
        }
      ],
      "stateMutability": "view",
      "type": "function"
    },
    {
      "inputs": [
        {
          "internalType": "address",
          "name": "_feeTo",
          "type": "address"
        }
      ],
      "name": "setFeeTo",
      "outputs": [],
      "stateMutability": "nonpayable",
      "type": "function"
    },
    {
      "inputs": [
        {
          "internalType": "address",
          "name": "_feeToSetter",
          "type": "address"
        }
      ],
      "name": "setFeeToSetter",
      "outputs": [],
      "stateMutability": "nonpayable",
      "type": "function"
    }
  ],
  "bytecode": "0x608060405234801561001057600080fd5b506040516152ba3803806152ba8339818101604052810190610032919061011d565b81600160006101000a81548173ffffffffffffffffffffffffffffffffffffffff021916908373ffffffffffffffffffffffffffffffffffffffff160217905550806000806101000a81548173ffffffffffffffffffffffffffffffffffffffff021916908373ffffffffffffffffffffffffffffffffffffffff160217905550505061015d565b600080fd5b600073ffffffffffffffffffffffffffffffffffffffff82169050919050565b60006100ea826100bf565b9050919050565b6100fa816100df565b811461010557600080fd5b50565b600081519050610117816100f1565b92915050565b60008060408385031215610134576101336100ba565b5b600061014285828601610108565b925050602061015385828601610108565b9150509250929050565b61514e8061016c6000396000f3fe608060405234801561001057600080fd5b50600436106100935760003560e01c8063574f2ba311610066578063574f2ba314610122578063a2e74af614610140578063c9c653961461015c578063e6a439051461018c578063f46901ed146101bc57610093565b8063017e7e5814610098578063094b7415146100b65780631e3dd18b146100d45780633c9de1b814610104575b600080fd5b6100a06101d8565b6040516100ad9190610a46565b60405180910390f35b6100be6101fc565b6040516100cb9190610a46565b60405180910390f35b6100ee60048036038101906100e99190610a9c565b610222565b6040516100fb9190610a46565b60405180910390f35b61010c610261565b6040516101199190610ae2565b60405180910390f35b61012a6102b7565b6040516101379190610b0c565b60405180910390f35b61015a60048036038101906101559190610b53565b6102c4565b005b61017660048036038101906101719190610b80565b610398565b6040516101839190610a46565b60405180910390f35b6101a660048036038101906101a19190610b80565b6108e3565b6040516101b39190610a46565b60405180910390f35b6101d660048036038101906101d19190610b53565b610925565b005b60008054906101000a900473ffffffffffffffffffffffffffffffffffffffff1681565b600160009054906101000a900473ffffffffffffffffffffffffffffffffffffffff1681565b6003818154811061023257600080fd5b906000526020600020016000915054906101000a900473ffffffffffffffffffffffffffffffffffffffff1681565b60008060405180602001610274906109f8565b6020820181038252601f19601f8201166040525090508060405160200161029b9190610c31565b6040516020818303038152906040528051906020012091505090565b6000600380549050905090565b600160009054906101000a900473ffffffffffffffffffffffffffffffffffffffff1673ffffffffffffffffffffffffffffffffffffffff163373ffffffffffffffffffffffffffffffffffffffff1614610354576040517f08c379a000000000000000000000000000000000000000000000000000000000815260040161034b90610ca5565b60405180910390fd5b80600160006101000a81548173ffffffffffffffffffffffffffffffffffffffff021916908373ffffffffffffffffffffffffffffffffffffffff16021790555050565b60008173ffffffffffffffffffffffffffffffffffffffff168373ffffffffffffffffffffffffffffffffffffffff1603610408576040517f08c379a00000000000000000000000000000000000000000000000000000000081526004016103ff90610d11565b60405180910390fd5b6000808373ffffffffffffffffffffffffffffffffffffffff168573ffffffffffffffffffffffffffffffffffffffff1610610445578385610448565b84845b91509150600073ffffffffffffffffffffffffffffffffffffffff168273ffffffffffffffffffffffffffffffffffffffff16036104bb576040517f08c379a00000000000000000000000000000000000000000000000000000000081526004016104b290610d7d565b60405180910390fd5b600073ffffffffffffffffffffffffffffffffffffffff16600260008473ffffffffffffffffffffffffffffffffffffffff1673ffffffffffffffffffffffffffffffffffffffff16815260200190815260200160002060008373ffffffffffffffffffffffffffffffffffffffff1673ffffffffffffffffffffffffffffffffffffffff16815260200190815260200160002060009054906101000a900473ffffffffffffffffffffffffffffffffffffffff1673ffffffffffffffffffffffffffffffffffffffff16146105c6576040517f08c379a00000000000000000000000000000000000000000000000000000000081526004016105bd90610de9565b60405180910390fd5b6000604051806020016105d8906109f8565b6020820181038252601f19601f82011660405250905060008383604051602001610603929190610e51565b604051602081830303815290604052805190602001209050808251602084016000f594508473ffffffffffffffffffffffffffffffffffffffff1663485cc95585856040518363ffffffff1660e01b8152600401610662929190610e7d565b600060405180830381600087803b15801561067c57600080fd5b505af1158015610690573d6000803e3d6000fd5b5050505084600260008673ffffffffffffffffffffffffffffffffffffffff1673ffffffffffffffffffffffffffffffffffffffff16815260200190815260200160002060008573ffffffffffffffffffffffffffffffffffffffff1673ffffffffffffffffffffffffffffffffffffffff16815260200190815260200160002060006101000a81548173ffffffffffffffffffffffffffffffffffffffff021916908373ffffffffffffffffffffffffffffffffffffffff16021790555084600260008573ffffffffffffffffffffffffffffffffffffffff1673ffffffffffffffffffffffffffffffffffffffff16815260200190815260200160002060008673ffffffffffffffffffffffffffffffffffffffff1673ffffffffffffffffffffffffffffffffffffffff16815260200190815260200160002060006101000a81548173ffffffffffffffffffffffffffffffffffffffff021916908373ffffffffffffffffffffffffffffffffffffffff1602179055506003859080600181540180825580915050600190039060005260206000200160009091909190916101000a81548173ffffffffffffffffffffffffffffffffffffffff021916908373ffffffffffffffffffffffffffffffffffffffff1602179055508273ffffffffffffffffffffffffffffffffffffffff168473ffffffffffffffffffffffffffffffffffffffff167f0d3648bd0f6ba80134a33ba9275ac585d9d315f0ad8355cddefde31afa28d0e9876003805490506040516108d1929190610ea6565b60405180910390a35050505092915050565b60026020528160005260406000206020528060005260406000206000915091509054906101000a900473ffffffffffffffffffffffffffffffffffffffff1681565b600160009054906101000a900473ffffffffffffffffffffffffffffffffffffffff1673ffffffffffffffffffffffffffffffffffffffff163373ffffffffffffffffffffffffffffffffffffffff16146109b5576040517f08c379a00000000000000000000000000000000000000000000000000000000081526004016109ac90610ca5565b60405180910390fd5b806000806101000a81548173ffffffffffffffffffffffffffffffffffffffff021916908373ffffffffffffffffffffffffffffffffffffffff16021790555050565b61424980610ed083390190565b600073ffffffffffffffffffffffffffffffffffffffff82169050919050565b6000610a3082610a05565b9050919050565b610a4081610a25565b82525050565b6000602082019050610a5b6000830184610a37565b92915050565b600080fd5b6000819050919050565b610a7981610a66565b8114610a8457600080fd5b50565b600081359050610a9681610a70565b92915050565b600060208284031215610ab257610ab1610a61565b5b6000610ac084828501610a87565b91505092915050565b6000819050919050565b610adc81610ac9565b82525050565b6000602082019050610af76000830184610ad3565b92915050565b610b0681610a66565b82525050565b6000602082019050610b216000830184610afd565b92915050565b610b3081610a25565b8114610b3b57600080fd5b50565b600081359050610b4d81610b27565b92915050565b600060208284031215610b6957610b68610a61565b5b6000610b7784828501610b3e565b91505092915050565b60008060408385031215610b9757610b96610a61565b5b6000610ba585828601610b3e565b9250506020610bb685828601610b3e565b9150509250929050565b600081519050919050565b600081905092915050565b60005b83811015610bf4578082015181840152602081019050610bd9565b60008484015250505050565b6000610c0b82610bc0565b610c158185610bcb565b9350610c25818560208601610bd6565b80840191505092915050565b6000610c3d8284610c00565b915081905092915050565b600082825260208201905092915050565b7f5368756e61496e753a20464f5242494444454e00000000000000000000000000600082015250565b6000610c8f601383610c48565b9150610c9a82610c59565b602082019050919050565b60006020820190508181036000830152610cbe81610c82565b9050919050565b7f5368756e61496e753a204944454e544943414c5f414444524553534553000000600082015250565b6000610cfb601d83610c48565b9150610d0682610cc5565b602082019050919050565b60006020820190508181036000830152610d2a81610cee565b9050919050565b7f5368756e61496e753a205a45524f5f4144445245535300000000000000000000600082015250565b6000610d67601683610c48565b9150610d7282610d31565b602082019050919050565b60006020820190508181036000830152610d9681610d5a565b9050919050565b7f5368756e61496e753a20504149525f4558495354530000000000000000000000600082015250565b6000610dd3601583610c48565b9150610dde82610d9d565b602082019050919050565b60006020820190508181036000830152610e0281610dc6565b9050919050565b60008160601b9050919050565b6000610e2182610e09565b9050919050565b6000610e3382610e16565b9050919050565b610e4b610e4682610a25565b610e28565b82525050565b6000610e5d8285610e3a565b601482019150610e6d8284610e3a565b6014820191508190509392505050565b6000604082019050610e926000830185610a37565b610e9f6020830184610a37565b9392505050565b6000604082019050610ebb6000830185610a37565b610ec86020830184610afd565b939250505056fe60806040526001600c5534801561001557600080fd5b5060004690507f8b73c3c69bb8fe3d512ecc4cf759cc79239f7b179b0ffacaa9a75d522b39400f6040518060400160405280600981526020017f5368756e61204c50730000000000000000000000000000000000000000000000815250805190602001206040518060400160405280600181526020017f31000000000000000000000000000000000000000000000000000000000000008152508051906020012083306040516020016100cc9594939291906101a2565b604051602081830303815290604052805190602001206003819055505033600560006101000a81548173ffffffffffffffffffffffffffffffffffffffff021916908373ffffffffffffffffffffffffffffffffffffffff1602179055506101f5565b6000819050919050565b6101428161012f565b82525050565b6000819050919050565b61015b81610148565b82525050565b600073ffffffffffffffffffffffffffffffffffffffff82169050919050565b600061018c82610161565b9050919050565b61019c81610181565b82525050565b600060a0820190506101b76000830188610139565b6101c46020830187610139565b6101d16040830186610139565b6101de6060830185610152565b6101eb6080830184610193565b9695505050505050565b614045806102046000396000f3fe608060405234801561001057600080fd5b50600436106101a95760003560e01c80636a627842116100f9578063ba9a7a5611610097578063d21220a711610071578063d21220a7146104db578063d505accf146104f9578063dd62ed3e14610515578063fff6cae914610545576101a9565b8063ba9a7a5614610483578063bc25cf77146104a1578063c45a0155146104bd576101a9565b80637ecebe00116100d35780637ecebe00146103d457806389afcb441461040457806395d89b4114610435578063a9059cbb14610453576101a9565b80636a6278421461035657806370a08231146103865780637464fc3d146103b6576101a9565b806323b872dd116101665780633644e515116101405780633644e515146102e0578063485cc955146102fe5780635909c0d51461031a5780635a3d549314610338576101a9565b806323b872dd1461027457806330adf81f146102a4578063313ce567146102c2576101a9565b8063022c0d9f146101ae57806306fdde03146101ca5780630902f1ac146101e8578063095ea7b3146102085780630dfe16811461023857806318160ddd14610256575b600080fd5b6101c860048036038101906101c39190612d9f565b61054f565b005b6101d2610ba1565b6040516101df9190612eb7565b60405180910390f35b6101f0610bda565b6040516101ff93929190612f21565b60405180910390f35b610222600480360381019061021d9190612f58565b610c37565b60405161022f9190612fb3565b60405180910390f35b610240610c4e565b60405161024d9190612fdd565b60405180910390f35b61025e610c74565b60405161026b9190613007565b60405180910390f35b61028e60048036038101906102899190613022565b610c7a565b60405161029b9190612fb3565b60405180910390f35b6102ac610e45565b6040516102b9919061308e565b60405180910390f35b6102ca610e6c565b6040516102d791906130c5565b60405180910390f35b6102e8610e71565b6040516102f5919061308e565b60405180910390f35b610318600480360381019061031391906130e0565b610e77565b005b610322610f8d565b60405161032f9190613007565b60405180910390f35b610340610f93565b60405161034d9190613007565b60405180910390f35b610370600480360381019061036b9190613120565b610f99565b60405161037d9190613007565b60405180910390f35b6103a0600480360381019061039b9190613120565b611382565b6040516103ad9190613007565b60405180910390f35b6103be61139a565b6040516103cb9190613007565b60405180910390f35b6103ee60048036038101906103e99190613120565b6113a0565b6040516103fb9190613007565b60405180910390f35b61041e60048036038101906104199190613120565b6113b8565b60405161042c92919061314d565b60405180910390f35b61043d611862565b60405161044a9190612eb7565b60405180910390f35b61046d60048036038101906104689190612f58565b61189b565b60405161047a9190612fb3565b60405180910390f35b61048b6118b2565b6040516104989190613007565b60405180910390f35b6104bb60048036038101906104b69190613120565b6118b8565b005b6104c5611ae4565b6040516104d29190612fdd565b60405180910390f35b6104e3611b0a565b6040516104f09190612fdd565b60405180910390f35b610513600480360381019061050e91906131ce565b611b30565b005b61052f600480360381019061052a91906130e0565b611d58565b60405161053c9190613007565b60405180910390f35b61054d611d7d565b005b6001600c5414610594576040517f08c379a000000000000000000000000000000000000000000000000000000000815260040161058b906132bc565b60405180910390fd5b6000600c8190555060008511806105ab5750600084115b6105ea576040517f08c379a00000000000000000000000000000000000000000000000000000000081526004016105e19061334e565b60405180910390fd5b6000806105f5610bda565b5091509150816dffffffffffffffffffffffffffff16871080156106285750806dffffffffffffffffffffffffffff1686105b610667576040517f08c379a000000000000000000000000000000000000000000000000000000000815260040161065e906133ba565b60405180910390fd5b6000806000600660009054906101000a900473ffffffffffffffffffffffffffffffffffffffff1690506000600760009054906101000a900473ffffffffffffffffffffffffffffffffffffffff1690508173ffffffffffffffffffffffffffffffffffffffff168973ffffffffffffffffffffffffffffffffffffffff161415801561072057508073ffffffffffffffffffffffffffffffffffffffff168973ffffffffffffffffffffffffffffffffffffffff1614155b61075f576040517f08c379a000000000000000000000000000000000000000000000000000000000815260040161075690613426565b60405180910390fd5b60008b111561077457610773828a8d611f4e565b5b60008a111561078957610788818a8c611f4e565b5b6000888890501115610809578873ffffffffffffffffffffffffffffffffffffffff166333c838c3338d8d8c8c6040518663ffffffff1660e01b81526004016107d6959493929190613493565b600060405180830381600087803b1580156107f057600080fd5b505af1158015610804573d6000803e3d6000fd5b505050505b8173ffffffffffffffffffffffffffffffffffffffff166370a08231306040518263ffffffff1660e01b81526004016108429190612fdd565b602060405180830381865afa15801561085f573d6000803e3d6000fd5b505050506040513d601f19601f8201168201806040525081019061088391906134f6565b93508073ffffffffffffffffffffffffffffffffffffffff166370a08231306040518263ffffffff1660e01b81526004016108be9190612fdd565b602060405180830381865afa1580156108db573d6000803e3d6000fd5b505050506040513d601f19601f820116820180604052508101906108ff91906134f6565b92505050600089856dffffffffffffffffffffffffffff166109219190613552565b831161092e576000610956565b89856dffffffffffffffffffffffffffff1661094a9190613552565b836109559190613552565b5b9050600089856dffffffffffffffffffffffffffff166109769190613552565b83116109835760006109ab565b89856dffffffffffffffffffffffffffff1661099f9190613552565b836109aa9190613552565b5b905060008211806109bc5750600081115b6109fb576040517f08c379a00000000000000000000000000000000000000000000000000000000081526004016109f2906135f8565b60405180910390fd5b6000610a37610a146005856120d890919063ffffffff16565b610a296103e8886120d890919063ffffffff16565b61214590919063ffffffff16565b90506000610a75610a526005856120d890919063ffffffff16565b610a676103e8886120d890919063ffffffff16565b61214590919063ffffffff16565b9050610abf620f4240610ab1896dffffffffffffffffffffffffffff168b6dffffffffffffffffffffffffffff166120d890919063ffffffff16565b6120d890919063ffffffff16565b610ad282846120d890919063ffffffff16565b1015610b13576040517f08c379a0000000000000000000000000000000000000000000000000000000008152600401610b0a90613664565b60405180910390fd5b5050610b218484888861219e565b8873ffffffffffffffffffffffffffffffffffffffff163373ffffffffffffffffffffffffffffffffffffffff167fd78ad95fa46c994b6551d0da85fc275fe613ce37657fb8d5e3d130840159d82284848f8f604051610b849493929190613684565b60405180910390a35050505050506001600c819055505050505050565b6040518060400160405280600981526020017f5368756e61204c5073000000000000000000000000000000000000000000000081525081565b6000806000600860009054906101000a90046dffffffffffffffffffffffffffff1692506008600e9054906101000a90046dffffffffffffffffffffffffffff1691506008601c9054906101000a900463ffffffff169050909192565b6000610c443384846124d2565b6001905092915050565b600660009054906101000a900473ffffffffffffffffffffffffffffffffffffffff1681565b60005481565b60007fffffffffffffffffffffffffffffffffffffffffffffffffffffffffffffffff600260008673ffffffffffffffffffffffffffffffffffffffff1673ffffffffffffffffffffffffffffffffffffffff16815260200190815260200160002060003373ffffffffffffffffffffffffffffffffffffffff1673ffffffffffffffffffffffffffffffffffffffff1681526020019081526020016000205414610e2f57610dae82600260008773ffffffffffffffffffffffffffffffffffffffff1673ffffffffffffffffffffffffffffffffffffffff16815260200190815260200160002060003373ffffffffffffffffffffffffffffffffffffffff1673ffffffffffffffffffffffffffffffffffffffff1681526020019081526020016000205461214590919063ffffffff16565b600260008673ffffffffffffffffffffffffffffffffffffffff1673ffffffffffffffffffffffffffffffffffffffff16815260200190815260200160002060003373ffffffffffffffffffffffffffffffffffffffff1673ffffffffffffffffffffffffffffffffffffffff168152602001908152602001600020819055505b610e3a8484846125bd565b600190509392505050565b7f6e71edae12b1b97f4d1f60370fef10105fa2faae0126114a169c64845d6126c960001b81565b601281565b60035481565b600560009054906101000a900473ffffffffffffffffffffffffffffffffffffffff1673ffffffffffffffffffffffffffffffffffffffff163373ffffffffffffffffffffffffffffffffffffffff1614610f07576040517f08c379a0000000000000000000000000000000000000000000000000000000008152600401610efe90613715565b60405180910390fd5b81600660006101000a81548173ffffffffffffffffffffffffffffffffffffffff021916908373ffffffffffffffffffffffffffffffffffffffff16021790555080600760006101000a81548173ffffffffffffffffffffffffffffffffffffffff021916908373ffffffffffffffffffffffffffffffffffffffff1602179055505050565b60095481565b600a5481565b60006001600c5414610fe0576040517f08c379a0000000000000000000000000000000000000000000000000000000008152600401610fd7906132bc565b60405180910390fd5b6000600c81905550600080610ff3610bda565b50915091506000600660009054906101000a900473ffffffffffffffffffffffffffffffffffffffff1673ffffffffffffffffffffffffffffffffffffffff166370a08231306040518263ffffffff1660e01b81526004016110559190612fdd565b602060405180830381865afa158015611072573d6000803e3d6000fd5b505050506040513d601f19601f8201168201806040525081019061109691906134f6565b90506000600760009054906101000a900473ffffffffffffffffffffffffffffffffffffffff1673ffffffffffffffffffffffffffffffffffffffff166370a08231306040518263ffffffff1660e01b81526004016110f59190612fdd565b602060405180830381865afa158015611112573d6000803e3d6000fd5b505050506040513d601f19601f8201168201806040525081019061113691906134f6565b9050600061115d856dffffffffffffffffffffffffffff168461214590919063ffffffff16565b90506000611184856dffffffffffffffffffffffffffff168461214590919063ffffffff16565b905060006111928787612751565b9050600080549050600081036111e5576111d16103e86111c36111be86886120d890919063ffffffff16565b612922565b61214590919063ffffffff16565b98506111e060006103e861299c565b61124c565b611249886dffffffffffffffffffffffffffff1661120c83876120d890919063ffffffff16565b6112169190613764565b886dffffffffffffffffffffffffffff1661123a84876120d890919063ffffffff16565b6112449190613764565b612ab6565b98505b6000891161128f576040517f08c379a000000000000000000000000000000000000000000000000000000000815260040161128690613807565b60405180910390fd5b6112998a8a61299c565b6112a586868a8a61219e565b811561131d576113166008600e9054906101000a90046dffffffffffffffffffffffffffff166dffffffffffffffffffffffffffff16600860009054906101000a90046dffffffffffffffffffffffffffff166dffffffffffffffffffffffffffff166120d890919063ffffffff16565b600b819055505b3373ffffffffffffffffffffffffffffffffffffffff167f4c209b5fc8ad50758f13e2e1088ba56a560dff690a1c6fef26394f4c03821c4f858560405161136592919061314d565b60405180910390a250505050505050506001600c81905550919050565b60016020528060005260406000206000915090505481565b600b5481565b60046020528060005260406000206000915090505481565b6000806001600c5414611400576040517f08c379a00000000000000000000000000000000000000000000000000000000081526004016113f7906132bc565b60405180910390fd5b6000600c81905550600080611413610bda565b50915091506000600660009054906101000a900473ffffffffffffffffffffffffffffffffffffffff1690506000600760009054906101000a900473ffffffffffffffffffffffffffffffffffffffff16905060008273ffffffffffffffffffffffffffffffffffffffff166370a08231306040518263ffffffff1660e01b81526004016114a19190612fdd565b602060405180830381865afa1580156114be573d6000803e3d6000fd5b505050506040513d601f19601f820116820180604052508101906114e291906134f6565b905060008273ffffffffffffffffffffffffffffffffffffffff166370a08231306040518263ffffffff1660e01b815260040161151f9190612fdd565b602060405180830381865afa15801561153c573d6000803e3d6000fd5b505050506040513d601f19601f8201168201806040525081019061156091906134f6565b90506000600160003073ffffffffffffffffffffffffffffffffffffffff1673ffffffffffffffffffffffffffffffffffffffff16815260200190815260200160002054905060006115b28888612751565b9050600080549050806115ce86856120d890919063ffffffff16565b6115d89190613764565b9a50806115ee85856120d890919063ffffffff16565b6115f89190613764565b995060008b11801561160a575060008a115b611649576040517f08c379a000000000000000000000000000000000000000000000000000000000815260040161164090613899565b60405180910390fd5b6116533084612acf565b61165e878d8d611f4e565b611669868d8c611f4e565b8673ffffffffffffffffffffffffffffffffffffffff166370a08231306040518263ffffffff1660e01b81526004016116a29190612fdd565b602060405180830381865afa1580156116bf573d6000803e3d6000fd5b505050506040513d601f19601f820116820180604052508101906116e391906134f6565b94508573ffffffffffffffffffffffffffffffffffffffff166370a08231306040518263ffffffff1660e01b815260040161171e9190612fdd565b602060405180830381865afa15801561173b573d6000803e3d6000fd5b505050506040513d601f19601f8201168201806040525081019061175f91906134f6565b935061176d85858b8b61219e565b81156117e5576117de6008600e9054906101000a90046dffffffffffffffffffffffffffff166dffffffffffffffffffffffffffff16600860009054906101000a90046dffffffffffffffffffffffffffff166dffffffffffffffffffffffffffff166120d890919063ffffffff16565b600b819055505b8b73ffffffffffffffffffffffffffffffffffffffff163373ffffffffffffffffffffffffffffffffffffffff167fdccd412f0b1252819cb1fd330b93224ca42612892bb3f4f789976e6d819364968d8d60405161184492919061314d565b60405180910390a35050505050505050506001600c81905550915091565b6040518060400160405280600881526020017f5368756e612d4c5000000000000000000000000000000000000000000000000081525081565b60006118a83384846125bd565b6001905092915050565b6103e881565b6001600c54146118fd576040517f08c379a00000000000000000000000000000000000000000000000000000000081526004016118f4906132bc565b60405180910390fd5b6000600c819055506000600660009054906101000a900473ffffffffffffffffffffffffffffffffffffffff1690506000600760009054906101000a900473ffffffffffffffffffffffffffffffffffffffff169050611a158284611a10600860009054906101000a90046dffffffffffffffffffffffffffff166dffffffffffffffffffffffffffff168673ffffffffffffffffffffffffffffffffffffffff166370a08231306040518263ffffffff1660e01b81526004016119c19190612fdd565b602060405180830381865afa1580156119de573d6000803e3d6000fd5b505050506040513d601f19601f82011682018060405250810190611a0291906134f6565b61214590919063ffffffff16565b611f4e565b611ad78184611ad26008600e9054906101000a90046dffffffffffffffffffffffffffff166dffffffffffffffffffffffffffff168573ffffffffffffffffffffffffffffffffffffffff166370a08231306040518263ffffffff1660e01b8152600401611a839190612fdd565b602060405180830381865afa158015611aa0573d6000803e3d6000fd5b505050506040513d601f19601f82011682018060405250810190611ac491906134f6565b61214590919063ffffffff16565b611f4e565b50506001600c8190555050565b600560009054906101000a900473ffffffffffffffffffffffffffffffffffffffff1681565b600760009054906101000a900473ffffffffffffffffffffffffffffffffffffffff1681565b42841015611b73576040517f08c379a0000000000000000000000000000000000000000000000000000000008152600401611b6a90613905565b60405180910390fd5b60006003547f6e71edae12b1b97f4d1f60370fef10105fa2faae0126114a169c64845d6126c960001b898989600460008e73ffffffffffffffffffffffffffffffffffffffff1673ffffffffffffffffffffffffffffffffffffffff1681526020019081526020016000206000815480929190611bef90613925565b919050558a604051602001611c099695949392919061396d565b60405160208183030381529060405280519060200120604051602001611c30929190613a46565b604051602081830303815290604052805190602001209050600060018286868660405160008152602001604052604051611c6d9493929190613a7d565b6020604051602081039080840390855afa158015611c8f573d6000803e3d6000fd5b505050602060405103519050600073ffffffffffffffffffffffffffffffffffffffff168173ffffffffffffffffffffffffffffffffffffffff1614158015611d0357508873ffffffffffffffffffffffffffffffffffffffff168173ffffffffffffffffffffffffffffffffffffffff16145b611d42576040517f08c379a0000000000000000000000000000000000000000000000000000000008152600401611d3990613b0e565b60405180910390fd5b611d4d8989896124d2565b505050505050505050565b6002602052816000526040600020602052806000526040600020600091509150505481565b6001600c5414611dc2576040517f08c379a0000000000000000000000000000000000000000000000000000000008152600401611db9906132bc565b60405180910390fd5b6000600c81905550611f44600660009054906101000a900473ffffffffffffffffffffffffffffffffffffffff1673ffffffffffffffffffffffffffffffffffffffff166370a08231306040518263ffffffff1660e01b8152600401611e289190612fdd565b602060405180830381865afa158015611e45573d6000803e3d6000fd5b505050506040513d601f19601f82011682018060405250810190611e6991906134f6565b600760009054906101000a900473ffffffffffffffffffffffffffffffffffffffff1673ffffffffffffffffffffffffffffffffffffffff166370a08231306040518263ffffffff1660e01b8152600401611ec49190612fdd565b602060405180830381865afa158015611ee1573d6000803e3d6000fd5b505050506040513d601f19601f82011682018060405250810190611f0591906134f6565b600860009054906101000a90046dffffffffffffffffffffffffffff166008600e9054906101000a90046dffffffffffffffffffffffffffff1661219e565b6001600c81905550565b6000808473ffffffffffffffffffffffffffffffffffffffff166040518060400160405280601981526020017f7472616e7366657228616464726573732c75696e743235362900000000000000815250805190602001208585604051602401611fb8929190613b2e565b604051602081830303815290604052907bffffffffffffffffffffffffffffffffffffffffffffffffffffffff19166020820180517bffffffffffffffffffffffffffffffffffffffffffffffffffffffff83818316178352505050506040516120229190613b9e565b6000604051808303816000865af19150503d806000811461205f576040519150601f19603f3d011682016040523d82523d6000602084013e612064565b606091505b509150915081801561209257506000815114806120915750808060200190518101906120909190613be1565b5b5b6120d1576040517f08c379a00000000000000000000000000000000000000000000000000000000081526004016120c890613c5a565b60405180910390fd5b5050505050565b6000808214806121005750828283856120f19190613c7a565b9250826120fe9190613764565b145b61213f576040517f08c379a000000000000000000000000000000000000000000000000000000000815260040161213690613d08565b60405180910390fd5b92915050565b60008282846121549190613552565b9150811115612198576040517f08c379a000000000000000000000000000000000000000000000000000000000815260040161218f90613d74565b60405180910390fd5b92915050565b7fffffffffffffffffffffffffffffffffffffffffffffffffffffffffffffffff6dffffffffffffffffffffffffffff16841115801561220e57507fffffffffffffffffffffffffffffffffffffffffffffffffffffffffffffffff6dffffffffffffffffffffffffffff168311155b61224d576040517f08c379a000000000000000000000000000000000000000000000000000000000815260040161224490613de0565b60405180910390fd5b6000640100000000426122609190613e00565b905060006008601c9054906101000a900463ffffffff16826122829190613e31565b905060008163ffffffff161180156122ab57506000846dffffffffffffffffffffffffffff1614155b80156122c857506000836dffffffffffffffffffffffffffff1614155b156123ce578063ffffffff1661230d856122e186612be9565b7bffffffffffffffffffffffffffffffffffffffffffffffffffffffff16612c1d90919063ffffffff16565b7bffffffffffffffffffffffffffffffffffffffffffffffffffffffff166123359190613c7a565b600960008282546123469190613e69565b925050819055508063ffffffff1661238d8461236187612be9565b7bffffffffffffffffffffffffffffffffffffffffffffffffffffffff16612c1d90919063ffffffff16565b7bffffffffffffffffffffffffffffffffffffffffffffffffffffffff166123b59190613c7a565b600a60008282546123c69190613e69565b925050819055505b85600860006101000a8154816dffffffffffffffffffffffffffff02191690836dffffffffffffffffffffffffffff160217905550846008600e6101000a8154816dffffffffffffffffffffffffffff02191690836dffffffffffffffffffffffffffff160217905550816008601c6101000a81548163ffffffff021916908363ffffffff1602179055507f1c411e9a96e071241c2f21f7726b17ae89e3cab4c78be50e062b03a9fffbbad1600860009054906101000a90046dffffffffffffffffffffffffffff166008600e9054906101000a90046dffffffffffffffffffffffffffff166040516124c2929190613e9d565b60405180910390a1505050505050565b80600260008573ffffffffffffffffffffffffffffffffffffffff1673ffffffffffffffffffffffffffffffffffffffff16815260200190815260200160002060008473ffffffffffffffffffffffffffffffffffffffff1673ffffffffffffffffffffffffffffffffffffffff168152602001908152602001600020819055508173ffffffffffffffffffffffffffffffffffffffff168373ffffffffffffffffffffffffffffffffffffffff167f8c5be1e5ebec7d5bd14f71427d1e84f3dd0314c0f7b2291e5b200ac8c7c3b925836040516125b09190613007565b60405180910390a3505050565b61260f81600160008673ffffffffffffffffffffffffffffffffffffffff1673ffffffffffffffffffffffffffffffffffffffff1681526020019081526020016000205461214590919063ffffffff16565b600160008573ffffffffffffffffffffffffffffffffffffffff1673ffffffffffffffffffffffffffffffffffffffff168152602001908152602001600020819055506126a481600160008573ffffffffffffffffffffffffffffffffffffffff1673ffffffffffffffffffffffffffffffffffffffff16815260200190815260200160002054612c4390919063ffffffff16565b600160008473ffffffffffffffffffffffffffffffffffffffff1673ffffffffffffffffffffffffffffffffffffffff168152602001908152602001600020819055508173ffffffffffffffffffffffffffffffffffffffff168373ffffffffffffffffffffffffffffffffffffffff167fddf252ad1be2c89b69c2b068fc378daa952ba7f163c4a11628f55a4df523b3ef836040516127449190613007565b60405180910390a3505050565b600080600560009054906101000a900473ffffffffffffffffffffffffffffffffffffffff1673ffffffffffffffffffffffffffffffffffffffff1663017e7e586040518163ffffffff1660e01b8152600401602060405180830381865afa1580156127c1573d6000803e3d6000fd5b505050506040513d601f19601f820116820180604052508101906127e59190613edb565b9050600073ffffffffffffffffffffffffffffffffffffffff168173ffffffffffffffffffffffffffffffffffffffff16141591506000600b5490508215612908576000811461290357600061286c612867866dffffffffffffffffffffffffffff16886dffffffffffffffffffffffffffff166120d890919063ffffffff16565b612922565b9050600061287983612922565b9050808211156129005760006128ac61289b838561214590919063ffffffff16565b6000546120d890919063ffffffff16565b905060006128d6836128c86005876120d890919063ffffffff16565b612c4390919063ffffffff16565b9050600081836128e69190613764565b905060008111156128fc576128fb878261299c565b5b5050505b50505b61291a565b60008114612919576000600b819055505b5b505092915050565b6000600382111561298957819050600060016002846129419190613764565b61294b9190613e69565b90505b818110156129835780915060028182856129689190613764565b6129729190613e69565b61297c9190613764565b905061294e565b50612997565b6000821461299657600190505b5b919050565b6129b181600054612c4390919063ffffffff16565b600081905550612a0981600160008573ffffffffffffffffffffffffffffffffffffffff1673ffffffffffffffffffffffffffffffffffffffff16815260200190815260200160002054612c4390919063ffffffff16565b600160008473ffffffffffffffffffffffffffffffffffffffff1673ffffffffffffffffffffffffffffffffffffffff168152602001908152602001600020819055508173ffffffffffffffffffffffffffffffffffffffff16600073ffffffffffffffffffffffffffffffffffffffff167fddf252ad1be2c89b69c2b068fc378daa952ba7f163c4a11628f55a4df523b3ef83604051612aaa9190613007565b60405180910390a35050565b6000818310612ac55781612ac7565b825b905092915050565b612b2181600160008573ffffffffffffffffffffffffffffffffffffffff1673ffffffffffffffffffffffffffffffffffffffff1681526020019081526020016000205461214590919063ffffffff16565b600160008473ffffffffffffffffffffffffffffffffffffffff1673ffffffffffffffffffffffffffffffffffffffff16815260200190815260200160002081905550612b798160005461214590919063ffffffff16565b600081905550600073ffffffffffffffffffffffffffffffffffffffff168273ffffffffffffffffffffffffffffffffffffffff167fddf252ad1be2c89b69c2b068fc378daa952ba7f163c4a11628f55a4df523b3ef83604051612bdd9190613007565b60405180910390a35050565b60006e010000000000000000000000000000826dffffffffffffffffffffffffffff16612c169190613f30565b9050919050565b6000816dffffffffffffffffffffffffffff1683612c3b9190613f72565b905092915050565b6000828284612c529190613e69565b9150811015612c96576040517f08c379a0000000000000000000000000000000000000000000000000000000008152600401612c8d90613fef565b60405180910390fd5b92915050565b600080fd5b600080fd5b6000819050919050565b612cb981612ca6565b8114612cc457600080fd5b50565b600081359050612cd681612cb0565b92915050565b600073ffffffffffffffffffffffffffffffffffffffff82169050919050565b6000612d0782612cdc565b9050919050565b612d1781612cfc565b8114612d2257600080fd5b50565b600081359050612d3481612d0e565b92915050565b600080fd5b600080fd5b600080fd5b60008083601f840112612d5f57612d5e612d3a565b5b8235905067ffffffffffffffff811115612d7c57612d7b612d3f565b5b602083019150836001820283011115612d9857612d97612d44565b5b9250929050565b600080600080600060808688031215612dbb57612dba612c9c565b5b6000612dc988828901612cc7565b9550506020612dda88828901612cc7565b9450506040612deb88828901612d25565b935050606086013567ffffffffffffffff811115612e0c57612e0b612ca1565b5b612e1888828901612d49565b92509250509295509295909350565b600081519050919050565b600082825260208201905092915050565b60005b83811015612e61578082015181840152602081019050612e46565b60008484015250505050565b6000601f19601f8301169050919050565b6000612e8982612e27565b612e938185612e32565b9350612ea3818560208601612e43565b612eac81612e6d565b840191505092915050565b60006020820190508181036000830152612ed18184612e7e565b905092915050565b60006dffffffffffffffffffffffffffff82169050919050565b612efc81612ed9565b82525050565b600063ffffffff82169050919050565b612f1b81612f02565b82525050565b6000606082019050612f366000830186612ef3565b612f436020830185612ef3565b612f506040830184612f12565b949350505050565b60008060408385031215612f6f57612f6e612c9c565b5b6000612f7d85828601612d25565b9250506020612f8e85828601612cc7565b9150509250929050565b60008115159050919050565b612fad81612f98565b82525050565b6000602082019050612fc86000830184612fa4565b92915050565b612fd781612cfc565b82525050565b6000602082019050612ff26000830184612fce565b92915050565b61300181612ca6565b82525050565b600060208201905061301c6000830184612ff8565b92915050565b60008060006060848603121561303b5761303a612c9c565b5b600061304986828701612d25565b935050602061305a86828701612d25565b925050604061306b86828701612cc7565b9150509250925092565b6000819050919050565b61308881613075565b82525050565b60006020820190506130a3600083018461307f565b92915050565b600060ff82169050919050565b6130bf816130a9565b82525050565b60006020820190506130da60008301846130b6565b92915050565b600080604083850312156130f7576130f6612c9c565b5b600061310585828601612d25565b925050602061311685828601612d25565b9150509250929050565b60006020828403121561313657613135612c9c565b5b600061314484828501612d25565b91505092915050565b60006040820190506131626000830185612ff8565b61316f6020830184612ff8565b9392505050565b61317f816130a9565b811461318a57600080fd5b50565b60008135905061319c81613176565b92915050565b6131ab81613075565b81146131b657600080fd5b50565b6000813590506131c8816131a2565b92915050565b600080600080600080600060e0888a0312156131ed576131ec612c9c565b5b60006131fb8a828b01612d25565b975050602061320c8a828b01612d25565b965050604061321d8a828b01612cc7565b955050606061322e8a828b01612cc7565b945050608061323f8a828b0161318d565b93505060a06132508a828b016131b9565b92505060c06132618a828b016131b9565b91505092959891949750929550565b7f5368756e61496e753a204c4f434b454400000000000000000000000000000000600082015250565b60006132a6601083612e32565b91506132b182613270565b602082019050919050565b600060208201905081810360008301526132d581613299565b9050919050565b7f5368756e61496e753a20494e53554646494349454e545f4f55545055545f414d60008201527f4f554e5400000000000000000000000000000000000000000000000000000000602082015250565b6000613338602483612e32565b9150613343826132dc565b604082019050919050565b600060208201905081810360008301526133678161332b565b9050919050565b7f5368756e61496e753a20494e53554646494349454e545f4c4951554944495459600082015250565b60006133a4602083612e32565b91506133af8261336e565b602082019050919050565b600060208201905081810360008301526133d381613397565b9050919050565b7f5368756e61496e753a20494e56414c49445f544f000000000000000000000000600082015250565b6000613410601483612e32565b915061341b826133da565b602082019050919050565b6000602082019050818103600083015261343f81613403565b9050919050565b600082825260208201905092915050565b82818337600083830152505050565b60006134728385613446565b935061347f838584613457565b61348883612e6d565b840190509392505050565b60006080820190506134a86000830188612fce565b6134b56020830187612ff8565b6134c26040830186612ff8565b81810360608301526134d5818486613466565b90509695505050505050565b6000815190506134f081612cb0565b92915050565b60006020828403121561350c5761350b612c9c565b5b600061351a848285016134e1565b91505092915050565b7f4e487b7100000000000000000000000000000000000000000000000000000000600052601160045260246000fd5b600061355d82612ca6565b915061356883612ca6565b92508282039050818111156135805761357f613523565b5b92915050565b7f5368756e61496e753a20494e53554646494349454e545f494e5055545f414d4f60008201527f554e540000000000000000000000000000000000000000000000000000000000602082015250565b60006135e2602383612e32565b91506135ed82613586565b604082019050919050565b60006020820190508181036000830152613611816135d5565b9050919050565b7f5368756e61496e753a204b000000000000000000000000000000000000000000600082015250565b600061364e600b83612e32565b915061365982613618565b602082019050919050565b6000602082019050818103600083015261367d81613641565b9050919050565b60006080820190506136996000830187612ff8565b6136a66020830186612ff8565b6136b36040830185612ff8565b6136c06060830184612ff8565b95945050505050565b7f5368756e61496e753a20464f5242494444454e00000000000000000000000000600082015250565b60006136ff601383612e32565b915061370a826136c9565b602082019050919050565b6000602082019050818103600083015261372e816136f2565b9050919050565b7f4e487b7100000000000000000000000000000000000000000000000000000000600052601260045260246000fd5b600061376f82612ca6565b915061377a83612ca6565b92508261378a57613789613735565b5b828204905092915050565b7f5368756e61496e753a20494e53554646494349454e545f4c495155494449545960008201527f5f4d494e54454400000000000000000000000000000000000000000000000000602082015250565b60006137f1602783612e32565b91506137fc82613795565b604082019050919050565b60006020820190508181036000830152613820816137e4565b9050919050565b7f5368756e61496e753a20494e53554646494349454e545f4c495155494449545960008201527f5f4255524e454400000000000000000000000000000000000000000000000000602082015250565b6000613883602783612e32565b915061388e82613827565b604082019050919050565b600060208201905081810360008301526138b281613876565b9050919050565b7f5368756e61496e753a2045585049524544000000000000000000000000000000600082015250565b60006138ef601183612e32565b91506138fa826138b9565b602082019050919050565b6000602082019050818103600083015261391e816138e2565b9050919050565b600061393082612ca6565b91507fffffffffffffffffffffffffffffffffffffffffffffffffffffffffffffffff820361396257613961613523565b5b600182019050919050565b600060c082019050613982600083018961307f565b61398f6020830188612fce565b61399c6040830187612fce565b6139a96060830186612ff8565b6139b66080830185612ff8565b6139c360a0830184612ff8565b979650505050505050565b600081905092915050565b7f1901000000000000000000000000000000000000000000000000000000000000600082015250565b6000613a0f6002836139ce565b9150613a1a826139d9565b600282019050919050565b6000819050919050565b613a40613a3b82613075565b613a25565b82525050565b6000613a5182613a02565b9150613a5d8285613a2f565b602082019150613a6d8284613a2f565b6020820191508190509392505050565b6000608082019050613a92600083018761307f565b613a9f60208301866130b6565b613aac604083018561307f565b613ab9606083018461307f565b95945050505050565b7f5368756e61496e753a20494e56414c49445f5349474e41545552450000000000600082015250565b6000613af8601b83612e32565b9150613b0382613ac2565b602082019050919050565b60006020820190508181036000830152613b2781613aeb565b9050919050565b6000604082019050613b436000830185612fce565b613b506020830184612ff8565b9392505050565b600081519050919050565b600081905092915050565b6000613b7882613b57565b613b828185613b62565b9350613b92818560208601612e43565b80840191505092915050565b6000613baa8284613b6d565b915081905092915050565b613bbe81612f98565b8114613bc957600080fd5b50565b600081519050613bdb81613bb5565b92915050565b600060208284031215613bf757613bf6612c9c565b5b6000613c0584828501613bcc565b91505092915050565b7f5368756e61496e753a205452414e534645525f4641494c454400000000000000600082015250565b6000613c44601983612e32565b9150613c4f82613c0e565b602082019050919050565b60006020820190508181036000830152613c7381613c37565b9050919050565b6000613c8582612ca6565b9150613c9083612ca6565b9250828202613c9e81612ca6565b91508282048414831517613cb557613cb4613523565b5b5092915050565b7f64732d6d6174682d6d756c2d6f766572666c6f77000000000000000000000000600082015250565b6000613cf2601483612e32565b9150613cfd82613cbc565b602082019050919050565b60006020820190508181036000830152613d2181613ce5565b9050919050565b7f64732d6d6174682d7375622d756e646572666c6f770000000000000000000000600082015250565b6000613d5e601583612e32565b9150613d6982613d28565b602082019050919050565b60006020820190508181036000830152613d8d81613d51565b9050919050565b7f5368756e61496e753a204f564552464c4f570000000000000000000000000000600082015250565b6000613dca601283612e32565b9150613dd582613d94565b602082019050919050565b60006020820190508181036000830152613df981613dbd565b9050919050565b6000613e0b82612ca6565b9150613e1683612ca6565b925082613e2657613e25613735565b5b828206905092915050565b6000613e3c82612f02565b9150613e4783612f02565b9250828203905063ffffffff811115613e6357613e62613523565b5b92915050565b6000613e7482612ca6565b9150613e7f83612ca6565b9250828201905080821115613e9757613e96613523565b5b92915050565b6000604082019050613eb26000830185612ef3565b613ebf6020830184612ef3565b9392505050565b600081519050613ed581612d0e565b92915050565b600060208284031215613ef157613ef0612c9c565b5b6000613eff84828501613ec6565b91505092915050565b60007bffffffffffffffffffffffffffffffffffffffffffffffffffffffff82169050919050565b6000613f3b82613f08565b9150613f4683613f08565b9250828202613f5481613f08565b91508282048414831517613f6b57613f6a613523565b5b5092915050565b6000613f7d82613f08565b9150613f8883613f08565b925082613f9857613f97613735565b5b828204905092915050565b7f64732d6d6174682d6164642d6f766572666c6f77000000000000000000000000600082015250565b6000613fd9601483612e32565b9150613fe482613fa3565b602082019050919050565b6000602082019050818103600083015261400881613fcc565b905091905056fea2646970667358221220bcbd6c823b7abc5ad339388cbff4bc07e8ed897a1db2c0852dea4801937dc69c64736f6c634300081b0033a264697066735822122022016cf606f6853195133057a836199847eba5f3d3623ce2a8de3c3604afbadf64736f6c634300081b0033",
  "linkReferences": {},
  "deployedLinkReferences": {}
}