{
  "_format": "hh-sol-artifact-1",
  "contractName": "ShunaRouter",
  "sourceName": "contracts/ShunaRouter.sol",
  "abi": [
    {
      "inputs": [
        {
          "internalType": "address",
          "name": "_factory",
          "type": "address"
        },
        {
          "internalType": "address",
          "name": "_WETH",
          "type": "address"
        }
      ],
      "stateMutability": "nonpayable",
      "type": "constructor"
    },
    {
      "inputs": [],
      "name": "WETH",
      "outputs": [
        {
          "internalType": "address",
          "name": "",
          "type": "address"
        }
      ],
      "stateMutability": "view",
      "type": "function"
    },
    {
      "inputs": [
        {
          "internalType": "address",
          "name": "tokenA",
          "type": "address"
        },
        {
          "internalType": "address",
          "name": "tokenB",
          "type": "address"
        },
        {
          "internalType": "uint256",
          "name": "amountADesired",
          "type": "uint256"
        },
        {
          "internalType": "uint256",
          "name": "amountBDesired",
          "type": "uint256"
        },
        {
          "internalType": "uint256",
          "name": "amountAMin",
          "type": "uint256"
        },
        {
          "internalType": "uint256",
          "name": "amountBMin",
          "type": "uint256"
        },
        {
          "internalType": "address",
          "name": "to",
          "type": "address"
        },
        {
          "internalType": "uint256",
          "name": "deadline",
          "type": "uint256"
        }
      ],
      "name": "addLiquidity",
      "outputs": [
        {
          "internalType": "uint256",
          "name": "amountA",
          "type": "uint256"
        },
        {
          "internalType": "uint256",
          "name": "amountB",
          "type": "uint256"
        },
        {
          "internalType": "uint256",
          "name": "liquidity",
          "type": "uint256"
        }
      ],
      "stateMutability": "nonpayable",
      "type": "function"
    },
    {
      "inputs": [
        {
          "internalType": "address",
          "name": "token",
          "type": "address"
        },
        {
          "internalType": "uint256",
          "name": "amountTokenDesired",
          "type": "uint256"
        },
        {
          "internalType": "uint256",
          "name": "amountTokenMin",
          "type": "uint256"
        },
        {
          "internalType": "uint256",
          "name": "amountETHMin",
          "type": "uint256"
        },
        {
          "internalType": "address",
          "name": "to",
          "type": "address"
        },
        {
          "internalType": "uint256",
          "name": "deadline",
          "type": "uint256"
        }
      ],
      "name": "addLiquidityETH",
      "outputs": [
        {
          "internalType": "uint256",
          "name": "amountToken",
          "type": "uint256"
        },
        {
          "internalType": "uint256",
          "name": "amountETH",
          "type": "uint256"
        },
        {
          "internalType": "uint256",
          "name": "liquidity",
          "type": "uint256"
        }
      ],
      "stateMutability": "payable",
      "type": "function"
    },
    {
      "inputs": [],
      "name": "factory",
      "outputs": [
        {
          "internalType": "address",
          "name": "",
          "type": "address"
        }
      ],
      "stateMutability": "view",
      "type": "function"
    },
    {
      "inputs": [
        {
          "internalType": "address",
          "name": "tokenA",
          "type": "address"
        },
        {
          "internalType": "address",
          "name": "tokenB",
          "type": "address"
        },
        {
          "internalType": "uint256",
          "name": "liquidity",
          "type": "uint256"
        },
        {
          "internalType": "uint256",
          "name": "amountAMin",
          "type": "uint256"
        },
        {
          "internalType": "uint256",
          "name": "amountBMin",
          "type": "uint256"
        },
        {
          "internalType": "address",
          "name": "to",
          "type": "address"
        },
        {
          "internalType": "uint256",
          "name": "deadline",
          "type": "uint256"
        }
      ],
      "name": "removeLiquidity",
      "outputs": [
        {
          "internalType": "uint256",
          "name": "amountA",
          "type": "uint256"
        },
        {
          "internalType": "uint256",
          "name": "amountB",
          "type": "uint256"
        }
      ],
      "stateMutability": "nonpayable",
      "type": "function"
    },
    {
      "inputs": [
        {
          "internalType": "address",
          "name": "token",
          "type": "address"
        },
        {
          "internalType": "uint256",
          "name": "liquidity",
          "type": "uint256"
        },
        {
          "internalType": "uint256",
          "name": "amountTokenMin",
          "type": "uint256"
        },
        {
          "internalType": "uint256",
          "name": "amountETHMin",
          "type": "uint256"
        },
        {
          "internalType": "address",
          "name": "to",
          "type": "address"
        },
        {
          "internalType": "uint256",
          "name": "deadline",
          "type": "uint256"
        }
      ],
      "name": "removeLiquidityETH",
      "outputs": [
        {
          "internalType": "uint256",
          "name": "amountToken",
          "type": "uint256"
        },
        {
          "internalType": "uint256",
          "name": "amountETH",
          "type": "uint256"
        }
      ],
      "stateMutability": "nonpayable",
      "type": "function"
    },
    {
      "inputs": [
        {
          "internalType": "uint256",
          "name": "amountOutMin",
          "type": "uint256"
        },
        {
          "internalType": "address[]",
          "name": "path",
          "type": "address[]"
        },
        {
          "internalType": "address",
          "name": "to",
          "type": "address"
        },
        {
          "internalType": "uint256",
          "name": "deadline",
          "type": "uint256"
        }
      ],
      "name": "swapExactETHForTokens",
      "outputs": [
        {
          "internalType": "uint256[]",
          "name": "amounts",
          "type": "uint256[]"
        }
      ],
      "stateMutability": "payable",
      "type": "function"
    },
    {
      "inputs": [
        {
          "internalType": "uint256",
          "name": "amountIn",
          "type": "uint256"
        },
        {
          "internalType": "uint256",
          "name": "amountOutMin",
          "type": "uint256"
        },
        {
          "internalType": "address[]",
          "name": "path",
          "type": "address[]"
        },
        {
          "internalType": "address",
          "name": "to",
          "type": "address"
        },
        {
          "internalType": "uint256",
          "name": "deadline",
          "type": "uint256"
        }
      ],
      "name": "swapExactTokensForETH",
      "outputs": [
        {
          "internalType": "uint256[]",
          "name": "amounts",
          "type": "uint256[]"
        }
      ],
      "stateMutability": "nonpayable",
      "type": "function"
    },
    {
      "inputs": [
        {
          "internalType": "uint256",
          "name": "amountIn",
          "type": "uint256"
        },
        {
          "internalType": "uint256",
          "name": "amountOutMin",
          "type": "uint256"
        },
        {
          "internalType": "address[]",
          "name": "path",
          "type": "address[]"
        },
        {
          "internalType": "address",
          "name": "to",
          "type": "address"
        },
        {
          "internalType": "uint256",
          "name": "deadline",
          "type": "uint256"
        }
      ],
      "name": "swapExactTokensForTokens",
      "outputs": [
        {
          "internalType": "uint256[]",
          "name": "amounts",
          "type": "uint256[]"
        }
      ],
      "stateMutability": "nonpayable",
      "type": "function"
    },
    {
      "stateMutability": "payable",
      "type": "receive"
    }
  ],
  "bytecode": "0x60c060405234801561001057600080fd5b50604051613b01380380613b0183398181016040528101906100329190610104565b8173ffffffffffffffffffffffffffffffffffffffff1660808173ffffffffffffffffffffffffffffffffffffffff16815250508073ffffffffffffffffffffffffffffffffffffffff1660a08173ffffffffffffffffffffffffffffffffffffffff16815250505050610144565b600080fd5b600073ffffffffffffffffffffffffffffffffffffffff82169050919050565b60006100d1826100a6565b9050919050565b6100e1816100c6565b81146100ec57600080fd5b50565b6000815190506100fe816100d8565b92915050565b6000806040838503121561011b5761011a6100a1565b5b6000610129858286016100ef565b925050602061013a858286016100ef565b9150509250929050565b60805160a0516138e361021e6000396000818160910152818161032c0152818161036a015281816104510152818161070201528181610a7401528181610c0201528181610c9e01528181610e34015281816110eb015281816111440152818161117801526111f90152600081816105180152818161061d015281816108390152818161093e01528181610b2d01528181610cdd01528181610f4601528181610fce01528181611122015281816119b401528181611a0801528181611b0f01528181611cb401528181611d6b0152611e1101526138e36000f3fe60806040526004361061008a5760003560e01c8063ad5c464811610059578063ad5c4648146101da578063baa2abde14610205578063c45a015514610243578063e8e337001461026e578063f305d719146102ad576100ed565b806302751cec146100f257806318cbafe51461013057806338ed17391461016d5780637ff36ab5146101aa576100ed565b366100ed577f000000000000000000000000000000000000000000000000000000000000000073ffffffffffffffffffffffffffffffffffffffff163373ffffffffffffffffffffffffffffffffffffffff16146100eb576100ea6123e1565b5b005b600080fd5b3480156100fe57600080fd5b50610119600480360381019061011491906124ae565b6102df565b60405161012792919061254a565b60405180910390f35b34801561013c57600080fd5b50610157600480360381019061015291906125d8565b610409565b6040516101649190612730565b60405180910390f35b34801561017957600080fd5b50610194600480360381019061018f91906125d8565b6107ee565b6040516101a19190612730565b60405180910390f35b6101c460048036038101906101bf9190612752565b610a2c565b6040516101d19190612730565b60405180910390f35b3480156101e657600080fd5b506101ef610e32565b6040516101fc91906127e9565b60405180910390f35b34801561021157600080fd5b5061022c60048036038101906102279190612804565b610e56565b60405161023a92919061254a565b60405180910390f35b34801561024f57600080fd5b50610258610f44565b60405161026591906127e9565b60405180910390f35b34801561027a57600080fd5b50610295600480360381019061029091906128a6565b610f68565b6040516102a49392919061295c565b60405180910390f35b6102c760048036038101906102c291906124ae565b61109c565b6040516102d69392919061295c565b60405180910390f35b6000808242811015610326576040517f08c379a000000000000000000000000000000000000000000000000000000000815260040161031d906129f0565b60405180910390fd5b610355897f00000000000000000000000000000000000000000000000000000000000000008a8a8a308a610e56565b809350819450505061036889868561134c565b7f000000000000000000000000000000000000000000000000000000000000000073ffffffffffffffffffffffffffffffffffffffff16632e1a7d4d836040518263ffffffff1660e01b81526004016103c19190612a10565b600060405180830381600087803b1580156103db57600080fd5b505af11580156103ef573d6000803e3d6000fd5b505050506103fd8583611482565b50965096945050505050565b6060814281101561044f576040517f08c379a0000000000000000000000000000000000000000000000000000000008152600401610446906129f0565b60405180910390fd5b7f000000000000000000000000000000000000000000000000000000000000000073ffffffffffffffffffffffffffffffffffffffff1686866001898990506104989190612a5a565b8181106104a8576104a7612a8e565b5b90506020020160208101906104bd9190612abd565b73ffffffffffffffffffffffffffffffffffffffff1614610513576040517f08c379a000000000000000000000000000000000000000000000000000000000815260040161050a90612b36565b60405180910390fd5b61057f7f000000000000000000000000000000000000000000000000000000000000000089888880806020026020016040519081016040528093929190818152602001838360200280828437600081840152601f19601f82011690508083019250505050505050611582565b91508682600184516105919190612a5a565b815181106105a2576105a1612a8e565b5b602002602001015110156105eb576040517f08c379a00000000000000000000000000000000000000000000000000000000081526004016105e290612bc8565b60405180910390fd5b6106b48686600081811061060257610601612a8e565b5b90506020020160208101906106179190612abd565b336106937f00000000000000000000000000000000000000000000000000000000000000008a8a60008181106106505761064f612a8e565b5b90506020020160208101906106659190612abd565b8b8b600181811061067957610678612a8e565b5b905060200201602081019061068e9190612abd565b611707565b856000815181106106a7576106a6612a8e565b5b6020026020010151611779565b61070082878780806020026020016040519081016040528093929190818152602001838360200280828437600081840152601f19601f82011690508083019250505050505050306118b2565b7f000000000000000000000000000000000000000000000000000000000000000073ffffffffffffffffffffffffffffffffffffffff16632e1a7d4d836001855161074b9190612a5a565b8151811061075c5761075b612a8e565b5b60200260200101516040518263ffffffff1660e01b81526004016107809190612a10565b600060405180830381600087803b15801561079a57600080fd5b505af11580156107ae573d6000803e3d6000fd5b505050506107e38483600185516107c59190612a5a565b815181106107d6576107d5612a8e565b5b6020026020010151611482565b509695505050505050565b60608142811015610834576040517f08c379a000000000000000000000000000000000000000000000000000000000815260040161082b906129f0565b60405180910390fd5b6108a07f000000000000000000000000000000000000000000000000000000000000000089888880806020026020016040519081016040528093929190818152602001838360200280828437600081840152601f19601f82011690508083019250505050505050611582565b91508682600184516108b29190612a5a565b815181106108c3576108c2612a8e565b5b6020026020010151101561090c576040517f08c379a000000000000000000000000000000000000000000000000000000000815260040161090390612bc8565b60405180910390fd5b6109d58686600081811061092357610922612a8e565b5b90506020020160208101906109389190612abd565b336109b47f00000000000000000000000000000000000000000000000000000000000000008a8a600081811061097157610970612a8e565b5b90506020020160208101906109869190612abd565b8b8b600181811061099a57610999612a8e565b5b90506020020160208101906109af9190612abd565b611707565b856000815181106109c8576109c7612a8e565b5b6020026020010151611779565b610a2182878780806020026020016040519081016040528093929190818152602001838360200280828437600081840152601f19601f82011690508083019250505050505050866118b2565b509695505050505050565b60608142811015610a72576040517f08c379a0000000000000000000000000000000000000000000000000000000008152600401610a69906129f0565b60405180910390fd5b7f000000000000000000000000000000000000000000000000000000000000000073ffffffffffffffffffffffffffffffffffffffff1686866000818110610abd57610abc612a8e565b5b9050602002016020810190610ad29190612abd565b73ffffffffffffffffffffffffffffffffffffffff1614610b28576040517f08c379a0000000000000000000000000000000000000000000000000000000008152600401610b1f90612b36565b60405180910390fd5b610b947f000000000000000000000000000000000000000000000000000000000000000034888880806020026020016040519081016040528093929190818152602001838360200280828437600081840152601f19601f82011690508083019250505050505050611582565b9150868260018451610ba69190612a5a565b81518110610bb757610bb6612a8e565b5b60200260200101511015610c00576040517f08c379a0000000000000000000000000000000000000000000000000000000008152600401610bf790612bc8565b60405180910390fd5b7f000000000000000000000000000000000000000000000000000000000000000073ffffffffffffffffffffffffffffffffffffffff1663d0e30db083600081518110610c5057610c4f612a8e565b5b60200260200101516040518263ffffffff1660e01b81526004016000604051808303818588803b158015610c8357600080fd5b505af1158015610c97573d6000803e3d6000fd5b50505050507f000000000000000000000000000000000000000000000000000000000000000073ffffffffffffffffffffffffffffffffffffffff1663a9059cbb610d537f000000000000000000000000000000000000000000000000000000000000000089896000818110610d1057610d0f612a8e565b5b9050602002016020810190610d259190612abd565b8a8a6001818110610d3957610d38612a8e565b5b9050602002016020810190610d4e9190612abd565b611707565b84600081518110610d6757610d66612a8e565b5b60200260200101516040518363ffffffff1660e01b8152600401610d8c929190612be8565b6020604051808303816000875af1158015610dab573d6000803e3d6000fd5b505050506040513d601f19601f82011682018060405250810190610dcf9190612c49565b610ddc57610ddb6123e1565b5b610e2882878780806020026020016040519081016040528093929190818152602001838360200280828437600081840152601f19601f82011690508083019250505050505050866118b2565b5095945050505050565b7f000000000000000000000000000000000000000000000000000000000000000081565b6000808242811015610e9d576040517f08c379a0000000000000000000000000000000000000000000000000000000008152600401610e94906129f0565b60405180910390fd5b610ea98a8a8a88611b05565b809350819450505086831015610ef4576040517f08c379a0000000000000000000000000000000000000000000000000000000008152600401610eeb90612cc2565b60405180910390fd5b85821015610f37576040517f08c379a0000000000000000000000000000000000000000000000000000000008152600401610f2e90612d2e565b60405180910390fd5b5097509795505050505050565b7f000000000000000000000000000000000000000000000000000000000000000081565b60008060008342811015610fb1576040517f08c379a0000000000000000000000000000000000000000000000000000000008152600401610fa8906129f0565b60405180910390fd5b610fbf8c8c8c8c8c8c611c97565b80945081955050506000610ff47f00000000000000000000000000000000000000000000000000000000000000008e8e611707565b90506110028d338388611779565b61100e8c338387611779565b8073ffffffffffffffffffffffffffffffffffffffff16636a627842886040518263ffffffff1660e01b815260040161104791906127e9565b6020604051808303816000875af1158015611066573d6000803e3d6000fd5b505050506040513d601f19601f8201168201806040525081019061108a9190612d63565b92505050985098509895505050505050565b600080600083428110156110e5576040517f08c379a00000000000000000000000000000000000000000000000000000000081526004016110dc906129f0565b60405180910390fd5b6111138a7f00000000000000000000000000000000000000000000000000000000000000008b348c8c611c97565b809450819550505060006111687f00000000000000000000000000000000000000000000000000000000000000008c7f0000000000000000000000000000000000000000000000000000000000000000611707565b90506111768b338388611779565b7f000000000000000000000000000000000000000000000000000000000000000073ffffffffffffffffffffffffffffffffffffffff1663d0e30db0856040518263ffffffff1660e01b81526004016000604051808303818588803b1580156111de57600080fd5b505af11580156111f2573d6000803e3d6000fd5b50505050507f000000000000000000000000000000000000000000000000000000000000000073ffffffffffffffffffffffffffffffffffffffff1663a9059cbb82866040518363ffffffff1660e01b8152600401611252929190612be8565b6020604051808303816000875af1158015611271573d6000803e3d6000fd5b505050506040513d601f19601f820116820180604052508101906112959190612c49565b6112a2576112a16123e1565b5b8073ffffffffffffffffffffffffffffffffffffffff16636a627842886040518263ffffffff1660e01b81526004016112db91906127e9565b6020604051808303816000875af11580156112fa573d6000803e3d6000fd5b505050506040513d601f19601f8201168201806040525081019061131e9190612d63565b92508334111561133e5761133d3385346113389190612a5a565b611482565b5b505096509650969350505050565b6000808473ffffffffffffffffffffffffffffffffffffffff1663a9059cbb858560405160240161137e929190612be8565b6040516020818303038152906040529060e01b6020820180517bffffffffffffffffffffffffffffffffffffffffffffffffffffffff83818316178352505050506040516113cc9190612e01565b6000604051808303816000865af19150503d8060008114611409576040519150601f19603f3d011682016040523d82523d6000602084013e61140e565b606091505b509150915081801561143c575060008151148061143b57508080602001905181019061143a9190612c49565b5b5b61147b576040517f08c379a000000000000000000000000000000000000000000000000000000000815260040161147290612e8a565b60405180910390fd5b5050505050565b60008273ffffffffffffffffffffffffffffffffffffffff1682600067ffffffffffffffff8111156114b7576114b6612eaa565b5b6040519080825280601f01601f1916602001820160405280156114e95781602001600182028036833780820191505090505b506040516114f79190612e01565b60006040518083038185875af1925050503d8060008114611534576040519150601f19603f3d011682016040523d82523d6000602084013e611539565b606091505b505090508061157d576040517f08c379a000000000000000000000000000000000000000000000000000000000815260040161157490612f4b565b60405180910390fd5b505050565b60606002825110156115c9576040517f08c379a00000000000000000000000000000000000000000000000000000000081526004016115c090612fb7565b60405180910390fd5b815167ffffffffffffffff8111156115e4576115e3612eaa565b5b6040519080825280602002602001820160405280156116125781602001602082028036833780820191505090505b509050828160008151811061162a57611629612a8e565b5b60200260200101818152505060005b600183516116479190612a5a565b8110156116ff5760008061169c8786858151811061166857611667612a8e565b5b60200260200101518760018761167e9190612fd7565b8151811061168f5761168e612a8e565b5b6020026020010151611f2c565b915091506116c58484815181106116b6576116b5612a8e565b5b6020026020010151838361202f565b846001856116d39190612fd7565b815181106116e4576116e3612a8e565b5b60200260200101818152505050508080600101915050611639565b509392505050565b60008060006117168585612135565b9150915085828260405160200161172e929190613053565b6040516020818303038152906040528051906020012060405160200161175592919061314d565b6040516020818303038152906040528051906020012060001c925050509392505050565b6000808573ffffffffffffffffffffffffffffffffffffffff166323b872dd8686866040516024016117ad9392919061318f565b6040516020818303038152906040529060e01b6020820180517bffffffffffffffffffffffffffffffffffffffffffffffffffffffff83818316178352505050506040516117fb9190612e01565b6000604051808303816000865af19150503d8060008114611838576040519150601f19603f3d011682016040523d82523d6000602084013e61183d565b606091505b509150915081801561186b575060008151148061186a5750808060200190518101906118699190612c49565b5b5b6118aa576040517f08c379a00000000000000000000000000000000000000000000000000000000081526004016118a190613238565b60405180910390fd5b505050505050565b60005b600183516118c39190612a5a565b811015611aff576000808483815181106118e0576118df612a8e565b5b6020026020010151856001856118f69190612fd7565b8151811061190757611906612a8e565b5b602002602001015191509150600061191f8383612135565b5090506000876001866119329190612fd7565b8151811061194357611942612a8e565b5b602002602001015190506000808373ffffffffffffffffffffffffffffffffffffffff168673ffffffffffffffffffffffffffffffffffffffff161461198b5782600061198f565b6000835b91509150600060028a516119a39190612a5a565b88106119af5788611a01565b611a007f0000000000000000000000000000000000000000000000000000000000000000878c60028c6119e29190612fd7565b815181106119f3576119f2612a8e565b5b6020026020010151611707565b5b9050611a2e7f00000000000000000000000000000000000000000000000000000000000000008888611707565b73ffffffffffffffffffffffffffffffffffffffff1663022c0d9f848484600067ffffffffffffffff811115611a6757611a66612eaa565b5b6040519080825280601f01601f191660200182016040528015611a995781602001600182028036833780820191505090505b506040518563ffffffff1660e01b8152600401611ab994939291906132b3565b600060405180830381600087803b158015611ad357600080fd5b505af1158015611ae7573d6000803e3d6000fd5b505050505050505050505080806001019150506118b5565b50505050565b6000806000611b357f00000000000000000000000000000000000000000000000000000000000000008888611707565b90508073ffffffffffffffffffffffffffffffffffffffff166323b872dd3383886040518463ffffffff1660e01b8152600401611b749392919061318f565b6020604051808303816000875af1158015611b93573d6000803e3d6000fd5b505050506040513d601f19601f82011682018060405250810190611bb79190612c49565b506000808273ffffffffffffffffffffffffffffffffffffffff166389afcb44876040518263ffffffff1660e01b8152600401611bf491906127e9565b60408051808303816000875af1158015611c12573d6000803e3d6000fd5b505050506040513d601f19601f82011682018060405250810190611c3691906132ff565b915091506000611c468a8a612135565b5090508073ffffffffffffffffffffffffffffffffffffffff168a73ffffffffffffffffffffffffffffffffffffffff1614611c83578183611c86565b82825b955095505050505094509492505050565b600080600073ffffffffffffffffffffffffffffffffffffffff167f000000000000000000000000000000000000000000000000000000000000000073ffffffffffffffffffffffffffffffffffffffff1663e6a439058a8a6040518363ffffffff1660e01b8152600401611d0d92919061333f565b602060405180830381865afa158015611d2a573d6000803e3d6000fd5b505050506040513d601f19601f82011682018060405250810190611d4e919061337d565b73ffffffffffffffffffffffffffffffffffffffff1603611e09577f000000000000000000000000000000000000000000000000000000000000000073ffffffffffffffffffffffffffffffffffffffff1663c9c6539689896040518363ffffffff1660e01b8152600401611dc492919061333f565b6020604051808303816000875af1158015611de3573d6000803e3d6000fd5b505050506040513d601f19601f82011682018060405250810190611e07919061337d565b505b600080611e377f00000000000000000000000000000000000000000000000000000000000000008b8b611f2c565b91509150600082148015611e4b5750600081145b15611e5d578787935093505050611f21565b6000611e6a898484612261565b9050878111611ec45785811015611eb6576040517f08c379a0000000000000000000000000000000000000000000000000000000008152600401611ead90612d2e565b60405180910390fd5b888194509450505050611f21565b6000611ed1898486612261565b905087811015611f16576040517f08c379a0000000000000000000000000000000000000000000000000000000008152600401611f0d90612cc2565b60405180910390fd5b808995509550505050505b965096945050505050565b6000806000611f3b8585612135565b509050600080611f4c888888611707565b73ffffffffffffffffffffffffffffffffffffffff16630902f1ac6040518163ffffffff1660e01b8152600401606060405180830381865afa158015611f96573d6000803e3d6000fd5b505050506040513d601f19601f82011682018060405250810190611fba919061342c565b506dffffffffffffffffffffffffffff1691506dffffffffffffffffffffffffffff1691508273ffffffffffffffffffffffffffffffffffffffff168773ffffffffffffffffffffffffffffffffffffffff161461201957808261201c565b81815b8095508196505050505050935093915050565b6000808411612073576040517f08c379a000000000000000000000000000000000000000000000000000000000815260040161206a906134f1565b60405180910390fd5b6000831180156120835750600082115b6120c2576040517f08c379a00000000000000000000000000000000000000000000000000000000081526004016120b990613583565b60405180910390fd5b60006120d96103e58661231b90919063ffffffff16565b905060006120f0848361231b90919063ffffffff16565b9050600061211b8361210d6103e88961231b90919063ffffffff16565b61238890919063ffffffff16565b9050808261212991906135d2565b93505050509392505050565b6000808273ffffffffffffffffffffffffffffffffffffffff168473ffffffffffffffffffffffffffffffffffffffff16036121a6576040517f08c379a000000000000000000000000000000000000000000000000000000000815260040161219d90613675565b60405180910390fd5b8273ffffffffffffffffffffffffffffffffffffffff168473ffffffffffffffffffffffffffffffffffffffff16106121e05782846121e3565b83835b8092508193505050600073ffffffffffffffffffffffffffffffffffffffff168273ffffffffffffffffffffffffffffffffffffffff160361225a576040517f08c379a0000000000000000000000000000000000000000000000000000000008152600401612251906136e1565b60405180910390fd5b9250929050565b60008084116122a5576040517f08c379a000000000000000000000000000000000000000000000000000000000815260040161229c90613773565b60405180910390fd5b6000831180156122b55750600082115b6122f4576040517f08c379a00000000000000000000000000000000000000000000000000000000081526004016122eb90613583565b60405180910390fd5b82612308838661231b90919063ffffffff16565b61231291906135d2565b90509392505050565b6000808214806123435750828283856123349190613793565b92508261234191906135d2565b145b612382576040517f08c379a000000000000000000000000000000000000000000000000000000000815260040161237990613821565b60405180910390fd5b92915050565b60008282846123979190612fd7565b91508110156123db576040517f08c379a00000000000000000000000000000000000000000000000000000000081526004016123d29061388d565b60405180910390fd5b92915050565b7f4e487b7100000000000000000000000000000000000000000000000000000000600052600160045260246000fd5b600080fd5b600080fd5b600073ffffffffffffffffffffffffffffffffffffffff82169050919050565b60006124458261241a565b9050919050565b6124558161243a565b811461246057600080fd5b50565b6000813590506124728161244c565b92915050565b6000819050919050565b61248b81612478565b811461249657600080fd5b50565b6000813590506124a881612482565b92915050565b60008060008060008060c087890312156124cb576124ca612410565b5b60006124d989828a01612463565b96505060206124ea89828a01612499565b95505060406124fb89828a01612499565b945050606061250c89828a01612499565b935050608061251d89828a01612463565b92505060a061252e89828a01612499565b9150509295509295509295565b61254481612478565b82525050565b600060408201905061255f600083018561253b565b61256c602083018461253b565b9392505050565b600080fd5b600080fd5b600080fd5b60008083601f84011261259857612597612573565b5b8235905067ffffffffffffffff8111156125b5576125b4612578565b5b6020830191508360208202830111156125d1576125d061257d565b5b9250929050565b60008060008060008060a087890312156125f5576125f4612410565b5b600061260389828a01612499565b965050602061261489828a01612499565b955050604087013567ffffffffffffffff81111561263557612634612415565b5b61264189828a01612582565b9450945050606061265489828a01612463565b925050608061266589828a01612499565b9150509295509295509295565b600081519050919050565b600082825260208201905092915050565b6000819050602082019050919050565b6126a781612478565b82525050565b60006126b9838361269e565b60208301905092915050565b6000602082019050919050565b60006126dd82612672565b6126e7818561267d565b93506126f28361268e565b8060005b8381101561272357815161270a88826126ad565b9750612715836126c5565b9250506001810190506126f6565b5085935050505092915050565b6000602082019050818103600083015261274a81846126d2565b905092915050565b60008060008060006080868803121561276e5761276d612410565b5b600061277c88828901612499565b955050602086013567ffffffffffffffff81111561279d5761279c612415565b5b6127a988828901612582565b945094505060406127bc88828901612463565b92505060606127cd88828901612499565b9150509295509295909350565b6127e38161243a565b82525050565b60006020820190506127fe60008301846127da565b92915050565b600080600080600080600060e0888a03121561282357612822612410565b5b60006128318a828b01612463565b97505060206128428a828b01612463565b96505060406128538a828b01612499565b95505060606128648a828b01612499565b94505060806128758a828b01612499565b93505060a06128868a828b01612463565b92505060c06128978a828b01612499565b91505092959891949750929550565b600080600080600080600080610100898b0312156128c7576128c6612410565b5b60006128d58b828c01612463565b98505060206128e68b828c01612463565b97505060406128f78b828c01612499565b96505060606129088b828c01612499565b95505060806129198b828c01612499565b94505060a061292a8b828c01612499565b93505060c061293b8b828c01612463565b92505060e061294c8b828c01612499565b9150509295985092959890939650565b6000606082019050612971600083018661253b565b61297e602083018561253b565b61298b604083018461253b565b949350505050565b600082825260208201905092915050565b7f5368756e61496e753a2045585049524544000000000000000000000000000000600082015250565b60006129da601183612993565b91506129e5826129a4565b602082019050919050565b60006020820190508181036000830152612a09816129cd565b9050919050565b6000602082019050612a25600083018461253b565b92915050565b7f4e487b7100000000000000000000000000000000000000000000000000000000600052601160045260246000fd5b6000612a6582612478565b9150612a7083612478565b9250828203905081811115612a8857612a87612a2b565b5b92915050565b7f4e487b7100000000000000000000000000000000000000000000000000000000600052603260045260246000fd5b600060208284031215612ad357612ad2612410565b5b6000612ae184828501612463565b91505092915050565b7f5368756e61496e753a20494e56414c49445f5041544800000000000000000000600082015250565b6000612b20601683612993565b9150612b2b82612aea565b602082019050919050565b60006020820190508181036000830152612b4f81612b13565b9050919050565b7f5368756e61496e753a20494e53554646494349454e545f4f55545055545f414d60008201527f4f554e5400000000000000000000000000000000000000000000000000000000602082015250565b6000612bb2602483612993565b9150612bbd82612b56565b604082019050919050565b60006020820190508181036000830152612be181612ba5565b9050919050565b6000604082019050612bfd60008301856127da565b612c0a602083018461253b565b9392505050565b60008115159050919050565b612c2681612c11565b8114612c3157600080fd5b50565b600081519050612c4381612c1d565b92915050565b600060208284031215612c5f57612c5e612410565b5b6000612c6d84828501612c34565b91505092915050565b7f5368756e61496e753a20494e53554646494349454e545f415f414d4f554e5400600082015250565b6000612cac601f83612993565b9150612cb782612c76565b602082019050919050565b60006020820190508181036000830152612cdb81612c9f565b9050919050565b7f5368756e61496e753a20494e53554646494349454e545f425f414d4f554e5400600082015250565b6000612d18601f83612993565b9150612d2382612ce2565b602082019050919050565b60006020820190508181036000830152612d4781612d0b565b9050919050565b600081519050612d5d81612482565b92915050565b600060208284031215612d7957612d78612410565b5b6000612d8784828501612d4e565b91505092915050565b600081519050919050565b600081905092915050565b60005b83811015612dc4578082015181840152602081019050612da9565b60008484015250505050565b6000612ddb82612d90565b612de58185612d9b565b9350612df5818560208601612da6565b80840191505092915050565b6000612e0d8284612dd0565b915081905092915050565b7f5472616e7366657248656c7065723a3a736166655472616e736665723a20747260008201527f616e73666572206661696c656400000000000000000000000000000000000000602082015250565b6000612e74602d83612993565b9150612e7f82612e18565b604082019050919050565b60006020820190508181036000830152612ea381612e67565b9050919050565b7f4e487b7100000000000000000000000000000000000000000000000000000000600052604160045260246000fd5b7f5472616e7366657248656c7065723a3a736166655472616e736665724554483a60008201527f20455448207472616e73666572206661696c6564000000000000000000000000602082015250565b6000612f35603483612993565b9150612f4082612ed9565b604082019050919050565b60006020820190508181036000830152612f6481612f28565b9050919050565b7f5368756e61496e754c6962726172793a20494e56414c49445f50415448000000600082015250565b6000612fa1601d83612993565b9150612fac82612f6b565b602082019050919050565b60006020820190508181036000830152612fd081612f94565b9050919050565b6000612fe282612478565b9150612fed83612478565b925082820190508082111561300557613004612a2b565b5b92915050565b60008160601b9050919050565b60006130238261300b565b9050919050565b600061303582613018565b9050919050565b61304d6130488261243a565b61302a565b82525050565b600061305f828561303c565b60148201915061306f828461303c565b6014820191508190509392505050565b600081905092915050565b7fff00000000000000000000000000000000000000000000000000000000000000600082015250565b60006130c060018361307f565b91506130cb8261308a565b600182019050919050565b6000819050919050565b6000819050919050565b6130fb6130f6826130d6565b6130e0565b82525050565b7f0b182e4a40c383844a54ca5b5d94a7c13bdec677db6b0134a8cc38a7763088bf600082015250565b600061313760208361307f565b915061314282613101565b602082019050919050565b6000613158826130b3565b9150613164828561303c565b60148201915061317482846130ea565b6020820191506131838261312a565b91508190509392505050565b60006060820190506131a460008301866127da565b6131b160208301856127da565b6131be604083018461253b565b949350505050565b7f5472616e7366657248656c7065723a3a7472616e7366657246726f6d3a20747260008201527f616e7366657246726f6d206661696c6564000000000000000000000000000000602082015250565b6000613222603183612993565b915061322d826131c6565b604082019050919050565b6000602082019050818103600083015261325181613215565b9050919050565b600082825260208201905092915050565b6000601f19601f8301169050919050565b600061328582612d90565b61328f8185613258565b935061329f818560208601612da6565b6132a881613269565b840191505092915050565b60006080820190506132c8600083018761253b565b6132d5602083018661253b565b6132e260408301856127da565b81810360608301526132f4818461327a565b905095945050505050565b6000806040838503121561331657613315612410565b5b600061332485828601612d4e565b925050602061333585828601612d4e565b9150509250929050565b600060408201905061335460008301856127da565b61336160208301846127da565b9392505050565b6000815190506133778161244c565b92915050565b60006020828403121561339357613392612410565b5b60006133a184828501613368565b91505092915050565b60006dffffffffffffffffffffffffffff82169050919050565b6133cd816133aa565b81146133d857600080fd5b50565b6000815190506133ea816133c4565b92915050565b600063ffffffff82169050919050565b613409816133f0565b811461341457600080fd5b50565b60008151905061342681613400565b92915050565b60008060006060848603121561344557613444612410565b5b6000613453868287016133db565b9350506020613464868287016133db565b925050604061347586828701613417565b9150509250925092565b7f5368756e61496e754c6962726172793a20494e53554646494349454e545f494e60008201527f5055545f414d4f554e5400000000000000000000000000000000000000000000602082015250565b60006134db602a83612993565b91506134e68261347f565b604082019050919050565b6000602082019050818103600083015261350a816134ce565b9050919050565b7f5368756e61496e754c6962726172793a20494e53554646494349454e545f4c4960008201527f5155494449545900000000000000000000000000000000000000000000000000602082015250565b600061356d602783612993565b915061357882613511565b604082019050919050565b6000602082019050818103600083015261359c81613560565b9050919050565b7f4e487b7100000000000000000000000000000000000000000000000000000000600052601260045260246000fd5b60006135dd82612478565b91506135e883612478565b9250826135f8576135f76135a3565b5b828204905092915050565b7f5368756e61496e754c6962726172793a204944454e544943414c5f414444524560008201527f5353455300000000000000000000000000000000000000000000000000000000602082015250565b600061365f602483612993565b915061366a82613603565b604082019050919050565b6000602082019050818103600083015261368e81613652565b9050919050565b7f5368756e61496e754c6962726172793a205a45524f5f41444452455353000000600082015250565b60006136cb601d83612993565b91506136d682613695565b602082019050919050565b600060208201905081810360008301526136fa816136be565b9050919050565b7f5368756e61496e754c6962726172793a20494e53554646494349454e545f414d60008201527f4f554e5400000000000000000000000000000000000000000000000000000000602082015250565b600061375d602483612993565b915061376882613701565b604082019050919050565b6000602082019050818103600083015261378c81613750565b9050919050565b600061379e82612478565b91506137a983612478565b92508282026137b781612478565b915082820484148315176137ce576137cd612a2b565b5b5092915050565b7f64732d6d6174682d6d756c2d6f766572666c6f77000000000000000000000000600082015250565b600061380b601483612993565b9150613816826137d5565b602082019050919050565b6000602082019050818103600083015261383a816137fe565b9050919050565b7f64732d6d6174682d6164642d6f766572666c6f77000000000000000000000000600082015250565b6000613877601483612993565b915061388282613841565b602082019050919050565b600060208201905081810360008301526138a68161386a565b905091905056fea26469706673582212208162d5c15b8a190b528ca8de53cf94ac568cf880fae659bf5452e78338af194264736f6c634300081b0033",
  "linkReferences": {},
  "deployedLinkReferences": {}
}